{"contracts/token/NenoSecurityToken.sol":{"NenoSecurityToken":{"abi":[{"inputs":[{"internalType":"string","name":"_name","type":"string"},{"internalType":"string","name":"_symbol","type":"string"},{"internalType":"address","name":"_owner","type":"address"},{"internalType":"address","name":"_registry","type":"address"},{"internalType":"address","name":"_compliance","type":"address"}],"stateMutability":"nonpayable","type":"constructor"},{"anonymous":false,"inputs":[{"indexed":true,"internalType":"address","name":"agent","type":"address"},{"indexed":false,"internalType":"bool","name":"enabled","type":"bool"}],"name":"AgentSet","type":"event"},{"anonymous":false,"inputs":[{"indexed":true,"internalType":"address","name":"owner","type":"address"},{"indexed":true,"internalType":"address","name":"spender","type":"address"},{"indexed":false,"internalType":"uint256","name":"value","type":"uint256"}],"name":"Approval","type":"event"},{"anonymous":false,"inputs":[{"indexed":true,"internalType":"address","name":"newCompliance","type":"address"}],"name":"ComplianceChanged","type":"event"},{"anonymous":false,"inputs":[{"indexed":true,"internalType":"address","name":"from","type":"address"},{"indexed":true,"internalType":"address","name":"to","type":"address"},{"indexed":false,"internalType":"uint256","name":"amount","type":"uint256"},{"indexed":false,"internalType":"string","name":"reason","type":"string"}],"name":"ForcedTransfer","type":"event"},{"anonymous":false,"inputs":[{"indexed":true,"internalType":"address","name":"newOwner","type":"address"}],"name":"OwnerChanged","type":"event"},{"anonymous":false,"inputs":[{"indexed":true,"internalType":"address","name":"by","type":"address"}],"name":"Paused","type":"event"},{"anonymous":false,"inputs":[{"indexed":true,"internalType":"address","name":"newRegistry","type":"address"}],"name":"RegistryChanged","type":"event"},{"anonymous":false,"inputs":[{"indexed":true,"internalType":"address","name":"from","type":"address"},{"indexed":true,"internalType":"address","name":"to","type":"address"},{"indexed":false,"internalType":"uint256","name":"value","type":"uint256"}],"name":"Transfer","type":"event"},{"anonymous":false,"inputs":[{"indexed":true,"internalType":"address","name":"by","type":"address"}],"name":"Unpaused","type":"event"},{"anonymous":false,"inputs":[{"indexed":true,"internalType":"address","name":"wallet","type":"address"}],"name":"WalletLost","type":"event"},{"anonymous":false,"inputs":[{"indexed":true,"internalType":"address","name":"lostWallet","type":"address"},{"indexed":true,"internalType":"address","name":"recoveryWallet","type":"address"}],"name":"WalletRecovered","type":"event"},{"inputs":[{"internalType":"address","name":"","type":"address"}],"name":"agents","outputs":[{"internalType":"bool","name":"","type":"bool"}],"stateMutability":"view","type":"function"},{"inputs":[{"internalType":"address","name":"o","type":"address"},{"internalType":"address","name":"s","type":"address"}],"name":"allowance","outputs":[{"internalType":"uint256","name":"","type":"uint256"}],"stateMutability":"view","type":"function"},{"inputs":[{"internalType":"address","name":"spender","type":"address"},{"internalType":"uint256","name":"amount","type":"uint256"}],"name":"approve","outputs":[{"internalType":"bool","name":"","type":"bool"}],"stateMutability":"nonpayable","type":"function"},{"inputs":[{"internalType":"address","name":"a","type":"address"}],"name":"balanceOf","outputs":[{"internalType":"uint256","name":"","type":"uint256"}],"stateMutability":"view","type":"function"},{"inputs":[{"internalType":"address","name":"from","type":"address"},{"internalType":"uint256","name":"amount","type":"uint256"}],"name":"burn","outputs":[],"stateMutability":"nonpayable","type":"function"},{"inputs":[],"name":"compliance","outputs":[{"internalType":"contract ICompliance","name":"","type":"address"}],"stateMutability":"view","type":"function"},{"inputs":[],"name":"decimals","outputs":[{"internalType":"uint8","name":"","type":"uint8"}],"stateMutability":"view","type":"function"},{"inputs":[{"internalType":"address","name":"from","type":"address"},{"internalType":"address","name":"to","type":"address"},{"internalType":"uint256","name":"amount","type":"uint256"},{"internalType":"string","name":"reason","type":"string"}],"name":"forcedTransfer","outputs":[],"stateMutability":"nonpayable","type":"function"},{"inputs":[{"internalType":"address","name":"","type":"address"}],"name":"lost","outputs":[{"internalType":"bool","name":"","type":"bool"}],"stateMutability":"view","type":"function"},{"inputs":[{"internalType":"address","name":"to","type":"address"},{"internalType":"uint256","name":"amount","type":"uint256"}],"name":"mint","outputs":[],"stateMutability":"nonpayable","type":"function"},{"inputs":[],"name":"name","outputs":[{"internalType":"string","name":"","type":"string"}],"stateMutability":"view","type":"function"},{"inputs":[],"name":"owner","outputs":[{"internalType":"address","name":"","type":"address"}],"stateMutability":"view","type":"function"},{"inputs":[],"name":"pause","outputs":[],"stateMutability":"nonpayable","type":"function"},{"inputs":[],"name":"paused","outputs":[{"internalType":"bool","name":"","type":"bool"}],"stateMutability":"view","type":"function"},{"inputs":[],"name":"registry","outputs":[{"internalType":"contract IIdentityRegistry","name":"","type":"address"}],"stateMutability":"view","type":"function"},{"inputs":[{"internalType":"address","name":"a","type":"address"},{"internalType":"bool","name":"enabled","type":"bool"}],"name":"setAgent","outputs":[],"stateMutability":"nonpayable","type":"function"},{"inputs":[{"internalType":"address","name":"c","type":"address"}],"name":"setCompliance","outputs":[],"stateMutability":"nonpayable","type":"function"},{"inputs":[{"internalType":"address","name":"wallet","type":"address"},{"internalType":"bool","name":"isLost","type":"bool"}],"name":"setLost","outputs":[],"stateMutability":"nonpayable","type":"function"},{"inputs":[{"internalType":"address","name":"newOwner","type":"address"}],"name":"setOwner","outputs":[],"stateMutability":"nonpayable","type":"function"},{"inputs":[{"internalType":"address","name":"r","type":"address"}],"name":"setRegistry","outputs":[],"stateMutability":"nonpayable","type":"function"},{"inputs":[],"name":"symbol","outputs":[{"internalType":"string","name":"","type":"string"}],"stateMutability":"view","type":"function"},{"inputs":[],"name":"totalSupply","outputs":[{"internalType":"uint256","name":"","type":"uint256"}],"stateMutability":"view","type":"function"},{"inputs":[{"internalType":"address","name":"to","type":"address"},{"internalType":"uint256","name":"amount","type":"uint256"}],"name":"transfer","outputs":[{"internalType":"bool","name":"","type":"bool"}],"stateMutability":"nonpayable","type":"function"},{"inputs":[{"internalType":"address","name":"from","type":"address"},{"internalType":"address","name":"to","type":"address"},{"internalType":"uint256","name":"amount","type":"uint256"}],"name":"transferFrom","outputs":[{"internalType":"bool","name":"","type":"bool"}],"stateMutability":"nonpayable","type":"function"},{"inputs":[],"name":"unpause","outputs":[],"stateMutability":"nonpayable","type":"function"}],"evm":{"bytecode":{"linkReferences":{},"object":"60806040523462000411576200191a803803806200001d8162000416565b928339810160a082820312620004115781516001600160401b0391908281116200041157816200004f9185016200043c565b602091828501519084821162000411576200006c9186016200043c565b906200007b60408601620004ae565b936200009860806200009060608901620004ae565b9701620004ae565b6001600160a01b03958616969094908715620003e25786169384151580620003d6575b15620003ab5783519183831162000395576000908154936001968786811c961680156200038a575b8387101462000376578190601f9687811162000323575b508390878311600114620002bf578592620002b3575b5050600019600383901b1c191690871b1782555b82519485116200029f5785548681811c9116801562000294575b82821014620002805790818587969594931162000227575b5080938511600114620001c0575092620001b4575b5050600019600383901b1c191690821b1790555b60018060a01b0319938460055416176005558360095416176009551690600a541617600a556040516114569081620004c48239f35b0151905038806200016b565b868252808220879650939291601f198616915b8282106200020d5750508411620001f3575b505050811b0190556200017f565b015160001960f88460031b161c19169055388080620001e5565b8484015186558897909501949384019390810190620001d3565b9091929394508683528183208580880160051c82019284891062000276575b9188978a9297969594930160051c01915b8281106200026757505062000156565b84815588975089910162000257565b9250819262000246565b634e487b7160e01b83526022600452602483fd5b90607f16906200013e565b634e487b7160e01b82526041600452602482fd5b01519050388062000110565b8580528486208a94509190601f198416875b878282106200030c5750508411620002f2575b505050811b01825562000124565b015160001960f88460031b161c19169055388080620002e4565b8385015186558d97909501949384019301620002d1565b9091508480528385208780850160051c8201928686106200036c575b918b91869594930160051c01915b8281106200035d575050620000fa565b8781558594508b91016200034d565b925081926200033f565b634e487b7160e01b84526022600452602484fd5b95607f1695620000e3565b634e487b7160e01b600052604160045260246000fd5b60405162461bcd60e51b815260048082018490526024820152637a65726f60e01b6044820152606490fd5b508686161515620000bb565b60405162461bcd60e51b815260048101839052600760248201526606f776e65723d360cc1b6044820152606490fd5b600080fd5b6040519190601f01601f191682016001600160401b038111838210176200039557604052565b919080601f84011215620004115782516001600160401b038111620003955760209062000472601f8201601f1916830162000416565b92818452828287010111620004115760005b8181106200049a57508260009394955001015290565b858101830151848201840152820162000484565b51906001600160a01b0382168203620004115756fe608060408181526004918236101561001657600080fd5b600092833560e01c91826306fdde0314610ece57508163095ea7b314610e5f57816313af403514610de857816318160ddd14610dc957816323b872dd14610ce6578163313ce56714610cca5781633ad8b2d7146109b75781633f4ba83a1461095f5783826340c10f19146107b45750816349ba507b146107185781635c975abb146106f45781636290865d146106cb57816370405a471461068d57816370a08231146106555781637b1039991461062c5781638456cb59146105d15781638da5cb5b146105a857816395d89b41146104a657816397d8c6761461042d578382639dc29fac1461030257508163a9059cbb146102c2578163a91ee0dc14610249578163dd62ed3e146101f857508063f89817891461017c5763fd66091e1461013c57600080fd5b346101785760203660031901126101785760209160ff9082906001600160a01b03610165611052565b1681526006855220541690519015158152f35b5080fd5b82346101f55760203660031901126101f557610196611052565b6005546001600160a01b0391906101b090831633146110b2565b166101bc8115156110ea565b600a80546001600160a01b031916821790557fa958a8141c83d69ebaaa9383a0cf588c2c4e6f8dc823573bb94ccc3e4848e7f78280a280f35b80fd5b90503461024557816003193601126102455760209282610216611052565b9161021f61106d565b6001600160a01b0393841682529386522091166000908152908352819020549051908152f35b8280fd5b83346101f55760203660031901126101f557610263611052565b6005546001600160a01b03919061027d90831633146110b2565b166102898115156110ea565b600980546001600160a01b031916821790557fdb0239c63d4033dcdd21bd44f8dd479a03efbae12f6bbe27c0a5f923d26514cc8280a280f35b5050346101785780600319360112610178576020906102fb6102e2611052565b6102f160ff6007541615611154565b6024359033611265565b5160018152f35b9291503461042957816003193601126104295761031d611052565b9160243591338552600660205260ff82862054168015610415575b6103419061111c565b6001600160a01b0384811680875260036020528387205490959190859061036a8282101561120c565b878952600360205203848820558460025403600255600a541691823b1561041157835163469753b960e11b81526001600160a01b03909216908201908152602081018590529091869183919082908490829060400103925af18015610407579085916103ee575b50506000805160206114018339815191529160209151908152a380f35b6103f790610fbd565b6104025783386103d1565b505050fd5b82513d87823e3d90fd5b8680fd5b506005546001600160a01b03163314610338565b5050fd5b505034610178577fdfbbd189290ad6ccafc74f11e514df22fe2c990b1f70c48e80c0c152ccf16415602061046036611083565b60055490916001600160a01b039161047b90831633146110b2565b16938486526006835261049c828288209060ff801983541691151516179055565b519015158152a280f35b8284346101f557806003193601126101f55750805190600092600180549081811c91818116801561059e575b602094858510821461058b575083875290811561056b5750600114610512575b5050506105048261050e940383610fe7565b5191829182611009565b0390f35b60008181529295507fb10e2d527612073b26eecdfd717e6a320cf44b4afac2b0732d9fcbe2b7fa0cf65b828410610558575050508261050e9461050492820101946104f2565b805486850188015292860192810161053c565b60ff1916868501525050151560051b83010192506105048261050e6104f2565b634e487b7160e01b895260229052602488fd5b92607f16926104d2565b50503461017857816003193601126101785760055490516001600160a01b039091168152602090f35b83346101f557806003193601126101f5576105f760018060a01b036005541633146110b2565b600160ff196007541617600755337f62e78cea01bee320cd4e420270b5ea74000d11b0c9f74754ebdbfc544b05a2588280a280f35b50503461017857816003193601126101785760095490516001600160a01b039091168152602090f35b5050346101785760203660031901126101785760209181906001600160a01b0361067d611052565b1681526003845220549051908152f35b5050346101785760203660031901126101785760209160ff9082906001600160a01b036106b8611052565b1681526008855220541690519015158152f35b505034610178578160031936011261017857600a5490516001600160a01b039091168152602090f35b50503461017857816003193601126101785760209060ff6007541690519015158152f35b5050346101785761077161072b36611083565b809291338652600660205260ff858720541680156107a0575b61074d9061111c565b60018060a01b031693848652600860205285209060ff801983541691151516179055565b610779575080f35b7fc8b9fe42bb60581daa8b3ec9bd5cb0145477e23a96801aa7bf3dcb545ae86d9c8280a280f35b506005546001600160a01b03163314610744565b915091346101785780600319360112610178576107cf611052565b926024353384526020916006835260ff8486205416801561094b575b6107f49061111c565b61080360ff6007541615611154565b6001600160a01b03868116969061081b881515611189565b60648582600a54168851928380926372331c7360e11b82526000898301528d60248301528960448301525afa9081156109415790610860918991610914575b506111d3565b61086c84600254611242565b60025587875260038552858720610884858254611242565b9055600a541691823b15610411578551635f8dead360e01b81526001600160a01b03909216908201908152602081018490529091869183919082908490829060400103925af1801561090a579085916108f2575b50506000805160206114018339815191529251908152a380f35b6108fb90610fbd565b6109065783386108d8565b8380fd5b84513d87823e3d90fd5b6109349150873d891161093a575b61092c8183610fe7565b8101906111bb565b3861085a565b503d610922565b87513d8a823e3d90fd5b506005546001600160a01b031633146107eb565b83346101f557806003193601126101f55761098560018060a01b036005541633146110b2565b60ff1960075416600755337f5db9ee0a495bf2e6ff9c91a7834c1ba4fdd244a5e8aa4e537bd38aeae4b073aa8280a280f35b91905034610245576080366003190112610245576109d3611052565b916109dc61106d565b916044359060643567ffffffffffffffff808211610cc65736602383011215610cc65781850135908111610cc6573660248284010111610cc6573388526020946006865260ff848a2054168015610cb2575b610a379061111c565b6001600160a01b0387811698909790610a518a1515611189565b8315610c7d57600a5486516372331c7360e11b81526001600160a01b038084168683019081529085166020820152604081018a90528d9493928b9183918e16908290819060600103915afa908115610c735790610ab4918591610c5c57506111d3565b898116998a845260038a528888852054610ad08282101561120c565b8c865260038c5203888520558b8452878420610aed8a8254611242565b9055600a541690813b156109065787516322ebca6d60e21b81526001600160a01b039182169581019586529216602085015260408401889052909283919082908490829060600103925af18015610c5257610bf9575b50857fbb53097141337c38a36fed7fae913304cd0c540e1200dbb4c8c1cee707f9f2c260246060600080516020611401833981519152989796958b9586868f81815260088d5260ff8b82205416610bcd575b5050508088519485938b85528a8d860152828b860152018484013781810183018e9052601f01601f19168101030190a351908152a380f35b807fced95d270303f50b4373064f4148282a32dd521235b73c351f0955a594941a3091a386868f610b95565b7fbb53097141337c38a36fed7fae913304cd0c540e1200dbb4c8c1cee707f9f2c260246060600080516020611401833981519152989796958b95868c9e610c408e98610fbd565b9e505095509596979850505050610b43565b84513d8b823e3d90fd5b61093491508b3d8d1161093a5761092c8183610fe7565b88513d86823e3d90fd5b855162461bcd60e51b8152808401899052600f60248201526e1c99585cdbdb881c995c5d5a5c9959608a1b6044820152606490fd5b506005546001600160a01b03163314610a2e565b8780fd5b5050346101785781600319360112610178576020905160128152f35b83833461017857606036600319011261017857610d01611052565b610d0961106d565b60443591610d1c60ff6007541615611154565b6001600160a01b038116808652602087815285872033885281528587205490969091858310610d9a5760018301610d5c575b505050906102fb9291611265565b858303928311610d8757908697986102fb979282528952818120338252895220558594938780610d4e565b634e487b7160e01b825260118952602482fd5b865162461bcd60e51b8152808a018990526009602482015268616c6c6f77616e636560b81b6044820152606490fd5b5050346101785781600319360112610178576020906002549051908152f35b83346101f55760203660031901126101f557610e02611052565b600554906001600160a01b0390610e1c33838516146110b2565b168091610e2a8215156110ea565b6001600160a01b031916176005557fa2ea9883a321a3e97b8266c2b078bfeec6d50c711ed71f874a90d500ae2eaf368280a280f35b905034610245578160031936011261024557602092610e7c611052565b918360243592839233825287528181209460018060a01b0316948582528752205582519081527f8c5be1e5ebec7d5bd14f71427d1e84f3dd0314c0f7b2291e5b200ac8c7c3b925843392a35160018152f35b929150346109065783600319360112610906578354600181811c9186908281168015610fb3575b6020958686108214610fa05750848852908115610f7e5750600114610f26575b61050e8686610504828b0383610fe7565b8080949750527f290decd9548b62a8d60345a988386fc84ba6bc95484008f6362f93160ef3e5635b828410610f6b575050508261050e94610504928201019438610f15565b8054868501880152928601928101610f4e565b60ff191687860152505050151560051b83010192506105048261050e38610f15565b634e487b7160e01b845260229052602483fd5b93607f1693610ef5565b67ffffffffffffffff8111610fd157604052565b634e487b7160e01b600052604160045260246000fd5b90601f8019910116810190811067ffffffffffffffff821117610fd157604052565b6020808252825181830181905290939260005b82811061103e57505060409293506000838284010152601f8019910116010190565b81810186015184820160400152850161101c565b600435906001600160a01b038216820361106857565b600080fd5b602435906001600160a01b038216820361106857565b6040906003190112611068576004356001600160a01b0381168103611068579060243580151581036110685790565b156110b957565b60405162461bcd60e51b81526020600482015260096024820152683737ba1037bbb732b960b91b6044820152606490fd5b156110f157565b606460405162461bcd60e51b81526020600482015260046024820152637a65726f60e01b6044820152fd5b1561112357565b60405162461bcd60e51b81526020600482015260096024820152681b9bdd081859d95b9d60ba1b6044820152606490fd5b1561115b57565b60405162461bcd60e51b81526020600482015260066024820152651c185d5cd95960d21b6044820152606490fd5b1561119057565b606460405162461bcd60e51b81526020600482015260046024820152630746f3d360e41b6044820152fd5b90816020910312611068575180151581036110685790565b156111da57565b60405162461bcd60e51b815260206004820152600a602482015269636f6d706c69616e636560b01b6044820152606490fd5b1561121357565b60405162461bcd60e51b815260206004820152600760248201526662616c616e636560c81b6044820152606490fd5b9190820180921161124f57565b634e487b7160e01b600052601160045260246000fd5b9092916001600160a01b03808516929091611281841515611189565b828216926000968488526020936008855260409260ff848b2054166113d057600a5484516372331c7360e11b81526001600160a01b03848116600483015285166024820152604481018790528b93929188908290606490829086165afa9081156113c657906112f69185916113af57506111d3565b87835260038752858584205461130e8282101561120c565b89855260038952038584205588835284832061132b878254611242565b9055600a5416803b156102455784516322ebca6d60e21b81526001600160a01b039283166004820152939091166024840152604483018590528290606490829084905af180156113a5576000805160206114018339815191529596979850611396575b5051908152a3565b61139f90610fbd565b3861138e565b82513d8a823e3d90fd5b6109349150893d8b1161093a5761092c8183610fe7565b86513d86823e3d90fd5b835162461bcd60e51b8152600481018790526009602482015268199c9bdb481b1bdcdd60ba1b6044820152606490fdfeddf252ad1be2c89b69c2b068fc378daa952ba7f163c4a11628f55a4df523b3efa26469706673582212207bbf33c0c2d7c59a0625a73733c003c7bfdba926e24d0c67828d759eb98ac45b64736f6c63430008140033","opcodes":"PUSH1 0x80 PUSH1 0x40 MSTORE CALLVALUE PUSH3 0x411 JUMPI PUSH3 0x191A DUP1 CODESIZE SUB DUP1 PUSH3 0x1D DUP2 PUSH3 0x416 JUMP JUMPDEST SWAP3 DUP4 CODECOPY DUP2 ADD PUSH1 0xA0 DUP3 DUP3 SUB SLT PUSH3 0x411 JUMPI DUP2 MLOAD PUSH1 0x1 PUSH1 0x1 PUSH1 0x40 SHL SUB SWAP2 SWAP1 DUP3 DUP2 GT PUSH3 0x411 JUMPI DUP2 PUSH3 0x4F SWAP2 DUP6 ADD PUSH3 0x43C JUMP JUMPDEST PUSH1 0x20 SWAP2 DUP3 DUP6 ADD MLOAD SWAP1 DUP5 DUP3 GT PUSH3 0x411 JUMPI PUSH3 0x6C SWAP2 DUP7 ADD PUSH3 0x43C JUMP JUMPDEST SWAP1 PUSH3 0x7B PUSH1 0x40 DUP7 ADD PUSH3 0x4AE JUMP JUMPDEST SWAP4 PUSH3 0x98 PUSH1 0x80 PUSH3 0x90 PUSH1 0x60 DUP10 ADD PUSH3 0x4AE JUMP JUMPDEST SWAP8 ADD PUSH3 0x4AE JUMP JUMPDEST PUSH1 0x1 PUSH1 0x1 PUSH1 0xA0 SHL SUB SWAP6 DUP7 AND SWAP7 SWAP1 SWAP5 SWAP1 DUP8 ISZERO PUSH3 0x3E2 JUMPI DUP7 AND SWAP4 DUP5 ISZERO ISZERO DUP1 PUSH3 0x3D6 JUMPI JUMPDEST ISZERO PUSH3 0x3AB JUMPI DUP4 MLOAD SWAP2 DUP4 DUP4 GT PUSH3 0x395 JUMPI PUSH1 0x0 SWAP1 DUP2 SLOAD SWAP4 PUSH1 0x1 SWAP7 DUP8 DUP7 DUP2 SHR SWAP7 AND DUP1 ISZERO PUSH3 0x38A JUMPI JUMPDEST DUP4 DUP8 LT EQ PUSH3 0x376 JUMPI DUP2 SWAP1 PUSH1 0x1F SWAP7 DUP8 DUP2 GT PUSH3 0x323 JUMPI JUMPDEST POP DUP4 SWAP1 DUP8 DUP4 GT PUSH1 0x1 EQ PUSH3 0x2BF JUMPI DUP6 SWAP3 PUSH3 0x2B3 JUMPI JUMPDEST POP POP PUSH1 0x0 NOT PUSH1 0x3 DUP4 SWAP1 SHL SHR NOT AND SWAP1 DUP8 SHL OR DUP3 SSTORE JUMPDEST DUP3 MLOAD SWAP5 DUP6 GT PUSH3 0x29F JUMPI DUP6 SLOAD DUP7 DUP2 DUP2 SHR SWAP2 AND DUP1 ISZERO PUSH3 0x294 JUMPI JUMPDEST DUP3 DUP3 LT EQ PUSH3 0x280 JUMPI SWAP1 DUP2 DUP6 DUP8 SWAP7 SWAP6 SWAP5 SWAP4 GT PUSH3 0x227 JUMPI JUMPDEST POP DUP1 SWAP4 DUP6 GT PUSH1 0x1 EQ PUSH3 0x1C0 JUMPI POP SWAP3 PUSH3 0x1B4 JUMPI JUMPDEST POP POP PUSH1 0x0 NOT PUSH1 0x3 DUP4 SWAP1 SHL SHR NOT AND SWAP1 DUP3 SHL OR SWAP1 SSTORE JUMPDEST PUSH1 0x1 DUP1 PUSH1 0xA0 SHL SUB NOT SWAP4 DUP5 PUSH1 0x5 SLOAD AND OR PUSH1 0x5 SSTORE DUP4 PUSH1 0x9 SLOAD AND OR PUSH1 0x9 SSTORE AND SWAP1 PUSH1 0xA SLOAD AND OR PUSH1 0xA SSTORE PUSH1 0x40 MLOAD PUSH2 0x1456 SWAP1 DUP2 PUSH3 0x4C4 DUP3 CODECOPY RETURN JUMPDEST ADD MLOAD SWAP1 POP CODESIZE DUP1 PUSH3 0x16B JUMP JUMPDEST DUP7 DUP3 MSTORE DUP1 DUP3 KECCAK256 DUP8 SWAP7 POP SWAP4 SWAP3 SWAP2 PUSH1 0x1F NOT DUP7 AND SWAP2 JUMPDEST DUP3 DUP3 LT PUSH3 0x20D JUMPI POP POP DUP5 GT PUSH3 0x1F3 JUMPI JUMPDEST POP POP POP DUP2 SHL ADD SWAP1 SSTORE PUSH3 0x17F JUMP JUMPDEST ADD MLOAD PUSH1 0x0 NOT PUSH1 0xF8 DUP5 PUSH1 0x3 SHL AND SHR NOT AND SWAP1 SSTORE CODESIZE DUP1 DUP1 PUSH3 0x1E5 JUMP JUMPDEST DUP5 DUP5 ADD MLOAD DUP7 SSTORE DUP9 SWAP8 SWAP1 SWAP6 ADD SWAP5 SWAP4 DUP5 ADD SWAP4 SWAP1 DUP2 ADD SWAP1 PUSH3 0x1D3 JUMP JUMPDEST SWAP1 SWAP2 SWAP3 SWAP4 SWAP5 POP DUP7 DUP4 MSTORE DUP2 DUP4 KECCAK256 DUP6 DUP1 DUP9 ADD PUSH1 0x5 SHR DUP3 ADD SWAP3 DUP5 DUP10 LT PUSH3 0x276 JUMPI JUMPDEST SWAP2 DUP9 SWAP8 DUP11 SWAP3 SWAP8 SWAP7 SWAP6 SWAP5 SWAP4 ADD PUSH1 0x5 SHR ADD SWAP2 JUMPDEST DUP3 DUP2 LT PUSH3 0x267 JUMPI POP POP PUSH3 0x156 JUMP JUMPDEST DUP5 DUP2 SSTORE DUP9 SWAP8 POP DUP10 SWAP2 ADD PUSH3 0x257 JUMP JUMPDEST SWAP3 POP DUP2 SWAP3 PUSH3 0x246 JUMP JUMPDEST PUSH4 0x4E487B71 PUSH1 0xE0 SHL DUP4 MSTORE PUSH1 0x22 PUSH1 0x4 MSTORE PUSH1 0x24 DUP4 REVERT JUMPDEST SWAP1 PUSH1 0x7F AND SWAP1 PUSH3 0x13E JUMP JUMPDEST PUSH4 0x4E487B71 PUSH1 0xE0 SHL DUP3 MSTORE PUSH1 0x41 PUSH1 0x4 MSTORE PUSH1 0x24 DUP3 REVERT JUMPDEST ADD MLOAD SWAP1 POP CODESIZE DUP1 PUSH3 0x110 JUMP JUMPDEST DUP6 DUP1 MSTORE DUP5 DUP7 KECCAK256 DUP11 SWAP5 POP SWAP2 SWAP1 PUSH1 0x1F NOT DUP5 AND DUP8 JUMPDEST DUP8 DUP3 DUP3 LT PUSH3 0x30C JUMPI POP POP DUP5 GT PUSH3 0x2F2 JUMPI JUMPDEST POP POP POP DUP2 SHL ADD DUP3 SSTORE PUSH3 0x124 JUMP JUMPDEST ADD MLOAD PUSH1 0x0 NOT PUSH1 0xF8 DUP5 PUSH1 0x3 SHL AND SHR NOT AND SWAP1 SSTORE CODESIZE DUP1 DUP1 PUSH3 0x2E4 JUMP JUMPDEST DUP4 DUP6 ADD MLOAD DUP7 SSTORE DUP14 SWAP8 SWAP1 SWAP6 ADD SWAP5 SWAP4 DUP5 ADD SWAP4 ADD PUSH3 0x2D1 JUMP JUMPDEST SWAP1 SWAP2 POP DUP5 DUP1 MSTORE DUP4 DUP6 KECCAK256 DUP8 DUP1 DUP6 ADD PUSH1 0x5 SHR DUP3 ADD SWAP3 DUP7 DUP7 LT PUSH3 0x36C JUMPI JUMPDEST SWAP2 DUP12 SWAP2 DUP7 SWAP6 SWAP5 SWAP4 ADD PUSH1 0x5 SHR ADD SWAP2 JUMPDEST DUP3 DUP2 LT PUSH3 0x35D JUMPI POP POP PUSH3 0xFA JUMP JUMPDEST DUP8 DUP2 SSTORE DUP6 SWAP5 POP DUP12 SWAP2 ADD PUSH3 0x34D JUMP JUMPDEST SWAP3 POP DUP2 SWAP3 PUSH3 0x33F JUMP JUMPDEST PUSH4 0x4E487B71 PUSH1 0xE0 SHL DUP5 MSTORE PUSH1 0x22 PUSH1 0x4 MSTORE PUSH1 0x24 DUP5 REVERT JUMPDEST SWAP6 PUSH1 0x7F AND SWAP6 PUSH3 0xE3 JUMP JUMPDEST PUSH4 0x4E487B71 PUSH1 0xE0 SHL PUSH1 0x0 MSTORE PUSH1 0x41 PUSH1 0x4 MSTORE PUSH1 0x24 PUSH1 0x0 REVERT JUMPDEST PUSH1 0x40 MLOAD PUSH3 0x461BCD PUSH1 0xE5 SHL DUP2 MSTORE PUSH1 0x4 DUP1 DUP3 ADD DUP5 SWAP1 MSTORE PUSH1 0x24 DUP3 ADD MSTORE PUSH4 0x7A65726F PUSH1 0xE0 SHL PUSH1 0x44 DUP3 ADD MSTORE PUSH1 0x64 SWAP1 REVERT JUMPDEST POP DUP7 DUP7 AND ISZERO ISZERO PUSH3 0xBB JUMP JUMPDEST PUSH1 0x40 MLOAD PUSH3 0x461BCD PUSH1 0xE5 SHL DUP2 MSTORE PUSH1 0x4 DUP2 ADD DUP4 SWAP1 MSTORE PUSH1 0x7 PUSH1 0x24 DUP3 ADD MSTORE PUSH7 0x6F776E65723D3 PUSH1 0xCC SHL PUSH1 0x44 DUP3 ADD MSTORE PUSH1 0x64 SWAP1 REVERT JUMPDEST PUSH1 0x0 DUP1 REVERT JUMPDEST PUSH1 0x40 MLOAD SWAP2 SWAP1 PUSH1 0x1F ADD PUSH1 0x1F NOT AND DUP3 ADD PUSH1 0x1 PUSH1 0x1 PUSH1 0x40 SHL SUB DUP2 GT DUP4 DUP3 LT OR PUSH3 0x395 JUMPI PUSH1 0x40 MSTORE JUMP JUMPDEST SWAP2 SWAP1 DUP1 PUSH1 0x1F DUP5 ADD SLT ISZERO PUSH3 0x411 JUMPI DUP3 MLOAD PUSH1 0x1 PUSH1 0x1 PUSH1 0x40 SHL SUB DUP2 GT PUSH3 0x395 JUMPI PUSH1 0x20 SWAP1 PUSH3 0x472 PUSH1 0x1F DUP3 ADD PUSH1 0x1F NOT AND DUP4 ADD PUSH3 0x416 JUMP JUMPDEST SWAP3 DUP2 DUP5 MSTORE DUP3 DUP3 DUP8 ADD ADD GT PUSH3 0x411 JUMPI PUSH1 0x0 JUMPDEST DUP2 DUP2 LT PUSH3 0x49A JUMPI POP DUP3 PUSH1 0x0 SWAP4 SWAP5 SWAP6 POP ADD ADD MSTORE SWAP1 JUMP JUMPDEST DUP6 DUP2 ADD DUP4 ADD MLOAD DUP5 DUP3 ADD DUP5 ADD MSTORE DUP3 ADD PUSH3 0x484 JUMP JUMPDEST MLOAD SWAP1 PUSH1 0x1 PUSH1 0x1 PUSH1 0xA0 SHL SUB DUP3 AND DUP3 SUB PUSH3 0x411 JUMPI JUMP INVALID PUSH1 0x80 PUSH1 0x40 DUP2 DUP2 MSTORE PUSH1 0x4 SWAP2 DUP3 CALLDATASIZE LT ISZERO PUSH2 0x16 JUMPI PUSH1 0x0 DUP1 REVERT JUMPDEST PUSH1 0x0 SWAP3 DUP4 CALLDATALOAD PUSH1 0xE0 SHR SWAP2 DUP3 PUSH4 0x6FDDE03 EQ PUSH2 0xECE JUMPI POP DUP2 PUSH4 0x95EA7B3 EQ PUSH2 0xE5F JUMPI DUP2 PUSH4 0x13AF4035 EQ PUSH2 0xDE8 JUMPI DUP2 PUSH4 0x18160DDD EQ PUSH2 0xDC9 JUMPI DUP2 PUSH4 0x23B872DD EQ PUSH2 0xCE6 JUMPI DUP2 PUSH4 0x313CE567 EQ PUSH2 0xCCA JUMPI DUP2 PUSH4 0x3AD8B2D7 EQ PUSH2 0x9B7 JUMPI DUP2 PUSH4 0x3F4BA83A EQ PUSH2 0x95F JUMPI DUP4 DUP3 PUSH4 0x40C10F19 EQ PUSH2 0x7B4 JUMPI POP DUP2 PUSH4 0x49BA507B EQ PUSH2 0x718 JUMPI DUP2 PUSH4 0x5C975ABB EQ PUSH2 0x6F4 JUMPI DUP2 PUSH4 0x6290865D EQ PUSH2 0x6CB JUMPI DUP2 PUSH4 0x70405A47 EQ PUSH2 0x68D JUMPI DUP2 PUSH4 0x70A08231 EQ PUSH2 0x655 JUMPI DUP2 PUSH4 0x7B103999 EQ PUSH2 0x62C JUMPI DUP2 PUSH4 0x8456CB59 EQ PUSH2 0x5D1 JUMPI DUP2 PUSH4 0x8DA5CB5B EQ PUSH2 0x5A8 JUMPI DUP2 PUSH4 0x95D89B41 EQ PUSH2 0x4A6 JUMPI DUP2 PUSH4 0x97D8C676 EQ PUSH2 0x42D JUMPI DUP4 DUP3 PUSH4 0x9DC29FAC EQ PUSH2 0x302 JUMPI POP DUP2 PUSH4 0xA9059CBB EQ PUSH2 0x2C2 JUMPI DUP2 PUSH4 0xA91EE0DC EQ PUSH2 0x249 JUMPI DUP2 PUSH4 0xDD62ED3E EQ PUSH2 0x1F8 JUMPI POP DUP1 PUSH4 0xF8981789 EQ PUSH2 0x17C JUMPI PUSH4 0xFD66091E EQ PUSH2 0x13C JUMPI PUSH1 0x0 DUP1 REVERT JUMPDEST CALLVALUE PUSH2 0x178 JUMPI PUSH1 0x20 CALLDATASIZE PUSH1 0x3 NOT ADD SLT PUSH2 0x178 JUMPI PUSH1 0x20 SWAP2 PUSH1 0xFF SWAP1 DUP3 SWAP1 PUSH1 0x1 PUSH1 0x1 PUSH1 0xA0 SHL SUB PUSH2 0x165 PUSH2 0x1052 JUMP JUMPDEST AND DUP2 MSTORE PUSH1 0x6 DUP6 MSTORE KECCAK256 SLOAD AND SWAP1 MLOAD SWAP1 ISZERO ISZERO DUP2 MSTORE RETURN JUMPDEST POP DUP1 REVERT JUMPDEST DUP3 CALLVALUE PUSH2 0x1F5 JUMPI PUSH1 0x20 CALLDATASIZE PUSH1 0x3 NOT ADD SLT PUSH2 0x1F5 JUMPI PUSH2 0x196 PUSH2 0x1052 JUMP JUMPDEST PUSH1 0x5 SLOAD PUSH1 0x1 PUSH1 0x1 PUSH1 0xA0 SHL SUB SWAP2 SWAP1 PUSH2 0x1B0 SWAP1 DUP4 AND CALLER EQ PUSH2 0x10B2 JUMP JUMPDEST AND PUSH2 0x1BC DUP2 ISZERO ISZERO PUSH2 0x10EA JUMP JUMPDEST PUSH1 0xA DUP1 SLOAD PUSH1 0x1 PUSH1 0x1 PUSH1 0xA0 SHL SUB NOT AND DUP3 OR SWAP1 SSTORE PUSH32 0xA958A8141C83D69EBAAA9383A0CF588C2C4E6F8DC823573BB94CCC3E4848E7F7 DUP3 DUP1 LOG2 DUP1 RETURN JUMPDEST DUP1 REVERT JUMPDEST SWAP1 POP CALLVALUE PUSH2 0x245 JUMPI DUP2 PUSH1 0x3 NOT CALLDATASIZE ADD SLT PUSH2 0x245 JUMPI PUSH1 0x20 SWAP3 DUP3 PUSH2 0x216 PUSH2 0x1052 JUMP JUMPDEST SWAP2 PUSH2 0x21F PUSH2 0x106D JUMP JUMPDEST PUSH1 0x1 PUSH1 0x1 PUSH1 0xA0 SHL SUB SWAP4 DUP5 AND DUP3 MSTORE SWAP4 DUP7 MSTORE KECCAK256 SWAP2 AND PUSH1 0x0 SWAP1 DUP2 MSTORE SWAP1 DUP4 MSTORE DUP2 SWAP1 KECCAK256 SLOAD SWAP1 MLOAD SWAP1 DUP2 MSTORE RETURN JUMPDEST DUP3 DUP1 REVERT JUMPDEST DUP4 CALLVALUE PUSH2 0x1F5 JUMPI PUSH1 0x20 CALLDATASIZE PUSH1 0x3 NOT ADD SLT PUSH2 0x1F5 JUMPI PUSH2 0x263 PUSH2 0x1052 JUMP JUMPDEST PUSH1 0x5 SLOAD PUSH1 0x1 PUSH1 0x1 PUSH1 0xA0 SHL SUB SWAP2 SWAP1 PUSH2 0x27D SWAP1 DUP4 AND CALLER EQ PUSH2 0x10B2 JUMP JUMPDEST AND PUSH2 0x289 DUP2 ISZERO ISZERO PUSH2 0x10EA JUMP JUMPDEST PUSH1 0x9 DUP1 SLOAD PUSH1 0x1 PUSH1 0x1 PUSH1 0xA0 SHL SUB NOT AND DUP3 OR SWAP1 SSTORE PUSH32 0xDB0239C63D4033DCDD21BD44F8DD479A03EFBAE12F6BBE27C0A5F923D26514CC DUP3 DUP1 LOG2 DUP1 RETURN JUMPDEST POP POP CALLVALUE PUSH2 0x178 JUMPI DUP1 PUSH1 0x3 NOT CALLDATASIZE ADD SLT PUSH2 0x178 JUMPI PUSH1 0x20 SWAP1 PUSH2 0x2FB PUSH2 0x2E2 PUSH2 0x1052 JUMP JUMPDEST PUSH2 0x2F1 PUSH1 0xFF PUSH1 0x7 SLOAD AND ISZERO PUSH2 0x1154 JUMP JUMPDEST PUSH1 0x24 CALLDATALOAD SWAP1 CALLER PUSH2 0x1265 JUMP JUMPDEST MLOAD PUSH1 0x1 DUP2 MSTORE RETURN JUMPDEST SWAP3 SWAP2 POP CALLVALUE PUSH2 0x429 JUMPI DUP2 PUSH1 0x3 NOT CALLDATASIZE ADD SLT PUSH2 0x429 JUMPI PUSH2 0x31D PUSH2 0x1052 JUMP JUMPDEST SWAP2 PUSH1 0x24 CALLDATALOAD SWAP2 CALLER DUP6 MSTORE PUSH1 0x6 PUSH1 0x20 MSTORE PUSH1 0xFF DUP3 DUP7 KECCAK256 SLOAD AND DUP1 ISZERO PUSH2 0x415 JUMPI JUMPDEST PUSH2 0x341 SWAP1 PUSH2 0x111C JUMP JUMPDEST PUSH1 0x1 PUSH1 0x1 PUSH1 0xA0 SHL SUB DUP5 DUP2 AND DUP1 DUP8 MSTORE PUSH1 0x3 PUSH1 0x20 MSTORE DUP4 DUP8 KECCAK256 SLOAD SWAP1 SWAP6 SWAP2 SWAP1 DUP6 SWAP1 PUSH2 0x36A DUP3 DUP3 LT ISZERO PUSH2 0x120C JUMP JUMPDEST DUP8 DUP10 MSTORE PUSH1 0x3 PUSH1 0x20 MSTORE SUB DUP5 DUP9 KECCAK256 SSTORE DUP5 PUSH1 0x2 SLOAD SUB PUSH1 0x2 SSTORE PUSH1 0xA SLOAD AND SWAP2 DUP3 EXTCODESIZE ISZERO PUSH2 0x411 JUMPI DUP4 MLOAD PUSH4 0x469753B9 PUSH1 0xE1 SHL DUP2 MSTORE PUSH1 0x1 PUSH1 0x1 PUSH1 0xA0 SHL SUB SWAP1 SWAP3 AND SWAP1 DUP3 ADD SWAP1 DUP2 MSTORE PUSH1 0x20 DUP2 ADD DUP6 SWAP1 MSTORE SWAP1 SWAP2 DUP7 SWAP2 DUP4 SWAP2 SWAP1 DUP3 SWAP1 DUP5 SWAP1 DUP3 SWAP1 PUSH1 0x40 ADD SUB SWAP3 GAS CALL DUP1 ISZERO PUSH2 0x407 JUMPI SWAP1 DUP6 SWAP2 PUSH2 0x3EE JUMPI JUMPDEST POP POP PUSH1 0x0 DUP1 MLOAD PUSH1 0x20 PUSH2 0x1401 DUP4 CODECOPY DUP2 MLOAD SWAP2 MSTORE SWAP2 PUSH1 0x20 SWAP2 MLOAD SWAP1 DUP2 MSTORE LOG3 DUP1 RETURN JUMPDEST PUSH2 0x3F7 SWAP1 PUSH2 0xFBD JUMP JUMPDEST PUSH2 0x402 JUMPI DUP4 CODESIZE PUSH2 0x3D1 JUMP JUMPDEST POP POP POP REVERT JUMPDEST DUP3 MLOAD RETURNDATASIZE DUP8 DUP3 RETURNDATACOPY RETURNDATASIZE SWAP1 REVERT JUMPDEST DUP7 DUP1 REVERT JUMPDEST POP PUSH1 0x5 SLOAD PUSH1 0x1 PUSH1 0x1 PUSH1 0xA0 SHL SUB AND CALLER EQ PUSH2 0x338 JUMP JUMPDEST POP POP REVERT JUMPDEST POP POP CALLVALUE PUSH2 0x178 JUMPI PUSH32 0xDFBBD189290AD6CCAFC74F11E514DF22FE2C990B1F70C48E80C0C152CCF16415 PUSH1 0x20 PUSH2 0x460 CALLDATASIZE PUSH2 0x1083 JUMP JUMPDEST PUSH1 0x5 SLOAD SWAP1 SWAP2 PUSH1 0x1 PUSH1 0x1 PUSH1 0xA0 SHL SUB SWAP2 PUSH2 0x47B SWAP1 DUP4 AND CALLER EQ PUSH2 0x10B2 JUMP JUMPDEST AND SWAP4 DUP5 DUP7 MSTORE PUSH1 0x6 DUP4 MSTORE PUSH2 0x49C DUP3 DUP3 DUP9 KECCAK256 SWAP1 PUSH1 0xFF DUP1 NOT DUP4 SLOAD AND SWAP2 ISZERO ISZERO AND OR SWAP1 SSTORE JUMP JUMPDEST MLOAD SWAP1 ISZERO ISZERO DUP2 MSTORE LOG2 DUP1 RETURN JUMPDEST DUP3 DUP5 CALLVALUE PUSH2 0x1F5 JUMPI DUP1 PUSH1 0x3 NOT CALLDATASIZE ADD SLT PUSH2 0x1F5 JUMPI POP DUP1 MLOAD SWAP1 PUSH1 0x0 SWAP3 PUSH1 0x1 DUP1 SLOAD SWAP1 DUP2 DUP2 SHR SWAP2 DUP2 DUP2 AND DUP1 ISZERO PUSH2 0x59E JUMPI JUMPDEST PUSH1 0x20 SWAP5 DUP6 DUP6 LT DUP3 EQ PUSH2 0x58B JUMPI POP DUP4 DUP8 MSTORE SWAP1 DUP2 ISZERO PUSH2 0x56B JUMPI POP PUSH1 0x1 EQ PUSH2 0x512 JUMPI JUMPDEST POP POP POP PUSH2 0x504 DUP3 PUSH2 0x50E SWAP5 SUB DUP4 PUSH2 0xFE7 JUMP JUMPDEST MLOAD SWAP2 DUP3 SWAP2 DUP3 PUSH2 0x1009 JUMP JUMPDEST SUB SWAP1 RETURN JUMPDEST PUSH1 0x0 DUP2 DUP2 MSTORE SWAP3 SWAP6 POP PUSH32 0xB10E2D527612073B26EECDFD717E6A320CF44B4AFAC2B0732D9FCBE2B7FA0CF6 JUMPDEST DUP3 DUP5 LT PUSH2 0x558 JUMPI POP POP POP DUP3 PUSH2 0x50E SWAP5 PUSH2 0x504 SWAP3 DUP3 ADD ADD SWAP5 PUSH2 0x4F2 JUMP JUMPDEST DUP1 SLOAD DUP7 DUP6 ADD DUP9 ADD MSTORE SWAP3 DUP7 ADD SWAP3 DUP2 ADD PUSH2 0x53C JUMP JUMPDEST PUSH1 0xFF NOT AND DUP7 DUP6 ADD MSTORE POP POP ISZERO ISZERO PUSH1 0x5 SHL DUP4 ADD ADD SWAP3 POP PUSH2 0x504 DUP3 PUSH2 0x50E PUSH2 0x4F2 JUMP JUMPDEST PUSH4 0x4E487B71 PUSH1 0xE0 SHL DUP10 MSTORE PUSH1 0x22 SWAP1 MSTORE PUSH1 0x24 DUP9 REVERT JUMPDEST SWAP3 PUSH1 0x7F AND SWAP3 PUSH2 0x4D2 JUMP JUMPDEST POP POP CALLVALUE PUSH2 0x178 JUMPI DUP2 PUSH1 0x3 NOT CALLDATASIZE ADD SLT PUSH2 0x178 JUMPI PUSH1 0x5 SLOAD SWAP1 MLOAD PUSH1 0x1 PUSH1 0x1 PUSH1 0xA0 SHL SUB SWAP1 SWAP2 AND DUP2 MSTORE PUSH1 0x20 SWAP1 RETURN JUMPDEST DUP4 CALLVALUE PUSH2 0x1F5 JUMPI DUP1 PUSH1 0x3 NOT CALLDATASIZE ADD SLT PUSH2 0x1F5 JUMPI PUSH2 0x5F7 PUSH1 0x1 DUP1 PUSH1 0xA0 SHL SUB PUSH1 0x5 SLOAD AND CALLER EQ PUSH2 0x10B2 JUMP JUMPDEST PUSH1 0x1 PUSH1 0xFF NOT PUSH1 0x7 SLOAD AND OR PUSH1 0x7 SSTORE CALLER PUSH32 0x62E78CEA01BEE320CD4E420270B5EA74000D11B0C9F74754EBDBFC544B05A258 DUP3 DUP1 LOG2 DUP1 RETURN JUMPDEST POP POP CALLVALUE PUSH2 0x178 JUMPI DUP2 PUSH1 0x3 NOT CALLDATASIZE ADD SLT PUSH2 0x178 JUMPI PUSH1 0x9 SLOAD SWAP1 MLOAD PUSH1 0x1 PUSH1 0x1 PUSH1 0xA0 SHL SUB SWAP1 SWAP2 AND DUP2 MSTORE PUSH1 0x20 SWAP1 RETURN JUMPDEST POP POP CALLVALUE PUSH2 0x178 JUMPI PUSH1 0x20 CALLDATASIZE PUSH1 0x3 NOT ADD SLT PUSH2 0x178 JUMPI PUSH1 0x20 SWAP2 DUP2 SWAP1 PUSH1 0x1 PUSH1 0x1 PUSH1 0xA0 SHL SUB PUSH2 0x67D PUSH2 0x1052 JUMP JUMPDEST AND DUP2 MSTORE PUSH1 0x3 DUP5 MSTORE KECCAK256 SLOAD SWAP1 MLOAD SWAP1 DUP2 MSTORE RETURN JUMPDEST POP POP CALLVALUE PUSH2 0x178 JUMPI PUSH1 0x20 CALLDATASIZE PUSH1 0x3 NOT ADD SLT PUSH2 0x178 JUMPI PUSH1 0x20 SWAP2 PUSH1 0xFF SWAP1 DUP3 SWAP1 PUSH1 0x1 PUSH1 0x1 PUSH1 0xA0 SHL SUB PUSH2 0x6B8 PUSH2 0x1052 JUMP JUMPDEST AND DUP2 MSTORE PUSH1 0x8 DUP6 MSTORE KECCAK256 SLOAD AND SWAP1 MLOAD SWAP1 ISZERO ISZERO DUP2 MSTORE RETURN JUMPDEST POP POP CALLVALUE PUSH2 0x178 JUMPI DUP2 PUSH1 0x3 NOT CALLDATASIZE ADD SLT PUSH2 0x178 JUMPI PUSH1 0xA SLOAD SWAP1 MLOAD PUSH1 0x1 PUSH1 0x1 PUSH1 0xA0 SHL SUB SWAP1 SWAP2 AND DUP2 MSTORE PUSH1 0x20 SWAP1 RETURN JUMPDEST POP POP CALLVALUE PUSH2 0x178 JUMPI DUP2 PUSH1 0x3 NOT CALLDATASIZE ADD SLT PUSH2 0x178 JUMPI PUSH1 0x20 SWAP1 PUSH1 0xFF PUSH1 0x7 SLOAD AND SWAP1 MLOAD SWAP1 ISZERO ISZERO DUP2 MSTORE RETURN JUMPDEST POP POP CALLVALUE PUSH2 0x178 JUMPI PUSH2 0x771 PUSH2 0x72B CALLDATASIZE PUSH2 0x1083 JUMP JUMPDEST DUP1 SWAP3 SWAP2 CALLER DUP7 MSTORE PUSH1 0x6 PUSH1 0x20 MSTORE PUSH1 0xFF DUP6 DUP8 KECCAK256 SLOAD AND DUP1 ISZERO PUSH2 0x7A0 JUMPI JUMPDEST PUSH2 0x74D SWAP1 PUSH2 0x111C JUMP JUMPDEST PUSH1 0x1 DUP1 PUSH1 0xA0 SHL SUB AND SWAP4 DUP5 DUP7 MSTORE PUSH1 0x8 PUSH1 0x20 MSTORE DUP6 KECCAK256 SWAP1 PUSH1 0xFF DUP1 NOT DUP4 SLOAD AND SWAP2 ISZERO ISZERO AND OR SWAP1 SSTORE JUMP JUMPDEST PUSH2 0x779 JUMPI POP DUP1 RETURN JUMPDEST PUSH32 0xC8B9FE42BB60581DAA8B3EC9BD5CB0145477E23A96801AA7BF3DCB545AE86D9C DUP3 DUP1 LOG2 DUP1 RETURN JUMPDEST POP PUSH1 0x5 SLOAD PUSH1 0x1 PUSH1 0x1 PUSH1 0xA0 SHL SUB AND CALLER EQ PUSH2 0x744 JUMP JUMPDEST SWAP2 POP SWAP2 CALLVALUE PUSH2 0x178 JUMPI DUP1 PUSH1 0x3 NOT CALLDATASIZE ADD SLT PUSH2 0x178 JUMPI PUSH2 0x7CF PUSH2 0x1052 JUMP JUMPDEST SWAP3 PUSH1 0x24 CALLDATALOAD CALLER DUP5 MSTORE PUSH1 0x20 SWAP2 PUSH1 0x6 DUP4 MSTORE PUSH1 0xFF DUP5 DUP7 KECCAK256 SLOAD AND DUP1 ISZERO PUSH2 0x94B JUMPI JUMPDEST PUSH2 0x7F4 SWAP1 PUSH2 0x111C JUMP JUMPDEST PUSH2 0x803 PUSH1 0xFF PUSH1 0x7 SLOAD AND ISZERO PUSH2 0x1154 JUMP JUMPDEST PUSH1 0x1 PUSH1 0x1 PUSH1 0xA0 SHL SUB DUP7 DUP2 AND SWAP7 SWAP1 PUSH2 0x81B DUP9 ISZERO ISZERO PUSH2 0x1189 JUMP JUMPDEST PUSH1 0x64 DUP6 DUP3 PUSH1 0xA SLOAD AND DUP9 MLOAD SWAP3 DUP4 DUP1 SWAP3 PUSH4 0x72331C73 PUSH1 0xE1 SHL DUP3 MSTORE PUSH1 0x0 DUP10 DUP4 ADD MSTORE DUP14 PUSH1 0x24 DUP4 ADD MSTORE DUP10 PUSH1 0x44 DUP4 ADD MSTORE GAS STATICCALL SWAP1 DUP2 ISZERO PUSH2 0x941 JUMPI SWAP1 PUSH2 0x860 SWAP2 DUP10 SWAP2 PUSH2 0x914 JUMPI JUMPDEST POP PUSH2 0x11D3 JUMP JUMPDEST PUSH2 0x86C DUP5 PUSH1 0x2 SLOAD PUSH2 0x1242 JUMP JUMPDEST PUSH1 0x2 SSTORE DUP8 DUP8 MSTORE PUSH1 0x3 DUP6 MSTORE DUP6 DUP8 KECCAK256 PUSH2 0x884 DUP6 DUP3 SLOAD PUSH2 0x1242 JUMP JUMPDEST SWAP1 SSTORE PUSH1 0xA SLOAD AND SWAP2 DUP3 EXTCODESIZE ISZERO PUSH2 0x411 JUMPI DUP6 MLOAD PUSH4 0x5F8DEAD3 PUSH1 0xE0 SHL DUP2 MSTORE PUSH1 0x1 PUSH1 0x1 PUSH1 0xA0 SHL SUB SWAP1 SWAP3 AND SWAP1 DUP3 ADD SWAP1 DUP2 MSTORE PUSH1 0x20 DUP2 ADD DUP5 SWAP1 MSTORE SWAP1 SWAP2 DUP7 SWAP2 DUP4 SWAP2 SWAP1 DUP3 SWAP1 DUP5 SWAP1 DUP3 SWAP1 PUSH1 0x40 ADD SUB SWAP3 GAS CALL DUP1 ISZERO PUSH2 0x90A JUMPI SWAP1 DUP6 SWAP2 PUSH2 0x8F2 JUMPI JUMPDEST POP POP PUSH1 0x0 DUP1 MLOAD PUSH1 0x20 PUSH2 0x1401 DUP4 CODECOPY DUP2 MLOAD SWAP2 MSTORE SWAP3 MLOAD SWAP1 DUP2 MSTORE LOG3 DUP1 RETURN JUMPDEST PUSH2 0x8FB SWAP1 PUSH2 0xFBD JUMP JUMPDEST PUSH2 0x906 JUMPI DUP4 CODESIZE PUSH2 0x8D8 JUMP JUMPDEST DUP4 DUP1 REVERT JUMPDEST DUP5 MLOAD RETURNDATASIZE DUP8 DUP3 RETURNDATACOPY RETURNDATASIZE SWAP1 REVERT JUMPDEST PUSH2 0x934 SWAP2 POP DUP8 RETURNDATASIZE DUP10 GT PUSH2 0x93A JUMPI JUMPDEST PUSH2 0x92C DUP2 DUP4 PUSH2 0xFE7 JUMP JUMPDEST DUP2 ADD SWAP1 PUSH2 0x11BB JUMP JUMPDEST CODESIZE PUSH2 0x85A JUMP JUMPDEST POP RETURNDATASIZE PUSH2 0x922 JUMP JUMPDEST DUP8 MLOAD RETURNDATASIZE DUP11 DUP3 RETURNDATACOPY RETURNDATASIZE SWAP1 REVERT JUMPDEST POP PUSH1 0x5 SLOAD PUSH1 0x1 PUSH1 0x1 PUSH1 0xA0 SHL SUB AND CALLER EQ PUSH2 0x7EB JUMP JUMPDEST DUP4 CALLVALUE PUSH2 0x1F5 JUMPI DUP1 PUSH1 0x3 NOT CALLDATASIZE ADD SLT PUSH2 0x1F5 JUMPI PUSH2 0x985 PUSH1 0x1 DUP1 PUSH1 0xA0 SHL SUB PUSH1 0x5 SLOAD AND CALLER EQ PUSH2 0x10B2 JUMP JUMPDEST PUSH1 0xFF NOT PUSH1 0x7 SLOAD AND PUSH1 0x7 SSTORE CALLER PUSH32 0x5DB9EE0A495BF2E6FF9C91A7834C1BA4FDD244A5E8AA4E537BD38AEAE4B073AA DUP3 DUP1 LOG2 DUP1 RETURN JUMPDEST SWAP2 SWAP1 POP CALLVALUE PUSH2 0x245 JUMPI PUSH1 0x80 CALLDATASIZE PUSH1 0x3 NOT ADD SLT PUSH2 0x245 JUMPI PUSH2 0x9D3 PUSH2 0x1052 JUMP JUMPDEST SWAP2 PUSH2 0x9DC PUSH2 0x106D JUMP JUMPDEST SWAP2 PUSH1 0x44 CALLDATALOAD SWAP1 PUSH1 0x64 CALLDATALOAD PUSH8 0xFFFFFFFFFFFFFFFF DUP1 DUP3 GT PUSH2 0xCC6 JUMPI CALLDATASIZE PUSH1 0x23 DUP4 ADD SLT ISZERO PUSH2 0xCC6 JUMPI DUP2 DUP6 ADD CALLDATALOAD SWAP1 DUP2 GT PUSH2 0xCC6 JUMPI CALLDATASIZE PUSH1 0x24 DUP3 DUP5 ADD ADD GT PUSH2 0xCC6 JUMPI CALLER DUP9 MSTORE PUSH1 0x20 SWAP5 PUSH1 0x6 DUP7 MSTORE PUSH1 0xFF DUP5 DUP11 KECCAK256 SLOAD AND DUP1 ISZERO PUSH2 0xCB2 JUMPI JUMPDEST PUSH2 0xA37 SWAP1 PUSH2 0x111C JUMP JUMPDEST PUSH1 0x1 PUSH1 0x1 PUSH1 0xA0 SHL SUB DUP8 DUP2 AND SWAP9 SWAP1 SWAP8 SWAP1 PUSH2 0xA51 DUP11 ISZERO ISZERO PUSH2 0x1189 JUMP JUMPDEST DUP4 ISZERO PUSH2 0xC7D JUMPI PUSH1 0xA SLOAD DUP7 MLOAD PUSH4 0x72331C73 PUSH1 0xE1 SHL DUP2 MSTORE PUSH1 0x1 PUSH1 0x1 PUSH1 0xA0 SHL SUB DUP1 DUP5 AND DUP7 DUP4 ADD SWAP1 DUP2 MSTORE SWAP1 DUP6 AND PUSH1 0x20 DUP3 ADD MSTORE PUSH1 0x40 DUP2 ADD DUP11 SWAP1 MSTORE DUP14 SWAP5 SWAP4 SWAP3 DUP12 SWAP2 DUP4 SWAP2 DUP15 AND SWAP1 DUP3 SWAP1 DUP2 SWAP1 PUSH1 0x60 ADD SUB SWAP2 GAS STATICCALL SWAP1 DUP2 ISZERO PUSH2 0xC73 JUMPI SWAP1 PUSH2 0xAB4 SWAP2 DUP6 SWAP2 PUSH2 0xC5C JUMPI POP PUSH2 0x11D3 JUMP JUMPDEST DUP10 DUP2 AND SWAP10 DUP11 DUP5 MSTORE PUSH1 0x3 DUP11 MSTORE DUP9 DUP9 DUP6 KECCAK256 SLOAD PUSH2 0xAD0 DUP3 DUP3 LT ISZERO PUSH2 0x120C JUMP JUMPDEST DUP13 DUP7 MSTORE PUSH1 0x3 DUP13 MSTORE SUB DUP9 DUP6 KECCAK256 SSTORE DUP12 DUP5 MSTORE DUP8 DUP5 KECCAK256 PUSH2 0xAED DUP11 DUP3 SLOAD PUSH2 0x1242 JUMP JUMPDEST SWAP1 SSTORE PUSH1 0xA SLOAD AND SWAP1 DUP2 EXTCODESIZE ISZERO PUSH2 0x906 JUMPI DUP8 MLOAD PUSH4 0x22EBCA6D PUSH1 0xE2 SHL DUP2 MSTORE PUSH1 0x1 PUSH1 0x1 PUSH1 0xA0 SHL SUB SWAP2 DUP3 AND SWAP6 DUP2 ADD SWAP6 DUP7 MSTORE SWAP3 AND PUSH1 0x20 DUP6 ADD MSTORE PUSH1 0x40 DUP5 ADD DUP9 SWAP1 MSTORE SWAP1 SWAP3 DUP4 SWAP2 SWAP1 DUP3 SWAP1 DUP5 SWAP1 DUP3 SWAP1 PUSH1 0x60 ADD SUB SWAP3 GAS CALL DUP1 ISZERO PUSH2 0xC52 JUMPI PUSH2 0xBF9 JUMPI JUMPDEST POP DUP6 PUSH32 0xBB53097141337C38A36FED7FAE913304CD0C540E1200DBB4C8C1CEE707F9F2C2 PUSH1 0x24 PUSH1 0x60 PUSH1 0x0 DUP1 MLOAD PUSH1 0x20 PUSH2 0x1401 DUP4 CODECOPY DUP2 MLOAD SWAP2 MSTORE SWAP9 SWAP8 SWAP7 SWAP6 DUP12 SWAP6 DUP7 DUP7 DUP16 DUP2 DUP2 MSTORE PUSH1 0x8 DUP14 MSTORE PUSH1 0xFF DUP12 DUP3 KECCAK256 SLOAD AND PUSH2 0xBCD JUMPI JUMPDEST POP POP POP DUP1 DUP9 MLOAD SWAP5 DUP6 SWAP4 DUP12 DUP6 MSTORE DUP11 DUP14 DUP7 ADD MSTORE DUP3 DUP12 DUP7 ADD MSTORE ADD DUP5 DUP5 ADD CALLDATACOPY DUP2 DUP2 ADD DUP4 ADD DUP15 SWAP1 MSTORE PUSH1 0x1F ADD PUSH1 0x1F NOT AND DUP2 ADD SUB ADD SWAP1 LOG3 MLOAD SWAP1 DUP2 MSTORE LOG3 DUP1 RETURN JUMPDEST DUP1 PUSH32 0xCED95D270303F50B4373064F4148282A32DD521235B73C351F0955A594941A30 SWAP2 LOG3 DUP7 DUP7 DUP16 PUSH2 0xB95 JUMP JUMPDEST PUSH32 0xBB53097141337C38A36FED7FAE913304CD0C540E1200DBB4C8C1CEE707F9F2C2 PUSH1 0x24 PUSH1 0x60 PUSH1 0x0 DUP1 MLOAD PUSH1 0x20 PUSH2 0x1401 DUP4 CODECOPY DUP2 MLOAD SWAP2 MSTORE SWAP9 SWAP8 SWAP7 SWAP6 DUP12 SWAP6 DUP7 DUP13 SWAP15 PUSH2 0xC40 DUP15 SWAP9 PUSH2 0xFBD JUMP JUMPDEST SWAP15 POP POP SWAP6 POP SWAP6 SWAP7 SWAP8 SWAP9 POP POP POP POP PUSH2 0xB43 JUMP JUMPDEST DUP5 MLOAD RETURNDATASIZE DUP12 DUP3 RETURNDATACOPY RETURNDATASIZE SWAP1 REVERT JUMPDEST PUSH2 0x934 SWAP2 POP DUP12 RETURNDATASIZE DUP14 GT PUSH2 0x93A JUMPI PUSH2 0x92C DUP2 DUP4 PUSH2 0xFE7 JUMP JUMPDEST DUP9 MLOAD RETURNDATASIZE DUP7 DUP3 RETURNDATACOPY RETURNDATASIZE SWAP1 REVERT JUMPDEST DUP6 MLOAD PUSH3 0x461BCD PUSH1 0xE5 SHL DUP2 MSTORE DUP1 DUP5 ADD DUP10 SWAP1 MSTORE PUSH1 0xF PUSH1 0x24 DUP3 ADD MSTORE PUSH15 0x1C99585CDBDB881C995C5D5A5C9959 PUSH1 0x8A SHL PUSH1 0x44 DUP3 ADD MSTORE PUSH1 0x64 SWAP1 REVERT JUMPDEST POP PUSH1 0x5 SLOAD PUSH1 0x1 PUSH1 0x1 PUSH1 0xA0 SHL SUB AND CALLER EQ PUSH2 0xA2E JUMP JUMPDEST DUP8 DUP1 REVERT JUMPDEST POP POP CALLVALUE PUSH2 0x178 JUMPI DUP2 PUSH1 0x3 NOT CALLDATASIZE ADD SLT PUSH2 0x178 JUMPI PUSH1 0x20 SWAP1 MLOAD PUSH1 0x12 DUP2 MSTORE RETURN JUMPDEST DUP4 DUP4 CALLVALUE PUSH2 0x178 JUMPI PUSH1 0x60 CALLDATASIZE PUSH1 0x3 NOT ADD SLT PUSH2 0x178 JUMPI PUSH2 0xD01 PUSH2 0x1052 JUMP JUMPDEST PUSH2 0xD09 PUSH2 0x106D JUMP JUMPDEST PUSH1 0x44 CALLDATALOAD SWAP2 PUSH2 0xD1C PUSH1 0xFF PUSH1 0x7 SLOAD AND ISZERO PUSH2 0x1154 JUMP JUMPDEST PUSH1 0x1 PUSH1 0x1 PUSH1 0xA0 SHL SUB DUP2 AND DUP1 DUP7 MSTORE PUSH1 0x20 DUP8 DUP2 MSTORE DUP6 DUP8 KECCAK256 CALLER DUP9 MSTORE DUP2 MSTORE DUP6 DUP8 KECCAK256 SLOAD SWAP1 SWAP7 SWAP1 SWAP2 DUP6 DUP4 LT PUSH2 0xD9A JUMPI PUSH1 0x1 DUP4 ADD PUSH2 0xD5C JUMPI JUMPDEST POP POP POP SWAP1 PUSH2 0x2FB SWAP3 SWAP2 PUSH2 0x1265 JUMP JUMPDEST DUP6 DUP4 SUB SWAP3 DUP4 GT PUSH2 0xD87 JUMPI SWAP1 DUP7 SWAP8 SWAP9 PUSH2 0x2FB SWAP8 SWAP3 DUP3 MSTORE DUP10 MSTORE DUP2 DUP2 KECCAK256 CALLER DUP3 MSTORE DUP10 MSTORE KECCAK256 SSTORE DUP6 SWAP5 SWAP4 DUP8 DUP1 PUSH2 0xD4E JUMP JUMPDEST PUSH4 0x4E487B71 PUSH1 0xE0 SHL DUP3 MSTORE PUSH1 0x11 DUP10 MSTORE PUSH1 0x24 DUP3 REVERT JUMPDEST DUP7 MLOAD PUSH3 0x461BCD PUSH1 0xE5 SHL DUP2 MSTORE DUP1 DUP11 ADD DUP10 SWAP1 MSTORE PUSH1 0x9 PUSH1 0x24 DUP3 ADD MSTORE PUSH9 0x616C6C6F77616E6365 PUSH1 0xB8 SHL PUSH1 0x44 DUP3 ADD MSTORE PUSH1 0x64 SWAP1 REVERT JUMPDEST POP POP CALLVALUE PUSH2 0x178 JUMPI DUP2 PUSH1 0x3 NOT CALLDATASIZE ADD SLT PUSH2 0x178 JUMPI PUSH1 0x20 SWAP1 PUSH1 0x2 SLOAD SWAP1 MLOAD SWAP1 DUP2 MSTORE RETURN JUMPDEST DUP4 CALLVALUE PUSH2 0x1F5 JUMPI PUSH1 0x20 CALLDATASIZE PUSH1 0x3 NOT ADD SLT PUSH2 0x1F5 JUMPI PUSH2 0xE02 PUSH2 0x1052 JUMP JUMPDEST PUSH1 0x5 SLOAD SWAP1 PUSH1 0x1 PUSH1 0x1 PUSH1 0xA0 SHL SUB SWAP1 PUSH2 0xE1C CALLER DUP4 DUP6 AND EQ PUSH2 0x10B2 JUMP JUMPDEST AND DUP1 SWAP2 PUSH2 0xE2A DUP3 ISZERO ISZERO PUSH2 0x10EA JUMP JUMPDEST PUSH1 0x1 PUSH1 0x1 PUSH1 0xA0 SHL SUB NOT AND OR PUSH1 0x5 SSTORE PUSH32 0xA2EA9883A321A3E97B8266C2B078BFEEC6D50C711ED71F874A90D500AE2EAF36 DUP3 DUP1 LOG2 DUP1 RETURN JUMPDEST SWAP1 POP CALLVALUE PUSH2 0x245 JUMPI DUP2 PUSH1 0x3 NOT CALLDATASIZE ADD SLT PUSH2 0x245 JUMPI PUSH1 0x20 SWAP3 PUSH2 0xE7C PUSH2 0x1052 JUMP JUMPDEST SWAP2 DUP4 PUSH1 0x24 CALLDATALOAD SWAP3 DUP4 SWAP3 CALLER DUP3 MSTORE DUP8 MSTORE DUP2 DUP2 KECCAK256 SWAP5 PUSH1 0x1 DUP1 PUSH1 0xA0 SHL SUB AND SWAP5 DUP6 DUP3 MSTORE DUP8 MSTORE KECCAK256 SSTORE DUP3 MLOAD SWAP1 DUP2 MSTORE PUSH32 0x8C5BE1E5EBEC7D5BD14F71427D1E84F3DD0314C0F7B2291E5B200AC8C7C3B925 DUP5 CALLER SWAP3 LOG3 MLOAD PUSH1 0x1 DUP2 MSTORE RETURN JUMPDEST SWAP3 SWAP2 POP CALLVALUE PUSH2 0x906 JUMPI DUP4 PUSH1 0x3 NOT CALLDATASIZE ADD SLT PUSH2 0x906 JUMPI DUP4 SLOAD PUSH1 0x1 DUP2 DUP2 SHR SWAP2 DUP7 SWAP1 DUP3 DUP2 AND DUP1 ISZERO PUSH2 0xFB3 JUMPI JUMPDEST PUSH1 0x20 SWAP6 DUP7 DUP7 LT DUP3 EQ PUSH2 0xFA0 JUMPI POP DUP5 DUP9 MSTORE SWAP1 DUP2 ISZERO PUSH2 0xF7E JUMPI POP PUSH1 0x1 EQ PUSH2 0xF26 JUMPI JUMPDEST PUSH2 0x50E DUP7 DUP7 PUSH2 0x504 DUP3 DUP12 SUB DUP4 PUSH2 0xFE7 JUMP JUMPDEST DUP1 DUP1 SWAP5 SWAP8 POP MSTORE PUSH32 0x290DECD9548B62A8D60345A988386FC84BA6BC95484008F6362F93160EF3E563 JUMPDEST DUP3 DUP5 LT PUSH2 0xF6B JUMPI POP POP POP DUP3 PUSH2 0x50E SWAP5 PUSH2 0x504 SWAP3 DUP3 ADD ADD SWAP5 CODESIZE PUSH2 0xF15 JUMP JUMPDEST DUP1 SLOAD DUP7 DUP6 ADD DUP9 ADD MSTORE SWAP3 DUP7 ADD SWAP3 DUP2 ADD PUSH2 0xF4E JUMP JUMPDEST PUSH1 0xFF NOT AND DUP8 DUP7 ADD MSTORE POP POP POP ISZERO ISZERO PUSH1 0x5 SHL DUP4 ADD ADD SWAP3 POP PUSH2 0x504 DUP3 PUSH2 0x50E CODESIZE PUSH2 0xF15 JUMP JUMPDEST PUSH4 0x4E487B71 PUSH1 0xE0 SHL DUP5 MSTORE PUSH1 0x22 SWAP1 MSTORE PUSH1 0x24 DUP4 REVERT JUMPDEST SWAP4 PUSH1 0x7F AND SWAP4 PUSH2 0xEF5 JUMP JUMPDEST PUSH8 0xFFFFFFFFFFFFFFFF DUP2 GT PUSH2 0xFD1 JUMPI PUSH1 0x40 MSTORE JUMP JUMPDEST PUSH4 0x4E487B71 PUSH1 0xE0 SHL PUSH1 0x0 MSTORE PUSH1 0x41 PUSH1 0x4 MSTORE PUSH1 0x24 PUSH1 0x0 REVERT JUMPDEST SWAP1 PUSH1 0x1F DUP1 NOT SWAP2 ADD AND DUP2 ADD SWAP1 DUP2 LT PUSH8 0xFFFFFFFFFFFFFFFF DUP3 GT OR PUSH2 0xFD1 JUMPI PUSH1 0x40 MSTORE JUMP JUMPDEST PUSH1 0x20 DUP1 DUP3 MSTORE DUP3 MLOAD DUP2 DUP4 ADD DUP2 SWAP1 MSTORE SWAP1 SWAP4 SWAP3 PUSH1 0x0 JUMPDEST DUP3 DUP2 LT PUSH2 0x103E JUMPI POP POP PUSH1 0x40 SWAP3 SWAP4 POP PUSH1 0x0 DUP4 DUP3 DUP5 ADD ADD MSTORE PUSH1 0x1F DUP1 NOT SWAP2 ADD AND ADD ADD SWAP1 JUMP JUMPDEST DUP2 DUP2 ADD DUP7 ADD MLOAD DUP5 DUP3 ADD PUSH1 0x40 ADD MSTORE DUP6 ADD PUSH2 0x101C JUMP JUMPDEST PUSH1 0x4 CALLDATALOAD SWAP1 PUSH1 0x1 PUSH1 0x1 PUSH1 0xA0 SHL SUB DUP3 AND DUP3 SUB PUSH2 0x1068 JUMPI JUMP JUMPDEST PUSH1 0x0 DUP1 REVERT JUMPDEST PUSH1 0x24 CALLDATALOAD SWAP1 PUSH1 0x1 PUSH1 0x1 PUSH1 0xA0 SHL SUB DUP3 AND DUP3 SUB PUSH2 0x1068 JUMPI JUMP JUMPDEST PUSH1 0x40 SWAP1 PUSH1 0x3 NOT ADD SLT PUSH2 0x1068 JUMPI PUSH1 0x4 CALLDATALOAD PUSH1 0x1 PUSH1 0x1 PUSH1 0xA0 SHL SUB DUP2 AND DUP2 SUB PUSH2 0x1068 JUMPI SWAP1 PUSH1 0x24 CALLDATALOAD DUP1 ISZERO ISZERO DUP2 SUB PUSH2 0x1068 JUMPI SWAP1 JUMP JUMPDEST ISZERO PUSH2 0x10B9 JUMPI JUMP JUMPDEST PUSH1 0x40 MLOAD PUSH3 0x461BCD PUSH1 0xE5 SHL DUP2 MSTORE PUSH1 0x20 PUSH1 0x4 DUP3 ADD MSTORE PUSH1 0x9 PUSH1 0x24 DUP3 ADD MSTORE PUSH9 0x3737BA1037BBB732B9 PUSH1 0xB9 SHL PUSH1 0x44 DUP3 ADD MSTORE PUSH1 0x64 SWAP1 REVERT JUMPDEST ISZERO PUSH2 0x10F1 JUMPI JUMP JUMPDEST PUSH1 0x64 PUSH1 0x40 MLOAD PUSH3 0x461BCD PUSH1 0xE5 SHL DUP2 MSTORE PUSH1 0x20 PUSH1 0x4 DUP3 ADD MSTORE PUSH1 0x4 PUSH1 0x24 DUP3 ADD MSTORE PUSH4 0x7A65726F PUSH1 0xE0 SHL PUSH1 0x44 DUP3 ADD MSTORE REVERT JUMPDEST ISZERO PUSH2 0x1123 JUMPI JUMP JUMPDEST PUSH1 0x40 MLOAD PUSH3 0x461BCD PUSH1 0xE5 SHL DUP2 MSTORE PUSH1 0x20 PUSH1 0x4 DUP3 ADD MSTORE PUSH1 0x9 PUSH1 0x24 DUP3 ADD MSTORE PUSH9 0x1B9BDD081859D95B9D PUSH1 0xBA SHL PUSH1 0x44 DUP3 ADD MSTORE PUSH1 0x64 SWAP1 REVERT JUMPDEST ISZERO PUSH2 0x115B JUMPI JUMP JUMPDEST PUSH1 0x40 MLOAD PUSH3 0x461BCD PUSH1 0xE5 SHL DUP2 MSTORE PUSH1 0x20 PUSH1 0x4 DUP3 ADD MSTORE PUSH1 0x6 PUSH1 0x24 DUP3 ADD MSTORE PUSH6 0x1C185D5CD959 PUSH1 0xD2 SHL PUSH1 0x44 DUP3 ADD MSTORE PUSH1 0x64 SWAP1 REVERT JUMPDEST ISZERO PUSH2 0x1190 JUMPI JUMP JUMPDEST PUSH1 0x64 PUSH1 0x40 MLOAD PUSH3 0x461BCD PUSH1 0xE5 SHL DUP2 MSTORE PUSH1 0x20 PUSH1 0x4 DUP3 ADD MSTORE PUSH1 0x4 PUSH1 0x24 DUP3 ADD MSTORE PUSH4 0x746F3D3 PUSH1 0xE4 SHL PUSH1 0x44 DUP3 ADD MSTORE REVERT JUMPDEST SWAP1 DUP2 PUSH1 0x20 SWAP2 SUB SLT PUSH2 0x1068 JUMPI MLOAD DUP1 ISZERO ISZERO DUP2 SUB PUSH2 0x1068 JUMPI SWAP1 JUMP JUMPDEST ISZERO PUSH2 0x11DA JUMPI JUMP JUMPDEST PUSH1 0x40 MLOAD PUSH3 0x461BCD PUSH1 0xE5 SHL DUP2 MSTORE PUSH1 0x20 PUSH1 0x4 DUP3 ADD MSTORE PUSH1 0xA PUSH1 0x24 DUP3 ADD MSTORE PUSH10 0x636F6D706C69616E6365 PUSH1 0xB0 SHL PUSH1 0x44 DUP3 ADD MSTORE PUSH1 0x64 SWAP1 REVERT JUMPDEST ISZERO PUSH2 0x1213 JUMPI JUMP JUMPDEST PUSH1 0x40 MLOAD PUSH3 0x461BCD PUSH1 0xE5 SHL DUP2 MSTORE PUSH1 0x20 PUSH1 0x4 DUP3 ADD MSTORE PUSH1 0x7 PUSH1 0x24 DUP3 ADD MSTORE PUSH7 0x62616C616E6365 PUSH1 0xC8 SHL PUSH1 0x44 DUP3 ADD MSTORE PUSH1 0x64 SWAP1 REVERT JUMPDEST SWAP2 SWAP1 DUP3 ADD DUP1 SWAP3 GT PUSH2 0x124F JUMPI JUMP JUMPDEST PUSH4 0x4E487B71 PUSH1 0xE0 SHL PUSH1 0x0 MSTORE PUSH1 0x11 PUSH1 0x4 MSTORE PUSH1 0x24 PUSH1 0x0 REVERT JUMPDEST SWAP1 SWAP3 SWAP2 PUSH1 0x1 PUSH1 0x1 PUSH1 0xA0 SHL SUB DUP1 DUP6 AND SWAP3 SWAP1 SWAP2 PUSH2 0x1281 DUP5 ISZERO ISZERO PUSH2 0x1189 JUMP JUMPDEST DUP3 DUP3 AND SWAP3 PUSH1 0x0 SWAP7 DUP5 DUP9 MSTORE PUSH1 0x20 SWAP4 PUSH1 0x8 DUP6 MSTORE PUSH1 0x40 SWAP3 PUSH1 0xFF DUP5 DUP12 KECCAK256 SLOAD AND PUSH2 0x13D0 JUMPI PUSH1 0xA SLOAD DUP5 MLOAD PUSH4 0x72331C73 PUSH1 0xE1 SHL DUP2 MSTORE PUSH1 0x1 PUSH1 0x1 PUSH1 0xA0 SHL SUB DUP5 DUP2 AND PUSH1 0x4 DUP4 ADD MSTORE DUP6 AND PUSH1 0x24 DUP3 ADD MSTORE PUSH1 0x44 DUP2 ADD DUP8 SWAP1 MSTORE DUP12 SWAP4 SWAP3 SWAP2 DUP9 SWAP1 DUP3 SWAP1 PUSH1 0x64 SWAP1 DUP3 SWAP1 DUP7 AND GAS STATICCALL SWAP1 DUP2 ISZERO PUSH2 0x13C6 JUMPI SWAP1 PUSH2 0x12F6 SWAP2 DUP6 SWAP2 PUSH2 0x13AF JUMPI POP PUSH2 0x11D3 JUMP JUMPDEST DUP8 DUP4 MSTORE PUSH1 0x3 DUP8 MSTORE DUP6 DUP6 DUP5 KECCAK256 SLOAD PUSH2 0x130E DUP3 DUP3 LT ISZERO PUSH2 0x120C JUMP JUMPDEST DUP10 DUP6 MSTORE PUSH1 0x3 DUP10 MSTORE SUB DUP6 DUP5 KECCAK256 SSTORE DUP9 DUP4 MSTORE DUP5 DUP4 KECCAK256 PUSH2 0x132B DUP8 DUP3 SLOAD PUSH2 0x1242 JUMP JUMPDEST SWAP1 SSTORE PUSH1 0xA SLOAD AND DUP1 EXTCODESIZE ISZERO PUSH2 0x245 JUMPI DUP5 MLOAD PUSH4 0x22EBCA6D PUSH1 0xE2 SHL DUP2 MSTORE PUSH1 0x1 PUSH1 0x1 PUSH1 0xA0 SHL SUB SWAP3 DUP4 AND PUSH1 0x4 DUP3 ADD MSTORE SWAP4 SWAP1 SWAP2 AND PUSH1 0x24 DUP5 ADD MSTORE PUSH1 0x44 DUP4 ADD DUP6 SWAP1 MSTORE DUP3 SWAP1 PUSH1 0x64 SWAP1 DUP3 SWAP1 DUP5 SWAP1 GAS CALL DUP1 ISZERO PUSH2 0x13A5 JUMPI PUSH1 0x0 DUP1 MLOAD PUSH1 0x20 PUSH2 0x1401 DUP4 CODECOPY DUP2 MLOAD SWAP2 MSTORE SWAP6 SWAP7 SWAP8 SWAP9 POP PUSH2 0x1396 JUMPI JUMPDEST POP MLOAD SWAP1 DUP2 MSTORE LOG3 JUMP JUMPDEST PUSH2 0x139F SWAP1 PUSH2 0xFBD JUMP JUMPDEST CODESIZE PUSH2 0x138E JUMP JUMPDEST DUP3 MLOAD RETURNDATASIZE DUP11 DUP3 RETURNDATACOPY RETURNDATASIZE SWAP1 REVERT JUMPDEST PUSH2 0x934 SWAP2 POP DUP10 RETURNDATASIZE DUP12 GT PUSH2 0x93A JUMPI PUSH2 0x92C DUP2 DUP4 PUSH2 0xFE7 JUMP JUMPDEST DUP7 MLOAD RETURNDATASIZE DUP7 DUP3 RETURNDATACOPY RETURNDATASIZE SWAP1 REVERT JUMPDEST DUP4 MLOAD PUSH3 0x461BCD PUSH1 0xE5 SHL DUP2 MSTORE PUSH1 0x4 DUP2 ADD DUP8 SWAP1 MSTORE PUSH1 0x9 PUSH1 0x24 DUP3 ADD MSTORE PUSH9 0x199C9BDB481B1BDCDD PUSH1 0xBA SHL PUSH1 0x44 DUP3 ADD MSTORE PUSH1 0x64 SWAP1 REVERT INVALID 0xDD CALLCODE MSTORE 0xAD SHL 0xE2 0xC8 SWAP12 PUSH10 0xC2B068FC378DAA952BA7 CALL PUSH4 0xC4A11628 CREATE2 GAS 0x4D CREATE2 0x23 0xB3 0xEF LOG2 PUSH5 0x6970667358 0x22 SLT KECCAK256 PUSH28 0xBF33C0C2D7C59A0625A73733C003C7BFDBA926E24D0C67828D759EB9 DUP11 0xC4 JUMPDEST PUSH5 0x736F6C6343 STOP ADDMOD EQ STOP CALLER "},"methodIdentifiers":{"agents(address)":"fd66091e","allowance(address,address)":"dd62ed3e","approve(address,uint256)":"095ea7b3","balanceOf(address)":"70a08231","burn(address,uint256)":"9dc29fac","compliance()":"6290865d","decimals()":"313ce567","forcedTransfer(address,address,uint256,string)":"3ad8b2d7","lost(address)":"70405a47","mint(address,uint256)":"40c10f19","name()":"06fdde03","owner()":"8da5cb5b","pause()":"8456cb59","paused()":"5c975abb","registry()":"7b103999","setAgent(address,bool)":"97d8c676","setCompliance(address)":"f8981789","setLost(address,bool)":"49ba507b","setOwner(address)":"13af4035","setRegistry(address)":"a91ee0dc","symbol()":"95d89b41","totalSupply()":"18160ddd","transfer(address,uint256)":"a9059cbb","transferFrom(address,address,uint256)":"23b872dd","unpause()":"3f4ba83a"}}}}}