{"contracts/compliance/DefaultCompliance.sol":{"DefaultCompliance":{"abi":[{"inputs":[{"internalType":"address","name":"_owner","type":"address"},{"internalType":"address","name":"_registry","type":"address"}],"stateMutability":"nonpayable","type":"constructor"},{"anonymous":false,"inputs":[{"indexed":false,"internalType":"uint16","name":"country","type":"uint16"},{"indexed":false,"internalType":"bool","name":"allowed","type":"bool"}],"name":"CountryRestrictionSet","type":"event"},{"anonymous":false,"inputs":[{"indexed":false,"internalType":"uint40","name":"until","type":"uint40"}],"name":"LockupSet","type":"event"},{"anonymous":false,"inputs":[{"indexed":false,"internalType":"uint256","name":"max","type":"uint256"}],"name":"MaxHoldersSet","type":"event"},{"anonymous":false,"inputs":[{"indexed":true,"internalType":"address","name":"from","type":"address"},{"indexed":true,"internalType":"address","name":"to","type":"address"},{"indexed":false,"internalType":"uint256","name":"amount","type":"uint256"}],"name":"TransferApproved","type":"event"},{"anonymous":false,"inputs":[{"indexed":true,"internalType":"address","name":"from","type":"address"},{"indexed":true,"internalType":"address","name":"to","type":"address"},{"indexed":false,"internalType":"uint256","name":"amount","type":"uint256"},{"indexed":false,"internalType":"string","name":"reason","type":"string"}],"name":"TransferRejected","type":"event"},{"inputs":[{"internalType":"uint16","name":"","type":"uint16"}],"name":"allowedCountries","outputs":[{"internalType":"bool","name":"","type":"bool"}],"stateMutability":"view","type":"function"},{"inputs":[{"internalType":"address","name":"","type":"address"}],"name":"balancesCache","outputs":[{"internalType":"uint256","name":"","type":"uint256"}],"stateMutability":"view","type":"function"},{"inputs":[{"internalType":"address","name":"from","type":"address"},{"internalType":"address","name":"to","type":"address"},{"internalType":"uint256","name":"amount","type":"uint256"}],"name":"canTransfer","outputs":[{"internalType":"bool","name":"","type":"bool"}],"stateMutability":"view","type":"function"},{"inputs":[],"name":"countryAllowlistActive","outputs":[{"internalType":"bool","name":"","type":"bool"}],"stateMutability":"view","type":"function"},{"inputs":[{"internalType":"address","name":"to","type":"address"},{"internalType":"uint256","name":"amount","type":"uint256"}],"name":"created","outputs":[],"stateMutability":"nonpayable","type":"function"},{"inputs":[{"internalType":"address","name":"from","type":"address"},{"internalType":"uint256","name":"amount","type":"uint256"}],"name":"destroyed","outputs":[],"stateMutability":"nonpayable","type":"function"},{"inputs":[],"name":"disableCountryAllowlist","outputs":[],"stateMutability":"nonpayable","type":"function"},{"inputs":[{"internalType":"address","name":"","type":"address"}],"name":"exempt","outputs":[{"internalType":"bool","name":"","type":"bool"}],"stateMutability":"view","type":"function"},{"inputs":[],"name":"holdersCount","outputs":[{"internalType":"uint256","name":"","type":"uint256"}],"stateMutability":"view","type":"function"},{"inputs":[],"name":"lockupUntil","outputs":[{"internalType":"uint40","name":"","type":"uint40"}],"stateMutability":"view","type":"function"},{"inputs":[],"name":"maxHolders","outputs":[{"internalType":"uint256","name":"","type":"uint256"}],"stateMutability":"view","type":"function"},{"inputs":[],"name":"owner","outputs":[{"internalType":"address","name":"","type":"address"}],"stateMutability":"view","type":"function"},{"inputs":[],"name":"registry","outputs":[{"internalType":"contract IIdentityRegistry","name":"","type":"address"}],"stateMutability":"view","type":"function"},{"inputs":[{"internalType":"uint16","name":"country","type":"uint16"},{"internalType":"bool","name":"allowed","type":"bool"}],"name":"setCountryAllowed","outputs":[],"stateMutability":"nonpayable","type":"function"},{"inputs":[{"internalType":"address","name":"addr","type":"address"},{"internalType":"bool","name":"isExempt","type":"bool"}],"name":"setExempt","outputs":[],"stateMutability":"nonpayable","type":"function"},{"inputs":[{"internalType":"uint40","name":"until","type":"uint40"}],"name":"setLockup","outputs":[],"stateMutability":"nonpayable","type":"function"},{"inputs":[{"internalType":"uint256","name":"max","type":"uint256"}],"name":"setMaxHolders","outputs":[],"stateMutability":"nonpayable","type":"function"},{"inputs":[{"internalType":"address","name":"newOwner","type":"address"}],"name":"setOwner","outputs":[],"stateMutability":"nonpayable","type":"function"},{"inputs":[{"internalType":"address","name":"newToken","type":"address"}],"name":"setToken","outputs":[],"stateMutability":"nonpayable","type":"function"},{"inputs":[],"name":"token","outputs":[{"internalType":"address","name":"","type":"address"}],"stateMutability":"view","type":"function"},{"inputs":[{"internalType":"address","name":"from","type":"address"},{"internalType":"address","name":"to","type":"address"},{"internalType":"uint256","name":"amount","type":"uint256"}],"name":"transferred","outputs":[],"stateMutability":"nonpayable","type":"function"}],"evm":{"bytecode":{"linkReferences":{},"object":"6080346100ce57601f610ff338819003918201601f19168301916001600160401b038311848410176100d35780849260409485528339810103126100ce57610052602061004b836100e9565b92016100e9565b6001600160a01b039182169190821515806100c3575b156100985760018060a01b03199283600054161760005516906002541617600255604051610ef590816100fe8239f35b606460405162461bcd60e51b81526020600482015260046024820152637a65726f60e01b6044820152fd5b508181161515610068565b600080fd5b634e487b7160e01b600052604160045260246000fd5b51906001600160a01b03821682036100ce5756fe6040608081526004908136101561001557600080fd5b600091823560e01c90816306cb03f7146108c957816313af403514610879578163144fa6d71461081f57816340a1a1cb146107ea5781635f8dead3146107185781636b4ed21b146106fa5781637b103999146106d15781638365066b146106775781638baf29b4146104815781638bf5c4ee146104625781638d2ea7721461036d575080638da5cb5b146103465780639791484c1461031e5780639fde54f5146102c0578063b1ff421e1461028a578063bb50af6f14610267578063bff9c1c4146101cd578063dc3eb2b714610196578063e46638e614610172578063f1320af2146101355763fc0c546a1461010a57600080fd5b3461013157816003193601126101315760015490516001600160a01b039091168152602090f35b5080fd5b50346101315760203660031901126101315760209160ff9082906001600160a01b0361015f610956565b1681526008855220541690519015158152f35b50346101315760209061018d61018736610971565b91610a87565b90519015158152f35b50346101315760203660031901126101315760209181906001600160a01b036101bd610956565b1681526005845220549051908152f35b50346101315780600319360112610131577fcb202a7781a1fa483d7062ac9b9e79f3e4ebc8df0bd8de7be9bc2fc4ae6254f5906102086109b5565b61ffff6102136109a6565b9161022860018060a01b0387541633146109c6565b1690818552600660205261024a818487209060ff801983541691151516179055565b600160ff196007541617600755825191825215156020820152a180f35b503461013157816003193601126101315760209060ff6007541690519015158152f35b50346101315760203660031901126101315760ff8160209361ffff6102ad6109b5565b1681526006855220541690519015158152f35b503461013157806003193601126101315761031b906102dd610956565b906102e66109a6565b845490926001600160a01b039161030090831633146109c6565b168452600860205283209060ff801983541691151516179055565b80f35b503461013157816003193601126101315760209064ffffffffff60025460a01c169051908152f35b5034610131578160031936011261013157905490516001600160a01b039091168152602090f35b9190503461045e578060031936011261045e57610388610956565b600154602435916001600160a01b03916103a59083163314610e57565b16908115158080610448575b1561041857506103cc90828652600560205283862054610e8f565b91829185526005602052842055158061040e575b6103e8575080f35b80546000198101919082116103fb575580f35b634e487b7160e01b835260119052602482fd5b50805415156103e0565b909350919091610429575b50505080f35b61043e91845260056020528320918254610e8f565b9055388080610423565b50828652600860205260ff8487205416156103b1565b8280fd5b5050346101315781600319360112610131576020906003549051908152f35b9190503461045e5761049236610971565b9160018060a09593951b0380916104ae82600154163314610e57565b16938415158080610661575b1561063f575084875260056020526104d58484892054610e8f565b858852600560205280848920551580610635575b61060d575b169384151580806105f7575b156105ae57508486526005602052818620546105168482610eb2565b86885260056020528388205515806105a5575b61055d575b507fb3b962ba1261f3080e7d4f5f2002b0f8338c5bb41cdab72866777fd7b9dc9b9e916020915b51908152a380f35b8054906001820180921161059257557fb3b962ba1261f3080e7d4f5f2002b0f8338c5bb41cdab72866777fd7b9dc9b9e61052e565b634e487b7160e01b875260119052602486fd5b50821515610529565b7fb3b962ba1261f3080e7d4f5f2002b0f8338c5bb41cdab72866777fd7b9dc9b9e939150916020921561055557858752600583528087206105f0838254610eb2565b9055610555565b50858752600860205260ff8388205416156104fa565b855460001981019081116106225786556104ee565b634e487b7160e01b885260118752602488fd5b50855415156104e9565b156104ee57848752600560205282872061065a858254610e8f565b90556104ee565b50858852600860205260ff8489205416156104ba565b90503461045e57602036600319011261045e577fd95f6c53e97f4296dd8ed1d779512e13c947410183d93ca8d54e5a913c2050559160209135906106c560018060a01b0386541633146109c6565b8160035551908152a180f35b50503461013157816003193601126101315760025490516001600160a01b039091168152602090f35b90503461045e578260031936011261045e5760209250549051908152f35b9190503461045e578060031936011261045e57610733610956565b60015460243592916001600160a01b03916107519083163314610e57565b1680151580806107d4575b156107b15750808552600560205281852054916107798484610eb2565b91865260056020528520551590816107a7575b50610795575080f35b805490600182018092116103fb575580f35b905015153861078c565b909293506107bf5750505080f35b61043e91845260056020528320918254610eb2565b50818652600860205260ff83872054161561075c565b833461081c578060031936011261081c5761080f60018060a01b0382541633146109c6565b60ff196007541660075580f35b80fd5b833461081c57602036600319011261081c57610839610956565b81546001600160a01b03919061085290831633146109c6565b1661085e8115156109fe565b6bffffffffffffffffffffffff60a01b600154161760015580f35b833461081c57602036600319011261081c57610893610956565b8154906001600160a01b03906108ac33838516146109c6565b16906108b98215156109fe565b6001600160a01b03191617815580f35b90503461045e57602036600319011261045e573564ffffffffff8116808203610952577fd53bd5ee111e3581c8d6e609752a34e239ccde43c217ac48733179fb229bba6b9260209261092560018060a01b0387541633146109c6565b6002805464ffffffffff60a01b191660a09290921b64ffffffffff60a01b1691909117905551908152a180f35b8380fd5b600435906001600160a01b038216820361096c57565b600080fd5b606090600319011261096c576001600160a01b0390600435828116810361096c5791602435908116810361096c579060443590565b60243590811515820361096c57565b6004359061ffff8216820361096c57565b156109cd57565b60405162461bcd60e51b81526020600482015260096024820152683737ba1037bbb732b960b91b6044820152606490fd5b15610a0557565b606460405162461bcd60e51b81526020600482015260046024820152637a65726f60e01b6044820152fd5b90601f8019910116810190811067ffffffffffffffff821117610a5257604052565b634e487b7160e01b600052604160045260246000fd5b5190811515820361096c57565b519064ffffffffff8216820361096c57565b6001600160a01b0391908216801515908180610e4c575b80610e33575b80610e18575b610de7575b81610dcc575b81610d58575b50610bca57811691821515918280610d3f575b80610cc1575b610cb8578280610c9f575b80610c93575b610b73575b50600354928315159283610b6b575b5082610b50575b82610b37575b5081610b2d575b50610b19575b50600190565b6004541015610b285738610b13565b600090565b9050151538610b0d565b9091506000526005602052604060002054159038610b06565b809250600052600860205260ff604060002054161591610b00565b925038610af9565b60025416602460a060409283519283809263631a2b1360e11b82528960048301525afa908115610c8857600091610bd2575b509061ffff602060ff930151166000526006602052600020541615610bca5738610aea565b505050600090565b60a0813d8211610c80575b81610bea60a09383610a30565b810103126101315782519160a0830183811067ffffffffffffffff821117610c6c578452610c1782610a68565b835260208201519061ffff8216820361081c575082608061ffff936020938460ff98970152610c47868201610a75565b86840152610c5760608201610a75565b60608401520151608082015292935050610ba5565b634e487b7160e01b82526041600452602482fd5b3d9150610bdd565b82513d6000823e3d90fd5b5060ff60075416610ae5565b5083600052600860205260ff6040600020541615610adf565b50505050600090565b506024602082600254166040519283809263b9209e3360e01b82528960048301525afa908115610d3357600091610cfa575b5015610ad4565b906020823d8211610d2b575b81610d1360209383610a30565b8101031261081c5750610d2590610a68565b38610cf3565b3d9150610d06565b6040513d6000823e3d90fd5b5083600052600860205260ff6040600020541615610ace565b9050602083600254169160246040518094819363b9209e3360e01b835260048301525afa908115610d3357600091610d93575b501538610abb565b906020823d8211610dc4575b81610dac60209383610a30565b8101031261081c5750610dbe90610a68565b38610d8b565b3d9150610d9f565b809150600052600860205260ff604060002054161590610ab5565b64ffffffffff60025460a01c168015159081610e0e575b5015610aaf575050505050600090565b9050421038610dfe565b50838316600052600860205260ff6040600020541615610aaa565b5080600052600860205260ff6040600020541615610aa4565b508383161515610a9e565b15610e5e57565b60405162461bcd60e51b81526020600482015260096024820152683737ba103a37b5b2b760b91b6044820152606490fd5b91908203918211610e9c57565b634e487b7160e01b600052601160045260246000fd5b91908201809211610e9c5756fea2646970667358221220ffd138579aab5b50d988991980913b3c4ed13257a186de0fe0a77123a2b95d1764736f6c63430008140033","opcodes":"PUSH1 0x80 CALLVALUE PUSH2 0xCE JUMPI PUSH1 0x1F PUSH2 0xFF3 CODESIZE DUP2 SWAP1 SUB SWAP2 DUP3 ADD PUSH1 0x1F NOT AND DUP4 ADD SWAP2 PUSH1 0x1 PUSH1 0x1 PUSH1 0x40 SHL SUB DUP4 GT DUP5 DUP5 LT OR PUSH2 0xD3 JUMPI DUP1 DUP5 SWAP3 PUSH1 0x40 SWAP5 DUP6 MSTORE DUP4 CODECOPY DUP2 ADD SUB SLT PUSH2 0xCE JUMPI PUSH2 0x52 PUSH1 0x20 PUSH2 0x4B DUP4 PUSH2 0xE9 JUMP JUMPDEST SWAP3 ADD PUSH2 0xE9 JUMP JUMPDEST PUSH1 0x1 PUSH1 0x1 PUSH1 0xA0 SHL SUB SWAP2 DUP3 AND SWAP2 SWAP1 DUP3 ISZERO ISZERO DUP1 PUSH2 0xC3 JUMPI JUMPDEST ISZERO PUSH2 0x98 JUMPI PUSH1 0x1 DUP1 PUSH1 0xA0 SHL SUB NOT SWAP3 DUP4 PUSH1 0x0 SLOAD AND OR PUSH1 0x0 SSTORE AND SWAP1 PUSH1 0x2 SLOAD AND OR PUSH1 0x2 SSTORE PUSH1 0x40 MLOAD PUSH2 0xEF5 SWAP1 DUP2 PUSH2 0xFE DUP3 CODECOPY RETURN JUMPDEST PUSH1 0x64 PUSH1 0x40 MLOAD PUSH3 0x461BCD PUSH1 0xE5 SHL DUP2 MSTORE PUSH1 0x20 PUSH1 0x4 DUP3 ADD MSTORE PUSH1 0x4 PUSH1 0x24 DUP3 ADD MSTORE PUSH4 0x7A65726F PUSH1 0xE0 SHL PUSH1 0x44 DUP3 ADD MSTORE REVERT JUMPDEST POP DUP2 DUP2 AND ISZERO ISZERO PUSH2 0x68 JUMP JUMPDEST PUSH1 0x0 DUP1 REVERT JUMPDEST PUSH4 0x4E487B71 PUSH1 0xE0 SHL PUSH1 0x0 MSTORE PUSH1 0x41 PUSH1 0x4 MSTORE PUSH1 0x24 PUSH1 0x0 REVERT JUMPDEST MLOAD SWAP1 PUSH1 0x1 PUSH1 0x1 PUSH1 0xA0 SHL SUB DUP3 AND DUP3 SUB PUSH2 0xCE JUMPI JUMP INVALID PUSH1 0x40 PUSH1 0x80 DUP2 MSTORE PUSH1 0x4 SWAP1 DUP2 CALLDATASIZE LT ISZERO PUSH2 0x15 JUMPI PUSH1 0x0 DUP1 REVERT JUMPDEST PUSH1 0x0 SWAP2 DUP3 CALLDATALOAD PUSH1 0xE0 SHR SWAP1 DUP2 PUSH4 0x6CB03F7 EQ PUSH2 0x8C9 JUMPI DUP2 PUSH4 0x13AF4035 EQ PUSH2 0x879 JUMPI DUP2 PUSH4 0x144FA6D7 EQ PUSH2 0x81F JUMPI DUP2 PUSH4 0x40A1A1CB EQ PUSH2 0x7EA JUMPI DUP2 PUSH4 0x5F8DEAD3 EQ PUSH2 0x718 JUMPI DUP2 PUSH4 0x6B4ED21B EQ PUSH2 0x6FA JUMPI DUP2 PUSH4 0x7B103999 EQ PUSH2 0x6D1 JUMPI DUP2 PUSH4 0x8365066B EQ PUSH2 0x677 JUMPI DUP2 PUSH4 0x8BAF29B4 EQ PUSH2 0x481 JUMPI DUP2 PUSH4 0x8BF5C4EE EQ PUSH2 0x462 JUMPI DUP2 PUSH4 0x8D2EA772 EQ PUSH2 0x36D JUMPI POP DUP1 PUSH4 0x8DA5CB5B EQ PUSH2 0x346 JUMPI DUP1 PUSH4 0x9791484C EQ PUSH2 0x31E JUMPI DUP1 PUSH4 0x9FDE54F5 EQ PUSH2 0x2C0 JUMPI DUP1 PUSH4 0xB1FF421E EQ PUSH2 0x28A JUMPI DUP1 PUSH4 0xBB50AF6F EQ PUSH2 0x267 JUMPI DUP1 PUSH4 0xBFF9C1C4 EQ PUSH2 0x1CD JUMPI DUP1 PUSH4 0xDC3EB2B7 EQ PUSH2 0x196 JUMPI DUP1 PUSH4 0xE46638E6 EQ PUSH2 0x172 JUMPI DUP1 PUSH4 0xF1320AF2 EQ PUSH2 0x135 JUMPI PUSH4 0xFC0C546A EQ PUSH2 0x10A JUMPI PUSH1 0x0 DUP1 REVERT JUMPDEST CALLVALUE PUSH2 0x131 JUMPI DUP2 PUSH1 0x3 NOT CALLDATASIZE ADD SLT PUSH2 0x131 JUMPI PUSH1 0x1 SLOAD SWAP1 MLOAD PUSH1 0x1 PUSH1 0x1 PUSH1 0xA0 SHL SUB SWAP1 SWAP2 AND DUP2 MSTORE PUSH1 0x20 SWAP1 RETURN JUMPDEST POP DUP1 REVERT JUMPDEST POP CALLVALUE PUSH2 0x131 JUMPI PUSH1 0x20 CALLDATASIZE PUSH1 0x3 NOT ADD SLT PUSH2 0x131 JUMPI PUSH1 0x20 SWAP2 PUSH1 0xFF SWAP1 DUP3 SWAP1 PUSH1 0x1 PUSH1 0x1 PUSH1 0xA0 SHL SUB PUSH2 0x15F PUSH2 0x956 JUMP JUMPDEST AND DUP2 MSTORE PUSH1 0x8 DUP6 MSTORE KECCAK256 SLOAD AND SWAP1 MLOAD SWAP1 ISZERO ISZERO DUP2 MSTORE RETURN JUMPDEST POP CALLVALUE PUSH2 0x131 JUMPI PUSH1 0x20 SWAP1 PUSH2 0x18D PUSH2 0x187 CALLDATASIZE PUSH2 0x971 JUMP JUMPDEST SWAP2 PUSH2 0xA87 JUMP JUMPDEST SWAP1 MLOAD SWAP1 ISZERO ISZERO DUP2 MSTORE RETURN JUMPDEST POP CALLVALUE PUSH2 0x131 JUMPI PUSH1 0x20 CALLDATASIZE PUSH1 0x3 NOT ADD SLT PUSH2 0x131 JUMPI PUSH1 0x20 SWAP2 DUP2 SWAP1 PUSH1 0x1 PUSH1 0x1 PUSH1 0xA0 SHL SUB PUSH2 0x1BD PUSH2 0x956 JUMP JUMPDEST AND DUP2 MSTORE PUSH1 0x5 DUP5 MSTORE KECCAK256 SLOAD SWAP1 MLOAD SWAP1 DUP2 MSTORE RETURN JUMPDEST POP CALLVALUE PUSH2 0x131 JUMPI DUP1 PUSH1 0x3 NOT CALLDATASIZE ADD SLT PUSH2 0x131 JUMPI PUSH32 0xCB202A7781A1FA483D7062AC9B9E79F3E4EBC8DF0BD8DE7BE9BC2FC4AE6254F5 SWAP1 PUSH2 0x208 PUSH2 0x9B5 JUMP JUMPDEST PUSH2 0xFFFF PUSH2 0x213 PUSH2 0x9A6 JUMP JUMPDEST SWAP2 PUSH2 0x228 PUSH1 0x1 DUP1 PUSH1 0xA0 SHL SUB DUP8 SLOAD AND CALLER EQ PUSH2 0x9C6 JUMP JUMPDEST AND SWAP1 DUP2 DUP6 MSTORE PUSH1 0x6 PUSH1 0x20 MSTORE PUSH2 0x24A DUP2 DUP5 DUP8 KECCAK256 SWAP1 PUSH1 0xFF DUP1 NOT DUP4 SLOAD AND SWAP2 ISZERO ISZERO AND OR SWAP1 SSTORE JUMP JUMPDEST PUSH1 0x1 PUSH1 0xFF NOT PUSH1 0x7 SLOAD AND OR PUSH1 0x7 SSTORE DUP3 MLOAD SWAP2 DUP3 MSTORE ISZERO ISZERO PUSH1 0x20 DUP3 ADD MSTORE LOG1 DUP1 RETURN JUMPDEST POP CALLVALUE PUSH2 0x131 JUMPI DUP2 PUSH1 0x3 NOT CALLDATASIZE ADD SLT PUSH2 0x131 JUMPI PUSH1 0x20 SWAP1 PUSH1 0xFF PUSH1 0x7 SLOAD AND SWAP1 MLOAD SWAP1 ISZERO ISZERO DUP2 MSTORE RETURN JUMPDEST POP CALLVALUE PUSH2 0x131 JUMPI PUSH1 0x20 CALLDATASIZE PUSH1 0x3 NOT ADD SLT PUSH2 0x131 JUMPI PUSH1 0xFF DUP2 PUSH1 0x20 SWAP4 PUSH2 0xFFFF PUSH2 0x2AD PUSH2 0x9B5 JUMP JUMPDEST AND DUP2 MSTORE PUSH1 0x6 DUP6 MSTORE KECCAK256 SLOAD AND SWAP1 MLOAD SWAP1 ISZERO ISZERO DUP2 MSTORE RETURN JUMPDEST POP CALLVALUE PUSH2 0x131 JUMPI DUP1 PUSH1 0x3 NOT CALLDATASIZE ADD SLT PUSH2 0x131 JUMPI PUSH2 0x31B SWAP1 PUSH2 0x2DD PUSH2 0x956 JUMP JUMPDEST SWAP1 PUSH2 0x2E6 PUSH2 0x9A6 JUMP JUMPDEST DUP5 SLOAD SWAP1 SWAP3 PUSH1 0x1 PUSH1 0x1 PUSH1 0xA0 SHL SUB SWAP2 PUSH2 0x300 SWAP1 DUP4 AND CALLER EQ PUSH2 0x9C6 JUMP JUMPDEST AND DUP5 MSTORE PUSH1 0x8 PUSH1 0x20 MSTORE DUP4 KECCAK256 SWAP1 PUSH1 0xFF DUP1 NOT DUP4 SLOAD AND SWAP2 ISZERO ISZERO AND OR SWAP1 SSTORE JUMP JUMPDEST DUP1 RETURN JUMPDEST POP CALLVALUE PUSH2 0x131 JUMPI DUP2 PUSH1 0x3 NOT CALLDATASIZE ADD SLT PUSH2 0x131 JUMPI PUSH1 0x20 SWAP1 PUSH5 0xFFFFFFFFFF PUSH1 0x2 SLOAD PUSH1 0xA0 SHR AND SWAP1 MLOAD SWAP1 DUP2 MSTORE RETURN JUMPDEST POP CALLVALUE PUSH2 0x131 JUMPI DUP2 PUSH1 0x3 NOT CALLDATASIZE ADD SLT PUSH2 0x131 JUMPI SWAP1 SLOAD SWAP1 MLOAD PUSH1 0x1 PUSH1 0x1 PUSH1 0xA0 SHL SUB SWAP1 SWAP2 AND DUP2 MSTORE PUSH1 0x20 SWAP1 RETURN JUMPDEST SWAP2 SWAP1 POP CALLVALUE PUSH2 0x45E JUMPI DUP1 PUSH1 0x3 NOT CALLDATASIZE ADD SLT PUSH2 0x45E JUMPI PUSH2 0x388 PUSH2 0x956 JUMP JUMPDEST PUSH1 0x1 SLOAD PUSH1 0x24 CALLDATALOAD SWAP2 PUSH1 0x1 PUSH1 0x1 PUSH1 0xA0 SHL SUB SWAP2 PUSH2 0x3A5 SWAP1 DUP4 AND CALLER EQ PUSH2 0xE57 JUMP JUMPDEST AND SWAP1 DUP2 ISZERO ISZERO DUP1 DUP1 PUSH2 0x448 JUMPI JUMPDEST ISZERO PUSH2 0x418 JUMPI POP PUSH2 0x3CC SWAP1 DUP3 DUP7 MSTORE PUSH1 0x5 PUSH1 0x20 MSTORE DUP4 DUP7 KECCAK256 SLOAD PUSH2 0xE8F JUMP JUMPDEST SWAP2 DUP3 SWAP2 DUP6 MSTORE PUSH1 0x5 PUSH1 0x20 MSTORE DUP5 KECCAK256 SSTORE ISZERO DUP1 PUSH2 0x40E JUMPI JUMPDEST PUSH2 0x3E8 JUMPI POP DUP1 RETURN JUMPDEST DUP1 SLOAD PUSH1 0x0 NOT DUP2 ADD SWAP2 SWAP1 DUP3 GT PUSH2 0x3FB JUMPI SSTORE DUP1 RETURN JUMPDEST PUSH4 0x4E487B71 PUSH1 0xE0 SHL DUP4 MSTORE PUSH1 0x11 SWAP1 MSTORE PUSH1 0x24 DUP3 REVERT JUMPDEST POP DUP1 SLOAD ISZERO ISZERO PUSH2 0x3E0 JUMP JUMPDEST SWAP1 SWAP4 POP SWAP2 SWAP1 SWAP2 PUSH2 0x429 JUMPI JUMPDEST POP POP POP DUP1 RETURN JUMPDEST PUSH2 0x43E SWAP2 DUP5 MSTORE PUSH1 0x5 PUSH1 0x20 MSTORE DUP4 KECCAK256 SWAP2 DUP3 SLOAD PUSH2 0xE8F JUMP JUMPDEST SWAP1 SSTORE CODESIZE DUP1 DUP1 PUSH2 0x423 JUMP JUMPDEST POP DUP3 DUP7 MSTORE PUSH1 0x8 PUSH1 0x20 MSTORE PUSH1 0xFF DUP5 DUP8 KECCAK256 SLOAD AND ISZERO PUSH2 0x3B1 JUMP JUMPDEST DUP3 DUP1 REVERT JUMPDEST POP POP CALLVALUE PUSH2 0x131 JUMPI DUP2 PUSH1 0x3 NOT CALLDATASIZE ADD SLT PUSH2 0x131 JUMPI PUSH1 0x20 SWAP1 PUSH1 0x3 SLOAD SWAP1 MLOAD SWAP1 DUP2 MSTORE RETURN JUMPDEST SWAP2 SWAP1 POP CALLVALUE PUSH2 0x45E JUMPI PUSH2 0x492 CALLDATASIZE PUSH2 0x971 JUMP JUMPDEST SWAP2 PUSH1 0x1 DUP1 PUSH1 0xA0 SWAP6 SWAP4 SWAP6 SHL SUB DUP1 SWAP2 PUSH2 0x4AE DUP3 PUSH1 0x1 SLOAD AND CALLER EQ PUSH2 0xE57 JUMP JUMPDEST AND SWAP4 DUP5 ISZERO ISZERO DUP1 DUP1 PUSH2 0x661 JUMPI JUMPDEST ISZERO PUSH2 0x63F JUMPI POP DUP5 DUP8 MSTORE PUSH1 0x5 PUSH1 0x20 MSTORE PUSH2 0x4D5 DUP5 DUP5 DUP10 KECCAK256 SLOAD PUSH2 0xE8F JUMP JUMPDEST DUP6 DUP9 MSTORE PUSH1 0x5 PUSH1 0x20 MSTORE DUP1 DUP5 DUP10 KECCAK256 SSTORE ISZERO DUP1 PUSH2 0x635 JUMPI JUMPDEST PUSH2 0x60D JUMPI JUMPDEST AND SWAP4 DUP5 ISZERO ISZERO DUP1 DUP1 PUSH2 0x5F7 JUMPI JUMPDEST ISZERO PUSH2 0x5AE JUMPI POP DUP5 DUP7 MSTORE PUSH1 0x5 PUSH1 0x20 MSTORE DUP2 DUP7 KECCAK256 SLOAD PUSH2 0x516 DUP5 DUP3 PUSH2 0xEB2 JUMP JUMPDEST DUP7 DUP9 MSTORE PUSH1 0x5 PUSH1 0x20 MSTORE DUP4 DUP9 KECCAK256 SSTORE ISZERO DUP1 PUSH2 0x5A5 JUMPI JUMPDEST PUSH2 0x55D JUMPI JUMPDEST POP PUSH32 0xB3B962BA1261F3080E7D4F5F2002B0F8338C5BB41CDAB72866777FD7B9DC9B9E SWAP2 PUSH1 0x20 SWAP2 JUMPDEST MLOAD SWAP1 DUP2 MSTORE LOG3 DUP1 RETURN JUMPDEST DUP1 SLOAD SWAP1 PUSH1 0x1 DUP3 ADD DUP1 SWAP3 GT PUSH2 0x592 JUMPI SSTORE PUSH32 0xB3B962BA1261F3080E7D4F5F2002B0F8338C5BB41CDAB72866777FD7B9DC9B9E PUSH2 0x52E JUMP JUMPDEST PUSH4 0x4E487B71 PUSH1 0xE0 SHL DUP8 MSTORE PUSH1 0x11 SWAP1 MSTORE PUSH1 0x24 DUP7 REVERT JUMPDEST POP DUP3 ISZERO ISZERO PUSH2 0x529 JUMP JUMPDEST PUSH32 0xB3B962BA1261F3080E7D4F5F2002B0F8338C5BB41CDAB72866777FD7B9DC9B9E SWAP4 SWAP2 POP SWAP2 PUSH1 0x20 SWAP3 ISZERO PUSH2 0x555 JUMPI DUP6 DUP8 MSTORE PUSH1 0x5 DUP4 MSTORE DUP1 DUP8 KECCAK256 PUSH2 0x5F0 DUP4 DUP3 SLOAD PUSH2 0xEB2 JUMP JUMPDEST SWAP1 SSTORE PUSH2 0x555 JUMP JUMPDEST POP DUP6 DUP8 MSTORE PUSH1 0x8 PUSH1 0x20 MSTORE PUSH1 0xFF DUP4 DUP9 KECCAK256 SLOAD AND ISZERO PUSH2 0x4FA JUMP JUMPDEST DUP6 SLOAD PUSH1 0x0 NOT DUP2 ADD SWAP1 DUP2 GT PUSH2 0x622 JUMPI DUP7 SSTORE PUSH2 0x4EE JUMP JUMPDEST PUSH4 0x4E487B71 PUSH1 0xE0 SHL DUP9 MSTORE PUSH1 0x11 DUP8 MSTORE PUSH1 0x24 DUP9 REVERT JUMPDEST POP DUP6 SLOAD ISZERO ISZERO PUSH2 0x4E9 JUMP JUMPDEST ISZERO PUSH2 0x4EE JUMPI DUP5 DUP8 MSTORE PUSH1 0x5 PUSH1 0x20 MSTORE DUP3 DUP8 KECCAK256 PUSH2 0x65A DUP6 DUP3 SLOAD PUSH2 0xE8F JUMP JUMPDEST SWAP1 SSTORE PUSH2 0x4EE JUMP JUMPDEST POP DUP6 DUP9 MSTORE PUSH1 0x8 PUSH1 0x20 MSTORE PUSH1 0xFF DUP5 DUP10 KECCAK256 SLOAD AND ISZERO PUSH2 0x4BA JUMP JUMPDEST SWAP1 POP CALLVALUE PUSH2 0x45E JUMPI PUSH1 0x20 CALLDATASIZE PUSH1 0x3 NOT ADD SLT PUSH2 0x45E JUMPI PUSH32 0xD95F6C53E97F4296DD8ED1D779512E13C947410183D93CA8D54E5A913C205055 SWAP2 PUSH1 0x20 SWAP2 CALLDATALOAD SWAP1 PUSH2 0x6C5 PUSH1 0x1 DUP1 PUSH1 0xA0 SHL SUB DUP7 SLOAD AND CALLER EQ PUSH2 0x9C6 JUMP JUMPDEST DUP2 PUSH1 0x3 SSTORE MLOAD SWAP1 DUP2 MSTORE LOG1 DUP1 RETURN JUMPDEST POP POP CALLVALUE PUSH2 0x131 JUMPI DUP2 PUSH1 0x3 NOT CALLDATASIZE ADD SLT PUSH2 0x131 JUMPI PUSH1 0x2 SLOAD SWAP1 MLOAD PUSH1 0x1 PUSH1 0x1 PUSH1 0xA0 SHL SUB SWAP1 SWAP2 AND DUP2 MSTORE PUSH1 0x20 SWAP1 RETURN JUMPDEST SWAP1 POP CALLVALUE PUSH2 0x45E JUMPI DUP3 PUSH1 0x3 NOT CALLDATASIZE ADD SLT PUSH2 0x45E JUMPI PUSH1 0x20 SWAP3 POP SLOAD SWAP1 MLOAD SWAP1 DUP2 MSTORE RETURN JUMPDEST SWAP2 SWAP1 POP CALLVALUE PUSH2 0x45E JUMPI DUP1 PUSH1 0x3 NOT CALLDATASIZE ADD SLT PUSH2 0x45E JUMPI PUSH2 0x733 PUSH2 0x956 JUMP JUMPDEST PUSH1 0x1 SLOAD PUSH1 0x24 CALLDATALOAD SWAP3 SWAP2 PUSH1 0x1 PUSH1 0x1 PUSH1 0xA0 SHL SUB SWAP2 PUSH2 0x751 SWAP1 DUP4 AND CALLER EQ PUSH2 0xE57 JUMP JUMPDEST AND DUP1 ISZERO ISZERO DUP1 DUP1 PUSH2 0x7D4 JUMPI JUMPDEST ISZERO PUSH2 0x7B1 JUMPI POP DUP1 DUP6 MSTORE PUSH1 0x5 PUSH1 0x20 MSTORE DUP2 DUP6 KECCAK256 SLOAD SWAP2 PUSH2 0x779 DUP5 DUP5 PUSH2 0xEB2 JUMP JUMPDEST SWAP2 DUP7 MSTORE PUSH1 0x5 PUSH1 0x20 MSTORE DUP6 KECCAK256 SSTORE ISZERO SWAP1 DUP2 PUSH2 0x7A7 JUMPI JUMPDEST POP PUSH2 0x795 JUMPI POP DUP1 RETURN JUMPDEST DUP1 SLOAD SWAP1 PUSH1 0x1 DUP3 ADD DUP1 SWAP3 GT PUSH2 0x3FB JUMPI SSTORE DUP1 RETURN JUMPDEST SWAP1 POP ISZERO ISZERO CODESIZE PUSH2 0x78C JUMP JUMPDEST SWAP1 SWAP3 SWAP4 POP PUSH2 0x7BF JUMPI POP POP POP DUP1 RETURN JUMPDEST PUSH2 0x43E SWAP2 DUP5 MSTORE PUSH1 0x5 PUSH1 0x20 MSTORE DUP4 KECCAK256 SWAP2 DUP3 SLOAD PUSH2 0xEB2 JUMP JUMPDEST POP DUP2 DUP7 MSTORE PUSH1 0x8 PUSH1 0x20 MSTORE PUSH1 0xFF DUP4 DUP8 KECCAK256 SLOAD AND ISZERO PUSH2 0x75C JUMP JUMPDEST DUP4 CALLVALUE PUSH2 0x81C JUMPI DUP1 PUSH1 0x3 NOT CALLDATASIZE ADD SLT PUSH2 0x81C JUMPI PUSH2 0x80F PUSH1 0x1 DUP1 PUSH1 0xA0 SHL SUB DUP3 SLOAD AND CALLER EQ PUSH2 0x9C6 JUMP JUMPDEST PUSH1 0xFF NOT PUSH1 0x7 SLOAD AND PUSH1 0x7 SSTORE DUP1 RETURN JUMPDEST DUP1 REVERT JUMPDEST DUP4 CALLVALUE PUSH2 0x81C JUMPI PUSH1 0x20 CALLDATASIZE PUSH1 0x3 NOT ADD SLT PUSH2 0x81C JUMPI PUSH2 0x839 PUSH2 0x956 JUMP JUMPDEST DUP2 SLOAD PUSH1 0x1 PUSH1 0x1 PUSH1 0xA0 SHL SUB SWAP2 SWAP1 PUSH2 0x852 SWAP1 DUP4 AND CALLER EQ PUSH2 0x9C6 JUMP JUMPDEST AND PUSH2 0x85E DUP2 ISZERO ISZERO PUSH2 0x9FE JUMP JUMPDEST PUSH12 0xFFFFFFFFFFFFFFFFFFFFFFFF PUSH1 0xA0 SHL PUSH1 0x1 SLOAD AND OR PUSH1 0x1 SSTORE DUP1 RETURN JUMPDEST DUP4 CALLVALUE PUSH2 0x81C JUMPI PUSH1 0x20 CALLDATASIZE PUSH1 0x3 NOT ADD SLT PUSH2 0x81C JUMPI PUSH2 0x893 PUSH2 0x956 JUMP JUMPDEST DUP2 SLOAD SWAP1 PUSH1 0x1 PUSH1 0x1 PUSH1 0xA0 SHL SUB SWAP1 PUSH2 0x8AC CALLER DUP4 DUP6 AND EQ PUSH2 0x9C6 JUMP JUMPDEST AND SWAP1 PUSH2 0x8B9 DUP3 ISZERO ISZERO PUSH2 0x9FE JUMP JUMPDEST PUSH1 0x1 PUSH1 0x1 PUSH1 0xA0 SHL SUB NOT AND OR DUP2 SSTORE DUP1 RETURN JUMPDEST SWAP1 POP CALLVALUE PUSH2 0x45E JUMPI PUSH1 0x20 CALLDATASIZE PUSH1 0x3 NOT ADD SLT PUSH2 0x45E JUMPI CALLDATALOAD PUSH5 0xFFFFFFFFFF DUP2 AND DUP1 DUP3 SUB PUSH2 0x952 JUMPI PUSH32 0xD53BD5EE111E3581C8D6E609752A34E239CCDE43C217AC48733179FB229BBA6B SWAP3 PUSH1 0x20 SWAP3 PUSH2 0x925 PUSH1 0x1 DUP1 PUSH1 0xA0 SHL SUB DUP8 SLOAD AND CALLER EQ PUSH2 0x9C6 JUMP JUMPDEST PUSH1 0x2 DUP1 SLOAD PUSH5 0xFFFFFFFFFF PUSH1 0xA0 SHL NOT AND PUSH1 0xA0 SWAP3 SWAP1 SWAP3 SHL PUSH5 0xFFFFFFFFFF PUSH1 0xA0 SHL AND SWAP2 SWAP1 SWAP2 OR SWAP1 SSTORE MLOAD SWAP1 DUP2 MSTORE LOG1 DUP1 RETURN JUMPDEST DUP4 DUP1 REVERT JUMPDEST PUSH1 0x4 CALLDATALOAD SWAP1 PUSH1 0x1 PUSH1 0x1 PUSH1 0xA0 SHL SUB DUP3 AND DUP3 SUB PUSH2 0x96C JUMPI JUMP JUMPDEST PUSH1 0x0 DUP1 REVERT JUMPDEST PUSH1 0x60 SWAP1 PUSH1 0x3 NOT ADD SLT PUSH2 0x96C JUMPI PUSH1 0x1 PUSH1 0x1 PUSH1 0xA0 SHL SUB SWAP1 PUSH1 0x4 CALLDATALOAD DUP3 DUP2 AND DUP2 SUB PUSH2 0x96C JUMPI SWAP2 PUSH1 0x24 CALLDATALOAD SWAP1 DUP2 AND DUP2 SUB PUSH2 0x96C JUMPI SWAP1 PUSH1 0x44 CALLDATALOAD SWAP1 JUMP JUMPDEST PUSH1 0x24 CALLDATALOAD SWAP1 DUP2 ISZERO ISZERO DUP3 SUB PUSH2 0x96C JUMPI JUMP JUMPDEST PUSH1 0x4 CALLDATALOAD SWAP1 PUSH2 0xFFFF DUP3 AND DUP3 SUB PUSH2 0x96C JUMPI JUMP JUMPDEST ISZERO PUSH2 0x9CD JUMPI JUMP JUMPDEST PUSH1 0x40 MLOAD PUSH3 0x461BCD PUSH1 0xE5 SHL DUP2 MSTORE PUSH1 0x20 PUSH1 0x4 DUP3 ADD MSTORE PUSH1 0x9 PUSH1 0x24 DUP3 ADD MSTORE PUSH9 0x3737BA1037BBB732B9 PUSH1 0xB9 SHL PUSH1 0x44 DUP3 ADD MSTORE PUSH1 0x64 SWAP1 REVERT JUMPDEST ISZERO PUSH2 0xA05 JUMPI JUMP JUMPDEST PUSH1 0x64 PUSH1 0x40 MLOAD PUSH3 0x461BCD PUSH1 0xE5 SHL DUP2 MSTORE PUSH1 0x20 PUSH1 0x4 DUP3 ADD MSTORE PUSH1 0x4 PUSH1 0x24 DUP3 ADD MSTORE PUSH4 0x7A65726F PUSH1 0xE0 SHL PUSH1 0x44 DUP3 ADD MSTORE REVERT JUMPDEST SWAP1 PUSH1 0x1F DUP1 NOT SWAP2 ADD AND DUP2 ADD SWAP1 DUP2 LT PUSH8 0xFFFFFFFFFFFFFFFF DUP3 GT OR PUSH2 0xA52 JUMPI PUSH1 0x40 MSTORE JUMP JUMPDEST PUSH4 0x4E487B71 PUSH1 0xE0 SHL PUSH1 0x0 MSTORE PUSH1 0x41 PUSH1 0x4 MSTORE PUSH1 0x24 PUSH1 0x0 REVERT JUMPDEST MLOAD SWAP1 DUP2 ISZERO ISZERO DUP3 SUB PUSH2 0x96C JUMPI JUMP JUMPDEST MLOAD SWAP1 PUSH5 0xFFFFFFFFFF DUP3 AND DUP3 SUB PUSH2 0x96C JUMPI JUMP JUMPDEST PUSH1 0x1 PUSH1 0x1 PUSH1 0xA0 SHL SUB SWAP2 SWAP1 DUP3 AND DUP1 ISZERO ISZERO SWAP1 DUP2 DUP1 PUSH2 0xE4C JUMPI JUMPDEST DUP1 PUSH2 0xE33 JUMPI JUMPDEST DUP1 PUSH2 0xE18 JUMPI JUMPDEST PUSH2 0xDE7 JUMPI JUMPDEST DUP2 PUSH2 0xDCC JUMPI JUMPDEST DUP2 PUSH2 0xD58 JUMPI JUMPDEST POP PUSH2 0xBCA JUMPI DUP2 AND SWAP2 DUP3 ISZERO ISZERO SWAP2 DUP3 DUP1 PUSH2 0xD3F JUMPI JUMPDEST DUP1 PUSH2 0xCC1 JUMPI JUMPDEST PUSH2 0xCB8 JUMPI DUP3 DUP1 PUSH2 0xC9F JUMPI JUMPDEST DUP1 PUSH2 0xC93 JUMPI JUMPDEST PUSH2 0xB73 JUMPI JUMPDEST POP PUSH1 0x3 SLOAD SWAP3 DUP4 ISZERO ISZERO SWAP3 DUP4 PUSH2 0xB6B JUMPI JUMPDEST POP DUP3 PUSH2 0xB50 JUMPI JUMPDEST DUP3 PUSH2 0xB37 JUMPI JUMPDEST POP DUP2 PUSH2 0xB2D JUMPI JUMPDEST POP PUSH2 0xB19 JUMPI JUMPDEST POP PUSH1 0x1 SWAP1 JUMP JUMPDEST PUSH1 0x4 SLOAD LT ISZERO PUSH2 0xB28 JUMPI CODESIZE PUSH2 0xB13 JUMP JUMPDEST PUSH1 0x0 SWAP1 JUMP JUMPDEST SWAP1 POP ISZERO ISZERO CODESIZE PUSH2 0xB0D JUMP JUMPDEST SWAP1 SWAP2 POP PUSH1 0x0 MSTORE PUSH1 0x5 PUSH1 0x20 MSTORE PUSH1 0x40 PUSH1 0x0 KECCAK256 SLOAD ISZERO SWAP1 CODESIZE PUSH2 0xB06 JUMP JUMPDEST DUP1 SWAP3 POP PUSH1 0x0 MSTORE PUSH1 0x8 PUSH1 0x20 MSTORE PUSH1 0xFF PUSH1 0x40 PUSH1 0x0 KECCAK256 SLOAD AND ISZERO SWAP2 PUSH2 0xB00 JUMP JUMPDEST SWAP3 POP CODESIZE PUSH2 0xAF9 JUMP JUMPDEST PUSH1 0x2 SLOAD AND PUSH1 0x24 PUSH1 0xA0 PUSH1 0x40 SWAP3 DUP4 MLOAD SWAP3 DUP4 DUP1 SWAP3 PUSH4 0x631A2B13 PUSH1 0xE1 SHL DUP3 MSTORE DUP10 PUSH1 0x4 DUP4 ADD MSTORE GAS STATICCALL SWAP1 DUP2 ISZERO PUSH2 0xC88 JUMPI PUSH1 0x0 SWAP2 PUSH2 0xBD2 JUMPI JUMPDEST POP SWAP1 PUSH2 0xFFFF PUSH1 0x20 PUSH1 0xFF SWAP4 ADD MLOAD AND PUSH1 0x0 MSTORE PUSH1 0x6 PUSH1 0x20 MSTORE PUSH1 0x0 KECCAK256 SLOAD AND ISZERO PUSH2 0xBCA JUMPI CODESIZE PUSH2 0xAEA JUMP JUMPDEST POP POP POP PUSH1 0x0 SWAP1 JUMP JUMPDEST PUSH1 0xA0 DUP2 RETURNDATASIZE DUP3 GT PUSH2 0xC80 JUMPI JUMPDEST DUP2 PUSH2 0xBEA PUSH1 0xA0 SWAP4 DUP4 PUSH2 0xA30 JUMP JUMPDEST DUP2 ADD SUB SLT PUSH2 0x131 JUMPI DUP3 MLOAD SWAP2 PUSH1 0xA0 DUP4 ADD DUP4 DUP2 LT PUSH8 0xFFFFFFFFFFFFFFFF DUP3 GT OR PUSH2 0xC6C JUMPI DUP5 MSTORE PUSH2 0xC17 DUP3 PUSH2 0xA68 JUMP JUMPDEST DUP4 MSTORE PUSH1 0x20 DUP3 ADD MLOAD SWAP1 PUSH2 0xFFFF DUP3 AND DUP3 SUB PUSH2 0x81C JUMPI POP DUP3 PUSH1 0x80 PUSH2 0xFFFF SWAP4 PUSH1 0x20 SWAP4 DUP5 PUSH1 0xFF SWAP9 SWAP8 ADD MSTORE PUSH2 0xC47 DUP7 DUP3 ADD PUSH2 0xA75 JUMP JUMPDEST DUP7 DUP5 ADD MSTORE PUSH2 0xC57 PUSH1 0x60 DUP3 ADD PUSH2 0xA75 JUMP JUMPDEST PUSH1 0x60 DUP5 ADD MSTORE ADD MLOAD PUSH1 0x80 DUP3 ADD MSTORE SWAP3 SWAP4 POP POP PUSH2 0xBA5 JUMP JUMPDEST PUSH4 0x4E487B71 PUSH1 0xE0 SHL DUP3 MSTORE PUSH1 0x41 PUSH1 0x4 MSTORE PUSH1 0x24 DUP3 REVERT JUMPDEST RETURNDATASIZE SWAP2 POP PUSH2 0xBDD JUMP JUMPDEST DUP3 MLOAD RETURNDATASIZE PUSH1 0x0 DUP3 RETURNDATACOPY RETURNDATASIZE SWAP1 REVERT JUMPDEST POP PUSH1 0xFF PUSH1 0x7 SLOAD AND PUSH2 0xAE5 JUMP JUMPDEST POP DUP4 PUSH1 0x0 MSTORE PUSH1 0x8 PUSH1 0x20 MSTORE PUSH1 0xFF PUSH1 0x40 PUSH1 0x0 KECCAK256 SLOAD AND ISZERO PUSH2 0xADF JUMP JUMPDEST POP POP POP POP PUSH1 0x0 SWAP1 JUMP JUMPDEST POP PUSH1 0x24 PUSH1 0x20 DUP3 PUSH1 0x2 SLOAD AND PUSH1 0x40 MLOAD SWAP3 DUP4 DUP1 SWAP3 PUSH4 0xB9209E33 PUSH1 0xE0 SHL DUP3 MSTORE DUP10 PUSH1 0x4 DUP4 ADD MSTORE GAS STATICCALL SWAP1 DUP2 ISZERO PUSH2 0xD33 JUMPI PUSH1 0x0 SWAP2 PUSH2 0xCFA JUMPI JUMPDEST POP ISZERO PUSH2 0xAD4 JUMP JUMPDEST SWAP1 PUSH1 0x20 DUP3 RETURNDATASIZE DUP3 GT PUSH2 0xD2B JUMPI JUMPDEST DUP2 PUSH2 0xD13 PUSH1 0x20 SWAP4 DUP4 PUSH2 0xA30 JUMP JUMPDEST DUP2 ADD SUB SLT PUSH2 0x81C JUMPI POP PUSH2 0xD25 SWAP1 PUSH2 0xA68 JUMP JUMPDEST CODESIZE PUSH2 0xCF3 JUMP JUMPDEST RETURNDATASIZE SWAP2 POP PUSH2 0xD06 JUMP JUMPDEST PUSH1 0x40 MLOAD RETURNDATASIZE PUSH1 0x0 DUP3 RETURNDATACOPY RETURNDATASIZE SWAP1 REVERT JUMPDEST POP DUP4 PUSH1 0x0 MSTORE PUSH1 0x8 PUSH1 0x20 MSTORE PUSH1 0xFF PUSH1 0x40 PUSH1 0x0 KECCAK256 SLOAD AND ISZERO PUSH2 0xACE JUMP JUMPDEST SWAP1 POP PUSH1 0x20 DUP4 PUSH1 0x2 SLOAD AND SWAP2 PUSH1 0x24 PUSH1 0x40 MLOAD DUP1 SWAP5 DUP2 SWAP4 PUSH4 0xB9209E33 PUSH1 0xE0 SHL DUP4 MSTORE PUSH1 0x4 DUP4 ADD MSTORE GAS STATICCALL SWAP1 DUP2 ISZERO PUSH2 0xD33 JUMPI PUSH1 0x0 SWAP2 PUSH2 0xD93 JUMPI JUMPDEST POP ISZERO CODESIZE PUSH2 0xABB JUMP JUMPDEST SWAP1 PUSH1 0x20 DUP3 RETURNDATASIZE DUP3 GT PUSH2 0xDC4 JUMPI JUMPDEST DUP2 PUSH2 0xDAC PUSH1 0x20 SWAP4 DUP4 PUSH2 0xA30 JUMP JUMPDEST DUP2 ADD SUB SLT PUSH2 0x81C JUMPI POP PUSH2 0xDBE SWAP1 PUSH2 0xA68 JUMP JUMPDEST CODESIZE PUSH2 0xD8B JUMP JUMPDEST RETURNDATASIZE SWAP2 POP PUSH2 0xD9F JUMP JUMPDEST DUP1 SWAP2 POP PUSH1 0x0 MSTORE PUSH1 0x8 PUSH1 0x20 MSTORE PUSH1 0xFF PUSH1 0x40 PUSH1 0x0 KECCAK256 SLOAD AND ISZERO SWAP1 PUSH2 0xAB5 JUMP JUMPDEST PUSH5 0xFFFFFFFFFF PUSH1 0x2 SLOAD PUSH1 0xA0 SHR AND DUP1 ISZERO ISZERO SWAP1 DUP2 PUSH2 0xE0E JUMPI JUMPDEST POP ISZERO PUSH2 0xAAF JUMPI POP POP POP POP POP PUSH1 0x0 SWAP1 JUMP JUMPDEST SWAP1 POP TIMESTAMP LT CODESIZE PUSH2 0xDFE JUMP JUMPDEST POP DUP4 DUP4 AND PUSH1 0x0 MSTORE PUSH1 0x8 PUSH1 0x20 MSTORE PUSH1 0xFF PUSH1 0x40 PUSH1 0x0 KECCAK256 SLOAD AND ISZERO PUSH2 0xAAA JUMP JUMPDEST POP DUP1 PUSH1 0x0 MSTORE PUSH1 0x8 PUSH1 0x20 MSTORE PUSH1 0xFF PUSH1 0x40 PUSH1 0x0 KECCAK256 SLOAD AND ISZERO PUSH2 0xAA4 JUMP JUMPDEST POP DUP4 DUP4 AND ISZERO ISZERO PUSH2 0xA9E JUMP JUMPDEST ISZERO PUSH2 0xE5E JUMPI JUMP JUMPDEST PUSH1 0x40 MLOAD PUSH3 0x461BCD PUSH1 0xE5 SHL DUP2 MSTORE PUSH1 0x20 PUSH1 0x4 DUP3 ADD MSTORE PUSH1 0x9 PUSH1 0x24 DUP3 ADD MSTORE PUSH9 0x3737BA103A37B5B2B7 PUSH1 0xB9 SHL PUSH1 0x44 DUP3 ADD MSTORE PUSH1 0x64 SWAP1 REVERT JUMPDEST SWAP2 SWAP1 DUP3 SUB SWAP2 DUP3 GT PUSH2 0xE9C JUMPI JUMP JUMPDEST PUSH4 0x4E487B71 PUSH1 0xE0 SHL PUSH1 0x0 MSTORE PUSH1 0x11 PUSH1 0x4 MSTORE PUSH1 0x24 PUSH1 0x0 REVERT JUMPDEST SWAP2 SWAP1 DUP3 ADD DUP1 SWAP3 GT PUSH2 0xE9C JUMPI JUMP INVALID LOG2 PUSH5 0x6970667358 0x22 SLT KECCAK256 SELFDESTRUCT 0xD1 CODESIZE JUMPI SWAP11 0xAB JUMPDEST POP 0xD9 DUP9 SWAP10 NOT DUP1 SWAP2 EXTCODESIZE EXTCODECOPY 0x4E 0xD1 ORIGIN JUMPI LOG1 DUP7 0xDE 0xF 0xE0 0xA7 PUSH18 0x23A2B95D1764736F6C634300081400330000 "},"methodIdentifiers":{"allowedCountries(uint16)":"b1ff421e","balancesCache(address)":"dc3eb2b7","canTransfer(address,address,uint256)":"e46638e6","countryAllowlistActive()":"bb50af6f","created(address,uint256)":"5f8dead3","destroyed(address,uint256)":"8d2ea772","disableCountryAllowlist()":"40a1a1cb","exempt(address)":"f1320af2","holdersCount()":"6b4ed21b","lockupUntil()":"9791484c","maxHolders()":"8bf5c4ee","owner()":"8da5cb5b","registry()":"7b103999","setCountryAllowed(uint16,bool)":"bff9c1c4","setExempt(address,bool)":"9fde54f5","setLockup(uint40)":"06cb03f7","setMaxHolders(uint256)":"8365066b","setOwner(address)":"13af4035","setToken(address)":"144fa6d7","token()":"fc0c546a","transferred(address,address,uint256)":"8baf29b4"}}}}}