{"contracts/vault/RevenueShareVault.sol":{"RevenueShareVault":{"abi":[{"inputs":[{"internalType":"address","name":"_owner","type":"address"},{"internalType":"address","name":"_stoToken","type":"address"},{"internalType":"address","name":"_settlement","type":"address"}],"stateMutability":"nonpayable","type":"constructor"},{"anonymous":false,"inputs":[{"indexed":true,"internalType":"address","name":"holder","type":"address"},{"indexed":true,"internalType":"uint256","name":"distributionId","type":"uint256"},{"indexed":false,"internalType":"uint256","name":"amount","type":"uint256"}],"name":"Claimed","type":"event"},{"anonymous":false,"inputs":[{"indexed":true,"internalType":"uint256","name":"id","type":"uint256"},{"indexed":false,"internalType":"uint256","name":"amount","type":"uint256"},{"indexed":false,"internalType":"uint256","name":"totalSupplyAt","type":"uint256"}],"name":"Distributed","type":"event"},{"inputs":[{"internalType":"uint256","name":"distributionId","type":"uint256"}],"name":"claim","outputs":[],"stateMutability":"nonpayable","type":"function"},{"inputs":[{"internalType":"uint256[]","name":"ids","type":"uint256[]"}],"name":"claimMany","outputs":[],"stateMutability":"nonpayable","type":"function"},{"inputs":[{"internalType":"uint256","name":"amount","type":"uint256"}],"name":"distribute","outputs":[],"stateMutability":"nonpayable","type":"function"},{"inputs":[{"internalType":"uint256","name":"","type":"uint256"}],"name":"distributions","outputs":[{"internalType":"uint256","name":"amount","type":"uint256"},{"internalType":"uint256","name":"totalSupplyAt","type":"uint256"},{"internalType":"uint256","name":"claimed","type":"uint256"},{"internalType":"uint40","name":"timestamp","type":"uint40"}],"stateMutability":"view","type":"function"},{"inputs":[],"name":"distributionsCount","outputs":[{"internalType":"uint256","name":"","type":"uint256"}],"stateMutability":"view","type":"function"},{"inputs":[{"internalType":"address","name":"","type":"address"},{"internalType":"uint256","name":"","type":"uint256"}],"name":"hasClaimed","outputs":[{"internalType":"bool","name":"","type":"bool"}],"stateMutability":"view","type":"function"},{"inputs":[],"name":"owner","outputs":[{"internalType":"address","name":"","type":"address"}],"stateMutability":"view","type":"function"},{"inputs":[{"internalType":"address","name":"newOwner","type":"address"}],"name":"setOwner","outputs":[],"stateMutability":"nonpayable","type":"function"},{"inputs":[],"name":"settlement","outputs":[{"internalType":"contract IERC20Revenue","name":"","type":"address"}],"stateMutability":"view","type":"function"},{"inputs":[],"name":"stoToken","outputs":[{"internalType":"contract IStoTokenSnapshot","name":"","type":"address"}],"stateMutability":"view","type":"function"},{"inputs":[{"internalType":"uint256","name":"distributionId","type":"uint256"},{"internalType":"address","name":"to","type":"address"}],"name":"sweepStale","outputs":[],"stateMutability":"nonpayable","type":"function"}],"evm":{"bytecode":{"linkReferences":{},"object":"60c03461013357601f610f6238819003918201601f19168301916001600160401b0383118484101761013857808492606094604052833981010312610133576100478161014e565b9061006060406100596020840161014e565b920161014e565b6001600160a01b039290919083169081151580610128575b8061011d575b156100f257600080546001600160a01b03191690921790915582166080521660a052604051610dff9081610163823960805181818161034b015281816105b5015281816109200152610b66015260a05181818161017f01528181610327015281816106150152818161082a01526109dd0152f35b606460405162461bcd60e51b81526020600482015260046024820152637a65726f60e01b6044820152fd5b50838316151561007e565b508381161515610078565b600080fd5b634e487b7160e01b600052604160045260246000fd5b51906001600160a01b03821682036101335756fe6040608081526004908136101561001557600080fd5b600091823560e01c90816313af403514610b9557816313ee6b9714610b51578163379607f5146108b85781634487d3df1461085957816351160630146108155781638da5cb5b146107ed57816391c05b0b1461056b578163925489a8146102c8578163b293109614610281578163d75c1763146100bd575063daafd1b61461009c57600080fd5b346100b957816003193601126100b9576020906001549051908152f35b5080fd5b90503461027d578160031936011261027d576001600160a01b03602435818116808203610279576100fd906100f6848854163314610c50565b1515610c88565b6101078335610c00565b509264ffffffffff6303c26700816003870154160181811161026657164211156102375760028454940193845494858203958287116102245782146101f75755845163a9059cbb60e01b81526001600160a01b03909216908201908152602081810194909452909291839182908790829060400103927f0000000000000000000000000000000000000000000000000000000000000000165af19081156101eb576101ba925083916101bd575b50610d0a565b80f35b6101de915060203d81116101e4575b6101d68183610cba565b810190610cf2565b386101b4565b503d6101cc565b505051903d90823e3d90fd5b865162461bcd60e51b815260208185015260076024820152666e6f7468696e6760c81b6044820152606490fd5b634e487b7160e01b895260118452602489fd5b606490602086519162461bcd60e51b83528201526009602482015268746f6f206561726c7960b81b6044820152fd5b634e487b7160e01b885260118352602488fd5b8580fd5b8280fd5b5050346100b957806003193601126100b95760209160ff9082906001600160a01b036102ab610be5565b168152600285528181206024358252855220541690519015158152f35b9190503461027d576020918260031936011261053c5780359167ffffffffffffffff908184116102795736602385011215610279578383013591821161027957602494600591368785851b880101116105675792946001600160a01b037f00000000000000000000000000000000000000000000000000000000000000008116947f000000000000000000000000000000000000000000000000000000000000000090911693909190895b88811061037e578a80f35b8981831b840101358a8c6001805484101561055e573382528b8a8a6002928382528b8620888752825260ff8c87205416610551576103bb88610c00565b50968c51809481936370a0823160e01b835233908301525afa908115610547578e8c938f92938d94889161050b575b5080156104fc576103ff610409918a54610d41565b878a015490610d6a565b9788156104fc5761046b968995338a52838852808a208c8b52885289209060ff198254161790550161043c848254610d8a565b90558b5163a9059cbb60e01b815233918101918252602082019390935291938492839187918391604090910190565b03925af19182156104f15790610486926104d4575b50610d97565b85519081527f987d620f307ff6b94d58743cb7a7509f24071586a77759b77c2d4e29f75a2f9a873392a35b60001981146104c257600101610373565b634e487b7160e01b8b5260118852898bfd5b6104eb9150893d8b116101e4576101d68183610cba565b38610480565b8851903d90823e3d90fd5b505050505050505050506104b1565b945050938092508391503d8311610540575b6105278183610cba565b8101031261053c578c8e8c938c9351386103ea565b8380fd5b503d61051d565b8a513d86823e3d90fd5b50505050505050506104b1565b505050506104b1565b8780fd5b8383346100b9576020908160031936011261027d57833560018060a01b03610597818654163314610c50565b6105a2821515610c88565b82516318160ddd60e01b815290848288817f000000000000000000000000000000000000000000000000000000000000000085165afa9182156107855786926107be575b50811561078f5784869160648651809481936323b872dd60e01b8352338d8401523060248401528860448401527f0000000000000000000000000000000000000000000000000000000000000000165af1908115610785579061064f9187916107685750610d0a565b82516080810181811067ffffffffffffffff82111761075557845282815284810182815284820191878352606081019264ffffffffff92834216855260015468010000000000000000811015610742578060016106af9201600155610c00565b939093610730579060039392915183555160018301555160028201550191511664ffffffffff1982541617905560015493600019850194851161071d577fc5d35a65af09b3042394b742529d10f7fbf9a37294d6b13e4d63d06f9909a15b949596508351928352820152a280f35b634e487b7160e01b865260118752602486fd5b634e487b7160e01b8b528a8c5260248bfd5b634e487b7160e01b8b5260418c5260248bfd5b634e487b7160e01b875260418852602487fd5b61077f9150863d88116101e4576101d68183610cba565b886101b4565b84513d88823e3d90fd5b835162461bcd60e51b815280880186905260096024820152686e6f20737570706c7960b81b6044820152606490fd5b9091508481813d83116107e6575b6107d68183610cba565b81010312610279575190876105e6565b503d6107cc565b5050346100b957816003193601126100b957905490516001600160a01b039091168152602090f35b5050346100b957816003193601126100b957517f00000000000000000000000000000000000000000000000000000000000000006001600160a01b03168152602090f35b90503461027d57602036600319011261027d5735916001548310156108b55750610884608092610c00565b509081549160018101549164ffffffffff600360028401549301541692815194855260208501528301526060820152f35b80fd5b90503461027d5760208060031936011261053c57813592600154841015610b275733855260028252808520848652825260ff8186205416610af4576108fc84610c00565b5081516370a0823160e01b8152338186015290936001600160a01b039184816024817f000000000000000000000000000000000000000000000000000000000000000087165afa908115610aea578891610abd575b508015610a8d57610966610971918754610d41565b600187015490610d6a565b948515610a65576109d992859260028893338c52818652878c208b8d528652878c20600160ff19825416179055016109aa848254610d8a565b9055855163a9059cbb60e01b81523391810191825260208201939093529193849283918b918391604090910190565b03927f0000000000000000000000000000000000000000000000000000000000000000165af1908115610a5b577f987d620f307ff6b94d58743cb7a7509f24071586a77759b77c2d4e29f75a2f9a939291610a3a918891610a445750610d97565b519283523392a380f35b6104eb9150843d86116101e4576101d68183610cba565b82513d88823e3d90fd5b6064858386519162461bcd60e51b835281830152602482015263191d5cdd60e21b6044820152fd5b835162461bcd60e51b8152808301869052600a6024820152696e6f2062616c616e636560b01b6044820152606490fd5b90508481813d8311610ae3575b610ad48183610cba565b81010312610567575138610951565b503d610aca565b84513d8a823e3d90fd5b5162461bcd60e51b815291820152600f60248201526e185b1c9958591e4818db185a5b5959608a1b604482015260649150fd5b5162461bcd60e51b8152918201526006602482015265189859081a5960d21b604482015260649150fd5b5050346100b957816003193601126100b957517f00000000000000000000000000000000000000000000000000000000000000006001600160a01b03168152602090f35b83346108b55760203660031901126108b557610baf610be5565b8154906001600160a01b0390610bc83383851614610c50565b1690610bd5821515610c88565b6001600160a01b03191617815580f35b600435906001600160a01b0382168203610bfb57565b600080fd5b600154811015610c3a57600160005260021b7fb10e2d527612073b26eecdfd717e6a320cf44b4afac2b0732d9fcbe2b7fa0cf60190600090565b634e487b7160e01b600052603260045260246000fd5b15610c5757565b60405162461bcd60e51b81526020600482015260096024820152683737ba1037bbb732b960b91b6044820152606490fd5b15610c8f57565b606460405162461bcd60e51b81526020600482015260046024820152637a65726f60e01b6044820152fd5b90601f8019910116810190811067ffffffffffffffff821117610cdc57604052565b634e487b7160e01b600052604160045260246000fd5b90816020910312610bfb57518015158103610bfb5790565b15610d1157565b60405162461bcd60e51b81526020600482015260086024820152673a3930b739b332b960c11b6044820152606490fd5b81810292918115918404141715610d5457565b634e487b7160e01b600052601160045260246000fd5b8115610d74570490565b634e487b7160e01b600052601260045260246000fd5b91908201809211610d5457565b15610d9e57565b60405162461bcd60e51b815260206004820152600360248201526270617960e81b6044820152606490fdfea2646970667358221220ca901fa82ad7553bd5f97c3ac80fec56060601f16aa0fba25f21c9f9ce67255964736f6c63430008140033","opcodes":"PUSH1 0xC0 CALLVALUE PUSH2 0x133 JUMPI PUSH1 0x1F PUSH2 0xF62 CODESIZE DUP2 SWAP1 SUB SWAP2 DUP3 ADD PUSH1 0x1F NOT AND DUP4 ADD SWAP2 PUSH1 0x1 PUSH1 0x1 PUSH1 0x40 SHL SUB DUP4 GT DUP5 DUP5 LT OR PUSH2 0x138 JUMPI DUP1 DUP5 SWAP3 PUSH1 0x60 SWAP5 PUSH1 0x40 MSTORE DUP4 CODECOPY DUP2 ADD SUB SLT PUSH2 0x133 JUMPI PUSH2 0x47 DUP2 PUSH2 0x14E JUMP JUMPDEST SWAP1 PUSH2 0x60 PUSH1 0x40 PUSH2 0x59 PUSH1 0x20 DUP5 ADD PUSH2 0x14E JUMP JUMPDEST SWAP3 ADD PUSH2 0x14E JUMP JUMPDEST PUSH1 0x1 PUSH1 0x1 PUSH1 0xA0 SHL SUB SWAP3 SWAP1 SWAP2 SWAP1 DUP4 AND SWAP1 DUP2 ISZERO ISZERO DUP1 PUSH2 0x128 JUMPI JUMPDEST DUP1 PUSH2 0x11D JUMPI JUMPDEST ISZERO PUSH2 0xF2 JUMPI PUSH1 0x0 DUP1 SLOAD PUSH1 0x1 PUSH1 0x1 PUSH1 0xA0 SHL SUB NOT AND SWAP1 SWAP3 OR SWAP1 SWAP2 SSTORE DUP3 AND PUSH1 0x80 MSTORE AND PUSH1 0xA0 MSTORE PUSH1 0x40 MLOAD PUSH2 0xDFF SWAP1 DUP2 PUSH2 0x163 DUP3 CODECOPY PUSH1 0x80 MLOAD DUP2 DUP2 DUP2 PUSH2 0x34B ADD MSTORE DUP2 DUP2 PUSH2 0x5B5 ADD MSTORE DUP2 DUP2 PUSH2 0x920 ADD MSTORE PUSH2 0xB66 ADD MSTORE PUSH1 0xA0 MLOAD DUP2 DUP2 DUP2 PUSH2 0x17F ADD MSTORE DUP2 DUP2 PUSH2 0x327 ADD MSTORE DUP2 DUP2 PUSH2 0x615 ADD MSTORE DUP2 DUP2 PUSH2 0x82A ADD MSTORE PUSH2 0x9DD ADD MSTORE RETURN JUMPDEST PUSH1 0x64 PUSH1 0x40 MLOAD PUSH3 0x461BCD PUSH1 0xE5 SHL DUP2 MSTORE PUSH1 0x20 PUSH1 0x4 DUP3 ADD MSTORE PUSH1 0x4 PUSH1 0x24 DUP3 ADD MSTORE PUSH4 0x7A65726F PUSH1 0xE0 SHL PUSH1 0x44 DUP3 ADD MSTORE REVERT JUMPDEST POP DUP4 DUP4 AND ISZERO ISZERO PUSH2 0x7E JUMP JUMPDEST POP DUP4 DUP2 AND ISZERO ISZERO PUSH2 0x78 JUMP JUMPDEST PUSH1 0x0 DUP1 REVERT JUMPDEST PUSH4 0x4E487B71 PUSH1 0xE0 SHL PUSH1 0x0 MSTORE PUSH1 0x41 PUSH1 0x4 MSTORE PUSH1 0x24 PUSH1 0x0 REVERT JUMPDEST MLOAD SWAP1 PUSH1 0x1 PUSH1 0x1 PUSH1 0xA0 SHL SUB DUP3 AND DUP3 SUB PUSH2 0x133 JUMPI JUMP INVALID PUSH1 0x40 PUSH1 0x80 DUP2 MSTORE PUSH1 0x4 SWAP1 DUP2 CALLDATASIZE LT ISZERO PUSH2 0x15 JUMPI PUSH1 0x0 DUP1 REVERT JUMPDEST PUSH1 0x0 SWAP2 DUP3 CALLDATALOAD PUSH1 0xE0 SHR SWAP1 DUP2 PUSH4 0x13AF4035 EQ PUSH2 0xB95 JUMPI DUP2 PUSH4 0x13EE6B97 EQ PUSH2 0xB51 JUMPI DUP2 PUSH4 0x379607F5 EQ PUSH2 0x8B8 JUMPI DUP2 PUSH4 0x4487D3DF EQ PUSH2 0x859 JUMPI DUP2 PUSH4 0x51160630 EQ PUSH2 0x815 JUMPI DUP2 PUSH4 0x8DA5CB5B EQ PUSH2 0x7ED JUMPI DUP2 PUSH4 0x91C05B0B EQ PUSH2 0x56B JUMPI DUP2 PUSH4 0x925489A8 EQ PUSH2 0x2C8 JUMPI DUP2 PUSH4 0xB2931096 EQ PUSH2 0x281 JUMPI DUP2 PUSH4 0xD75C1763 EQ PUSH2 0xBD JUMPI POP PUSH4 0xDAAFD1B6 EQ PUSH2 0x9C JUMPI PUSH1 0x0 DUP1 REVERT JUMPDEST CALLVALUE PUSH2 0xB9 JUMPI DUP2 PUSH1 0x3 NOT CALLDATASIZE ADD SLT PUSH2 0xB9 JUMPI PUSH1 0x20 SWAP1 PUSH1 0x1 SLOAD SWAP1 MLOAD SWAP1 DUP2 MSTORE RETURN JUMPDEST POP DUP1 REVERT JUMPDEST SWAP1 POP CALLVALUE PUSH2 0x27D JUMPI DUP2 PUSH1 0x3 NOT CALLDATASIZE ADD SLT PUSH2 0x27D JUMPI PUSH1 0x1 PUSH1 0x1 PUSH1 0xA0 SHL SUB PUSH1 0x24 CALLDATALOAD DUP2 DUP2 AND DUP1 DUP3 SUB PUSH2 0x279 JUMPI PUSH2 0xFD SWAP1 PUSH2 0xF6 DUP5 DUP9 SLOAD AND CALLER EQ PUSH2 0xC50 JUMP JUMPDEST ISZERO ISZERO PUSH2 0xC88 JUMP JUMPDEST PUSH2 0x107 DUP4 CALLDATALOAD PUSH2 0xC00 JUMP JUMPDEST POP SWAP3 PUSH5 0xFFFFFFFFFF PUSH4 0x3C26700 DUP2 PUSH1 0x3 DUP8 ADD SLOAD AND ADD DUP2 DUP2 GT PUSH2 0x266 JUMPI AND TIMESTAMP GT ISZERO PUSH2 0x237 JUMPI PUSH1 0x2 DUP5 SLOAD SWAP5 ADD SWAP4 DUP5 SLOAD SWAP5 DUP6 DUP3 SUB SWAP6 DUP3 DUP8 GT PUSH2 0x224 JUMPI DUP3 EQ PUSH2 0x1F7 JUMPI SSTORE DUP5 MLOAD PUSH4 0xA9059CBB PUSH1 0xE0 SHL DUP2 MSTORE PUSH1 0x1 PUSH1 0x1 PUSH1 0xA0 SHL SUB SWAP1 SWAP3 AND SWAP1 DUP3 ADD SWAP1 DUP2 MSTORE PUSH1 0x20 DUP2 DUP2 ADD SWAP5 SWAP1 SWAP5 MSTORE SWAP1 SWAP3 SWAP2 DUP4 SWAP2 DUP3 SWAP1 DUP8 SWAP1 DUP3 SWAP1 PUSH1 0x40 ADD SUB SWAP3 PUSH32 0x0 AND GAS CALL SWAP1 DUP2 ISZERO PUSH2 0x1EB JUMPI PUSH2 0x1BA SWAP3 POP DUP4 SWAP2 PUSH2 0x1BD JUMPI JUMPDEST POP PUSH2 0xD0A JUMP JUMPDEST DUP1 RETURN JUMPDEST PUSH2 0x1DE SWAP2 POP PUSH1 0x20 RETURNDATASIZE DUP2 GT PUSH2 0x1E4 JUMPI JUMPDEST PUSH2 0x1D6 DUP2 DUP4 PUSH2 0xCBA JUMP JUMPDEST DUP2 ADD SWAP1 PUSH2 0xCF2 JUMP JUMPDEST CODESIZE PUSH2 0x1B4 JUMP JUMPDEST POP RETURNDATASIZE PUSH2 0x1CC JUMP JUMPDEST POP POP MLOAD SWAP1 RETURNDATASIZE SWAP1 DUP3 RETURNDATACOPY RETURNDATASIZE SWAP1 REVERT JUMPDEST DUP7 MLOAD PUSH3 0x461BCD PUSH1 0xE5 SHL DUP2 MSTORE PUSH1 0x20 DUP2 DUP6 ADD MSTORE PUSH1 0x7 PUSH1 0x24 DUP3 ADD MSTORE PUSH7 0x6E6F7468696E67 PUSH1 0xC8 SHL PUSH1 0x44 DUP3 ADD MSTORE PUSH1 0x64 SWAP1 REVERT JUMPDEST PUSH4 0x4E487B71 PUSH1 0xE0 SHL DUP10 MSTORE PUSH1 0x11 DUP5 MSTORE PUSH1 0x24 DUP10 REVERT JUMPDEST PUSH1 0x64 SWAP1 PUSH1 0x20 DUP7 MLOAD SWAP2 PUSH3 0x461BCD PUSH1 0xE5 SHL DUP4 MSTORE DUP3 ADD MSTORE PUSH1 0x9 PUSH1 0x24 DUP3 ADD MSTORE PUSH9 0x746F6F206561726C79 PUSH1 0xB8 SHL PUSH1 0x44 DUP3 ADD MSTORE REVERT JUMPDEST PUSH4 0x4E487B71 PUSH1 0xE0 SHL DUP9 MSTORE PUSH1 0x11 DUP4 MSTORE PUSH1 0x24 DUP9 REVERT JUMPDEST DUP6 DUP1 REVERT JUMPDEST DUP3 DUP1 REVERT JUMPDEST POP POP CALLVALUE PUSH2 0xB9 JUMPI DUP1 PUSH1 0x3 NOT CALLDATASIZE ADD SLT PUSH2 0xB9 JUMPI PUSH1 0x20 SWAP2 PUSH1 0xFF SWAP1 DUP3 SWAP1 PUSH1 0x1 PUSH1 0x1 PUSH1 0xA0 SHL SUB PUSH2 0x2AB PUSH2 0xBE5 JUMP JUMPDEST AND DUP2 MSTORE PUSH1 0x2 DUP6 MSTORE DUP2 DUP2 KECCAK256 PUSH1 0x24 CALLDATALOAD DUP3 MSTORE DUP6 MSTORE KECCAK256 SLOAD AND SWAP1 MLOAD SWAP1 ISZERO ISZERO DUP2 MSTORE RETURN JUMPDEST SWAP2 SWAP1 POP CALLVALUE PUSH2 0x27D JUMPI PUSH1 0x20 SWAP2 DUP3 PUSH1 0x3 NOT CALLDATASIZE ADD SLT PUSH2 0x53C JUMPI DUP1 CALLDATALOAD SWAP2 PUSH8 0xFFFFFFFFFFFFFFFF SWAP1 DUP2 DUP5 GT PUSH2 0x279 JUMPI CALLDATASIZE PUSH1 0x23 DUP6 ADD SLT ISZERO PUSH2 0x279 JUMPI DUP4 DUP4 ADD CALLDATALOAD SWAP2 DUP3 GT PUSH2 0x279 JUMPI PUSH1 0x24 SWAP5 PUSH1 0x5 SWAP2 CALLDATASIZE DUP8 DUP6 DUP6 SHL DUP9 ADD ADD GT PUSH2 0x567 JUMPI SWAP3 SWAP5 PUSH1 0x1 PUSH1 0x1 PUSH1 0xA0 SHL SUB PUSH32 0x0 DUP2 AND SWAP5 PUSH32 0x0 SWAP1 SWAP2 AND SWAP4 SWAP1 SWAP2 SWAP1 DUP10 JUMPDEST DUP9 DUP2 LT PUSH2 0x37E JUMPI DUP11 DUP1 RETURN JUMPDEST DUP10 DUP2 DUP4 SHL DUP5 ADD ADD CALLDATALOAD DUP11 DUP13 PUSH1 0x1 DUP1 SLOAD DUP5 LT ISZERO PUSH2 0x55E JUMPI CALLER DUP3 MSTORE DUP12 DUP11 DUP11 PUSH1 0x2 SWAP3 DUP4 DUP3 MSTORE DUP12 DUP7 KECCAK256 DUP9 DUP8 MSTORE DUP3 MSTORE PUSH1 0xFF DUP13 DUP8 KECCAK256 SLOAD AND PUSH2 0x551 JUMPI PUSH2 0x3BB DUP9 PUSH2 0xC00 JUMP JUMPDEST POP SWAP7 DUP13 MLOAD DUP1 SWAP5 DUP2 SWAP4 PUSH4 0x70A08231 PUSH1 0xE0 SHL DUP4 MSTORE CALLER SWAP1 DUP4 ADD MSTORE GAS STATICCALL SWAP1 DUP2 ISZERO PUSH2 0x547 JUMPI DUP15 DUP13 SWAP4 DUP16 SWAP3 SWAP4 DUP14 SWAP5 DUP9 SWAP2 PUSH2 0x50B JUMPI JUMPDEST POP DUP1 ISZERO PUSH2 0x4FC JUMPI PUSH2 0x3FF PUSH2 0x409 SWAP2 DUP11 SLOAD PUSH2 0xD41 JUMP JUMPDEST DUP8 DUP11 ADD SLOAD SWAP1 PUSH2 0xD6A JUMP JUMPDEST SWAP8 DUP9 ISZERO PUSH2 0x4FC JUMPI PUSH2 0x46B SWAP7 DUP10 SWAP6 CALLER DUP11 MSTORE DUP4 DUP9 MSTORE DUP1 DUP11 KECCAK256 DUP13 DUP12 MSTORE DUP9 MSTORE DUP10 KECCAK256 SWAP1 PUSH1 0xFF NOT DUP3 SLOAD AND OR SWAP1 SSTORE ADD PUSH2 0x43C DUP5 DUP3 SLOAD PUSH2 0xD8A JUMP JUMPDEST SWAP1 SSTORE DUP12 MLOAD PUSH4 0xA9059CBB PUSH1 0xE0 SHL DUP2 MSTORE CALLER SWAP2 DUP2 ADD SWAP2 DUP3 MSTORE PUSH1 0x20 DUP3 ADD SWAP4 SWAP1 SWAP4 MSTORE SWAP2 SWAP4 DUP5 SWAP3 DUP4 SWAP2 DUP8 SWAP2 DUP4 SWAP2 PUSH1 0x40 SWAP1 SWAP2 ADD SWAP1 JUMP JUMPDEST SUB SWAP3 GAS CALL SWAP2 DUP3 ISZERO PUSH2 0x4F1 JUMPI SWAP1 PUSH2 0x486 SWAP3 PUSH2 0x4D4 JUMPI JUMPDEST POP PUSH2 0xD97 JUMP JUMPDEST DUP6 MLOAD SWAP1 DUP2 MSTORE PUSH32 0x987D620F307FF6B94D58743CB7A7509F24071586A77759B77C2D4E29F75A2F9A DUP8 CALLER SWAP3 LOG3 JUMPDEST PUSH1 0x0 NOT DUP2 EQ PUSH2 0x4C2 JUMPI PUSH1 0x1 ADD PUSH2 0x373 JUMP JUMPDEST PUSH4 0x4E487B71 PUSH1 0xE0 SHL DUP12 MSTORE PUSH1 0x11 DUP9 MSTORE DUP10 DUP12 REVERT JUMPDEST PUSH2 0x4EB SWAP2 POP DUP10 RETURNDATASIZE DUP12 GT PUSH2 0x1E4 JUMPI PUSH2 0x1D6 DUP2 DUP4 PUSH2 0xCBA JUMP JUMPDEST CODESIZE PUSH2 0x480 JUMP JUMPDEST DUP9 MLOAD SWAP1 RETURNDATASIZE SWAP1 DUP3 RETURNDATACOPY RETURNDATASIZE SWAP1 REVERT JUMPDEST POP POP POP POP POP POP POP POP POP POP PUSH2 0x4B1 JUMP JUMPDEST SWAP5 POP POP SWAP4 DUP1 SWAP3 POP DUP4 SWAP2 POP RETURNDATASIZE DUP4 GT PUSH2 0x540 JUMPI JUMPDEST PUSH2 0x527 DUP2 DUP4 PUSH2 0xCBA JUMP JUMPDEST DUP2 ADD SUB SLT PUSH2 0x53C JUMPI DUP13 DUP15 DUP13 SWAP4 DUP13 SWAP4 MLOAD CODESIZE PUSH2 0x3EA JUMP JUMPDEST DUP4 DUP1 REVERT JUMPDEST POP RETURNDATASIZE PUSH2 0x51D JUMP JUMPDEST DUP11 MLOAD RETURNDATASIZE DUP7 DUP3 RETURNDATACOPY RETURNDATASIZE SWAP1 REVERT JUMPDEST POP POP POP POP POP POP POP POP PUSH2 0x4B1 JUMP JUMPDEST POP POP POP POP PUSH2 0x4B1 JUMP JUMPDEST DUP8 DUP1 REVERT JUMPDEST DUP4 DUP4 CALLVALUE PUSH2 0xB9 JUMPI PUSH1 0x20 SWAP1 DUP2 PUSH1 0x3 NOT CALLDATASIZE ADD SLT PUSH2 0x27D JUMPI DUP4 CALLDATALOAD PUSH1 0x1 DUP1 PUSH1 0xA0 SHL SUB PUSH2 0x597 DUP2 DUP7 SLOAD AND CALLER EQ PUSH2 0xC50 JUMP JUMPDEST PUSH2 0x5A2 DUP3 ISZERO ISZERO PUSH2 0xC88 JUMP JUMPDEST DUP3 MLOAD PUSH4 0x18160DDD PUSH1 0xE0 SHL DUP2 MSTORE SWAP1 DUP5 DUP3 DUP9 DUP2 PUSH32 0x0 DUP6 AND GAS STATICCALL SWAP2 DUP3 ISZERO PUSH2 0x785 JUMPI DUP7 SWAP3 PUSH2 0x7BE JUMPI JUMPDEST POP DUP2 ISZERO PUSH2 0x78F JUMPI DUP5 DUP7 SWAP2 PUSH1 0x64 DUP7 MLOAD DUP1 SWAP5 DUP2 SWAP4 PUSH4 0x23B872DD PUSH1 0xE0 SHL DUP4 MSTORE CALLER DUP14 DUP5 ADD MSTORE ADDRESS PUSH1 0x24 DUP5 ADD MSTORE DUP9 PUSH1 0x44 DUP5 ADD MSTORE PUSH32 0x0 AND GAS CALL SWAP1 DUP2 ISZERO PUSH2 0x785 JUMPI SWAP1 PUSH2 0x64F SWAP2 DUP8 SWAP2 PUSH2 0x768 JUMPI POP PUSH2 0xD0A JUMP JUMPDEST DUP3 MLOAD PUSH1 0x80 DUP2 ADD DUP2 DUP2 LT PUSH8 0xFFFFFFFFFFFFFFFF DUP3 GT OR PUSH2 0x755 JUMPI DUP5 MSTORE DUP3 DUP2 MSTORE DUP5 DUP2 ADD DUP3 DUP2 MSTORE DUP5 DUP3 ADD SWAP2 DUP8 DUP4 MSTORE PUSH1 0x60 DUP2 ADD SWAP3 PUSH5 0xFFFFFFFFFF SWAP3 DUP4 TIMESTAMP AND DUP6 MSTORE PUSH1 0x1 SLOAD PUSH9 0x10000000000000000 DUP2 LT ISZERO PUSH2 0x742 JUMPI DUP1 PUSH1 0x1 PUSH2 0x6AF SWAP3 ADD PUSH1 0x1 SSTORE PUSH2 0xC00 JUMP JUMPDEST SWAP4 SWAP1 SWAP4 PUSH2 0x730 JUMPI SWAP1 PUSH1 0x3 SWAP4 SWAP3 SWAP2 MLOAD DUP4 SSTORE MLOAD PUSH1 0x1 DUP4 ADD SSTORE MLOAD PUSH1 0x2 DUP3 ADD SSTORE ADD SWAP2 MLOAD AND PUSH5 0xFFFFFFFFFF NOT DUP3 SLOAD AND OR SWAP1 SSTORE PUSH1 0x1 SLOAD SWAP4 PUSH1 0x0 NOT DUP6 ADD SWAP5 DUP6 GT PUSH2 0x71D JUMPI PUSH32 0xC5D35A65AF09B3042394B742529D10F7FBF9A37294D6B13E4D63D06F9909A15B SWAP5 SWAP6 SWAP7 POP DUP4 MLOAD SWAP3 DUP4 MSTORE DUP3 ADD MSTORE LOG2 DUP1 RETURN JUMPDEST PUSH4 0x4E487B71 PUSH1 0xE0 SHL DUP7 MSTORE PUSH1 0x11 DUP8 MSTORE PUSH1 0x24 DUP7 REVERT JUMPDEST PUSH4 0x4E487B71 PUSH1 0xE0 SHL DUP12 MSTORE DUP11 DUP13 MSTORE PUSH1 0x24 DUP12 REVERT JUMPDEST PUSH4 0x4E487B71 PUSH1 0xE0 SHL DUP12 MSTORE PUSH1 0x41 DUP13 MSTORE PUSH1 0x24 DUP12 REVERT JUMPDEST PUSH4 0x4E487B71 PUSH1 0xE0 SHL DUP8 MSTORE PUSH1 0x41 DUP9 MSTORE PUSH1 0x24 DUP8 REVERT JUMPDEST PUSH2 0x77F SWAP2 POP DUP7 RETURNDATASIZE DUP9 GT PUSH2 0x1E4 JUMPI PUSH2 0x1D6 DUP2 DUP4 PUSH2 0xCBA JUMP JUMPDEST DUP9 PUSH2 0x1B4 JUMP JUMPDEST DUP5 MLOAD RETURNDATASIZE DUP9 DUP3 RETURNDATACOPY RETURNDATASIZE SWAP1 REVERT JUMPDEST DUP4 MLOAD PUSH3 0x461BCD PUSH1 0xE5 SHL DUP2 MSTORE DUP1 DUP9 ADD DUP7 SWAP1 MSTORE PUSH1 0x9 PUSH1 0x24 DUP3 ADD MSTORE PUSH9 0x6E6F20737570706C79 PUSH1 0xB8 SHL PUSH1 0x44 DUP3 ADD MSTORE PUSH1 0x64 SWAP1 REVERT JUMPDEST SWAP1 SWAP2 POP DUP5 DUP2 DUP2 RETURNDATASIZE DUP4 GT PUSH2 0x7E6 JUMPI JUMPDEST PUSH2 0x7D6 DUP2 DUP4 PUSH2 0xCBA JUMP JUMPDEST DUP2 ADD SUB SLT PUSH2 0x279 JUMPI MLOAD SWAP1 DUP8 PUSH2 0x5E6 JUMP JUMPDEST POP RETURNDATASIZE PUSH2 0x7CC JUMP JUMPDEST POP POP CALLVALUE PUSH2 0xB9 JUMPI DUP2 PUSH1 0x3 NOT CALLDATASIZE ADD SLT PUSH2 0xB9 JUMPI SWAP1 SLOAD SWAP1 MLOAD PUSH1 0x1 PUSH1 0x1 PUSH1 0xA0 SHL SUB SWAP1 SWAP2 AND DUP2 MSTORE PUSH1 0x20 SWAP1 RETURN JUMPDEST POP POP CALLVALUE PUSH2 0xB9 JUMPI DUP2 PUSH1 0x3 NOT CALLDATASIZE ADD SLT PUSH2 0xB9 JUMPI MLOAD PUSH32 0x0 PUSH1 0x1 PUSH1 0x1 PUSH1 0xA0 SHL SUB AND DUP2 MSTORE PUSH1 0x20 SWAP1 RETURN JUMPDEST SWAP1 POP CALLVALUE PUSH2 0x27D JUMPI PUSH1 0x20 CALLDATASIZE PUSH1 0x3 NOT ADD SLT PUSH2 0x27D JUMPI CALLDATALOAD SWAP2 PUSH1 0x1 SLOAD DUP4 LT ISZERO PUSH2 0x8B5 JUMPI POP PUSH2 0x884 PUSH1 0x80 SWAP3 PUSH2 0xC00 JUMP JUMPDEST POP SWAP1 DUP2 SLOAD SWAP2 PUSH1 0x1 DUP2 ADD SLOAD SWAP2 PUSH5 0xFFFFFFFFFF PUSH1 0x3 PUSH1 0x2 DUP5 ADD SLOAD SWAP4 ADD SLOAD AND SWAP3 DUP2 MLOAD SWAP5 DUP6 MSTORE PUSH1 0x20 DUP6 ADD MSTORE DUP4 ADD MSTORE PUSH1 0x60 DUP3 ADD MSTORE RETURN JUMPDEST DUP1 REVERT JUMPDEST SWAP1 POP CALLVALUE PUSH2 0x27D JUMPI PUSH1 0x20 DUP1 PUSH1 0x3 NOT CALLDATASIZE ADD SLT PUSH2 0x53C JUMPI DUP2 CALLDATALOAD SWAP3 PUSH1 0x1 SLOAD DUP5 LT ISZERO PUSH2 0xB27 JUMPI CALLER DUP6 MSTORE PUSH1 0x2 DUP3 MSTORE DUP1 DUP6 KECCAK256 DUP5 DUP7 MSTORE DUP3 MSTORE PUSH1 0xFF DUP2 DUP7 KECCAK256 SLOAD AND PUSH2 0xAF4 JUMPI PUSH2 0x8FC DUP5 PUSH2 0xC00 JUMP JUMPDEST POP DUP2 MLOAD PUSH4 0x70A08231 PUSH1 0xE0 SHL DUP2 MSTORE CALLER DUP2 DUP7 ADD MSTORE SWAP1 SWAP4 PUSH1 0x1 PUSH1 0x1 PUSH1 0xA0 SHL SUB SWAP2 DUP5 DUP2 PUSH1 0x24 DUP2 PUSH32 0x0 DUP8 AND GAS STATICCALL SWAP1 DUP2 ISZERO PUSH2 0xAEA JUMPI DUP9 SWAP2 PUSH2 0xABD JUMPI JUMPDEST POP DUP1 ISZERO PUSH2 0xA8D JUMPI PUSH2 0x966 PUSH2 0x971 SWAP2 DUP8 SLOAD PUSH2 0xD41 JUMP JUMPDEST PUSH1 0x1 DUP8 ADD SLOAD SWAP1 PUSH2 0xD6A JUMP JUMPDEST SWAP5 DUP6 ISZERO PUSH2 0xA65 JUMPI PUSH2 0x9D9 SWAP3 DUP6 SWAP3 PUSH1 0x2 DUP9 SWAP4 CALLER DUP13 MSTORE DUP2 DUP7 MSTORE DUP8 DUP13 KECCAK256 DUP12 DUP14 MSTORE DUP7 MSTORE DUP8 DUP13 KECCAK256 PUSH1 0x1 PUSH1 0xFF NOT DUP3 SLOAD AND OR SWAP1 SSTORE ADD PUSH2 0x9AA DUP5 DUP3 SLOAD PUSH2 0xD8A JUMP JUMPDEST SWAP1 SSTORE DUP6 MLOAD PUSH4 0xA9059CBB PUSH1 0xE0 SHL DUP2 MSTORE CALLER SWAP2 DUP2 ADD SWAP2 DUP3 MSTORE PUSH1 0x20 DUP3 ADD SWAP4 SWAP1 SWAP4 MSTORE SWAP2 SWAP4 DUP5 SWAP3 DUP4 SWAP2 DUP12 SWAP2 DUP4 SWAP2 PUSH1 0x40 SWAP1 SWAP2 ADD SWAP1 JUMP JUMPDEST SUB SWAP3 PUSH32 0x0 AND GAS CALL SWAP1 DUP2 ISZERO PUSH2 0xA5B JUMPI PUSH32 0x987D620F307FF6B94D58743CB7A7509F24071586A77759B77C2D4E29F75A2F9A SWAP4 SWAP3 SWAP2 PUSH2 0xA3A SWAP2 DUP9 SWAP2 PUSH2 0xA44 JUMPI POP PUSH2 0xD97 JUMP JUMPDEST MLOAD SWAP3 DUP4 MSTORE CALLER SWAP3 LOG3 DUP1 RETURN JUMPDEST PUSH2 0x4EB SWAP2 POP DUP5 RETURNDATASIZE DUP7 GT PUSH2 0x1E4 JUMPI PUSH2 0x1D6 DUP2 DUP4 PUSH2 0xCBA JUMP JUMPDEST DUP3 MLOAD RETURNDATASIZE DUP9 DUP3 RETURNDATACOPY RETURNDATASIZE SWAP1 REVERT JUMPDEST PUSH1 0x64 DUP6 DUP4 DUP7 MLOAD SWAP2 PUSH3 0x461BCD PUSH1 0xE5 SHL DUP4 MSTORE DUP2 DUP4 ADD MSTORE PUSH1 0x24 DUP3 ADD MSTORE PUSH4 0x191D5CDD PUSH1 0xE2 SHL PUSH1 0x44 DUP3 ADD MSTORE REVERT JUMPDEST DUP4 MLOAD PUSH3 0x461BCD PUSH1 0xE5 SHL DUP2 MSTORE DUP1 DUP4 ADD DUP7 SWAP1 MSTORE PUSH1 0xA PUSH1 0x24 DUP3 ADD MSTORE PUSH10 0x6E6F2062616C616E6365 PUSH1 0xB0 SHL PUSH1 0x44 DUP3 ADD MSTORE PUSH1 0x64 SWAP1 REVERT JUMPDEST SWAP1 POP DUP5 DUP2 DUP2 RETURNDATASIZE DUP4 GT PUSH2 0xAE3 JUMPI JUMPDEST PUSH2 0xAD4 DUP2 DUP4 PUSH2 0xCBA JUMP JUMPDEST DUP2 ADD SUB SLT PUSH2 0x567 JUMPI MLOAD CODESIZE PUSH2 0x951 JUMP JUMPDEST POP RETURNDATASIZE PUSH2 0xACA JUMP JUMPDEST DUP5 MLOAD RETURNDATASIZE DUP11 DUP3 RETURNDATACOPY RETURNDATASIZE SWAP1 REVERT JUMPDEST MLOAD PUSH3 0x461BCD PUSH1 0xE5 SHL DUP2 MSTORE SWAP2 DUP3 ADD MSTORE PUSH1 0xF PUSH1 0x24 DUP3 ADD MSTORE PUSH15 0x185B1C9958591E4818DB185A5B5959 PUSH1 0x8A SHL PUSH1 0x44 DUP3 ADD MSTORE PUSH1 0x64 SWAP2 POP REVERT JUMPDEST MLOAD PUSH3 0x461BCD PUSH1 0xE5 SHL DUP2 MSTORE SWAP2 DUP3 ADD MSTORE PUSH1 0x6 PUSH1 0x24 DUP3 ADD MSTORE PUSH6 0x189859081A59 PUSH1 0xD2 SHL PUSH1 0x44 DUP3 ADD MSTORE PUSH1 0x64 SWAP2 POP REVERT JUMPDEST POP POP CALLVALUE PUSH2 0xB9 JUMPI DUP2 PUSH1 0x3 NOT CALLDATASIZE ADD SLT PUSH2 0xB9 JUMPI MLOAD PUSH32 0x0 PUSH1 0x1 PUSH1 0x1 PUSH1 0xA0 SHL SUB AND DUP2 MSTORE PUSH1 0x20 SWAP1 RETURN JUMPDEST DUP4 CALLVALUE PUSH2 0x8B5 JUMPI PUSH1 0x20 CALLDATASIZE PUSH1 0x3 NOT ADD SLT PUSH2 0x8B5 JUMPI PUSH2 0xBAF PUSH2 0xBE5 JUMP JUMPDEST DUP2 SLOAD SWAP1 PUSH1 0x1 PUSH1 0x1 PUSH1 0xA0 SHL SUB SWAP1 PUSH2 0xBC8 CALLER DUP4 DUP6 AND EQ PUSH2 0xC50 JUMP JUMPDEST AND SWAP1 PUSH2 0xBD5 DUP3 ISZERO ISZERO PUSH2 0xC88 JUMP JUMPDEST PUSH1 0x1 PUSH1 0x1 PUSH1 0xA0 SHL SUB NOT AND OR DUP2 SSTORE DUP1 RETURN JUMPDEST PUSH1 0x4 CALLDATALOAD SWAP1 PUSH1 0x1 PUSH1 0x1 PUSH1 0xA0 SHL SUB DUP3 AND DUP3 SUB PUSH2 0xBFB JUMPI JUMP JUMPDEST PUSH1 0x0 DUP1 REVERT JUMPDEST PUSH1 0x1 SLOAD DUP2 LT ISZERO PUSH2 0xC3A JUMPI PUSH1 0x1 PUSH1 0x0 MSTORE PUSH1 0x2 SHL PUSH32 0xB10E2D527612073B26EECDFD717E6A320CF44B4AFAC2B0732D9FCBE2B7FA0CF6 ADD SWAP1 PUSH1 0x0 SWAP1 JUMP JUMPDEST PUSH4 0x4E487B71 PUSH1 0xE0 SHL PUSH1 0x0 MSTORE PUSH1 0x32 PUSH1 0x4 MSTORE PUSH1 0x24 PUSH1 0x0 REVERT JUMPDEST ISZERO PUSH2 0xC57 JUMPI JUMP JUMPDEST PUSH1 0x40 MLOAD PUSH3 0x461BCD PUSH1 0xE5 SHL DUP2 MSTORE PUSH1 0x20 PUSH1 0x4 DUP3 ADD MSTORE PUSH1 0x9 PUSH1 0x24 DUP3 ADD MSTORE PUSH9 0x3737BA1037BBB732B9 PUSH1 0xB9 SHL PUSH1 0x44 DUP3 ADD MSTORE PUSH1 0x64 SWAP1 REVERT JUMPDEST ISZERO PUSH2 0xC8F JUMPI JUMP JUMPDEST PUSH1 0x64 PUSH1 0x40 MLOAD PUSH3 0x461BCD PUSH1 0xE5 SHL DUP2 MSTORE PUSH1 0x20 PUSH1 0x4 DUP3 ADD MSTORE PUSH1 0x4 PUSH1 0x24 DUP3 ADD MSTORE PUSH4 0x7A65726F PUSH1 0xE0 SHL PUSH1 0x44 DUP3 ADD MSTORE REVERT JUMPDEST SWAP1 PUSH1 0x1F DUP1 NOT SWAP2 ADD AND DUP2 ADD SWAP1 DUP2 LT PUSH8 0xFFFFFFFFFFFFFFFF DUP3 GT OR PUSH2 0xCDC JUMPI PUSH1 0x40 MSTORE JUMP JUMPDEST PUSH4 0x4E487B71 PUSH1 0xE0 SHL PUSH1 0x0 MSTORE PUSH1 0x41 PUSH1 0x4 MSTORE PUSH1 0x24 PUSH1 0x0 REVERT JUMPDEST SWAP1 DUP2 PUSH1 0x20 SWAP2 SUB SLT PUSH2 0xBFB JUMPI MLOAD DUP1 ISZERO ISZERO DUP2 SUB PUSH2 0xBFB JUMPI SWAP1 JUMP JUMPDEST ISZERO PUSH2 0xD11 JUMPI JUMP JUMPDEST PUSH1 0x40 MLOAD PUSH3 0x461BCD PUSH1 0xE5 SHL DUP2 MSTORE PUSH1 0x20 PUSH1 0x4 DUP3 ADD MSTORE PUSH1 0x8 PUSH1 0x24 DUP3 ADD MSTORE PUSH8 0x3A3930B739B332B9 PUSH1 0xC1 SHL PUSH1 0x44 DUP3 ADD MSTORE PUSH1 0x64 SWAP1 REVERT JUMPDEST DUP2 DUP2 MUL SWAP3 SWAP2 DUP2 ISZERO SWAP2 DUP5 DIV EQ OR ISZERO PUSH2 0xD54 JUMPI JUMP JUMPDEST PUSH4 0x4E487B71 PUSH1 0xE0 SHL PUSH1 0x0 MSTORE PUSH1 0x11 PUSH1 0x4 MSTORE PUSH1 0x24 PUSH1 0x0 REVERT JUMPDEST DUP2 ISZERO PUSH2 0xD74 JUMPI DIV SWAP1 JUMP JUMPDEST PUSH4 0x4E487B71 PUSH1 0xE0 SHL PUSH1 0x0 MSTORE PUSH1 0x12 PUSH1 0x4 MSTORE PUSH1 0x24 PUSH1 0x0 REVERT JUMPDEST SWAP2 SWAP1 DUP3 ADD DUP1 SWAP3 GT PUSH2 0xD54 JUMPI JUMP JUMPDEST ISZERO PUSH2 0xD9E JUMPI JUMP JUMPDEST PUSH1 0x40 MLOAD PUSH3 0x461BCD PUSH1 0xE5 SHL DUP2 MSTORE PUSH1 0x20 PUSH1 0x4 DUP3 ADD MSTORE PUSH1 0x3 PUSH1 0x24 DUP3 ADD MSTORE PUSH3 0x706179 PUSH1 0xE8 SHL PUSH1 0x44 DUP3 ADD MSTORE PUSH1 0x64 SWAP1 REVERT INVALID LOG2 PUSH5 0x6970667358 0x22 SLT KECCAK256 0xCA SWAP1 0x1F 0xA8 0x2A 0xD7 SSTORE EXTCODESIZE 0xD5 0xF9 PUSH29 0x3AC80FEC56060601F16AA0FBA25F21C9F9CE67255964736F6C63430008 EQ STOP CALLER "},"methodIdentifiers":{"claim(uint256)":"379607f5","claimMany(uint256[])":"925489a8","distribute(uint256)":"91c05b0b","distributions(uint256)":"4487d3df","distributionsCount()":"daafd1b6","hasClaimed(address,uint256)":"b2931096","owner()":"8da5cb5b","setOwner(address)":"13af4035","settlement()":"51160630","stoToken()":"13ee6b97","sweepStale(uint256,address)":"d75c1763"}}}}}