{"contracts/registry/IdentityRegistry.sol":{"IdentityRegistry":{"abi":[{"inputs":[{"internalType":"address","name":"_owner","type":"address"}],"stateMutability":"nonpayable","type":"constructor"},{"anonymous":false,"inputs":[{"indexed":true,"internalType":"address","name":"agent","type":"address"}],"name":"AgentAdded","type":"event"},{"anonymous":false,"inputs":[{"indexed":true,"internalType":"address","name":"agent","type":"address"}],"name":"AgentRemoved","type":"event"},{"anonymous":false,"inputs":[{"indexed":true,"internalType":"address","name":"investor","type":"address"},{"indexed":false,"internalType":"uint16","name":"country","type":"uint16"},{"indexed":false,"internalType":"uint40","name":"expiresAt","type":"uint40"},{"indexed":false,"internalType":"bytes32","name":"kycProvider","type":"bytes32"}],"name":"IdentityRegistered","type":"event"},{"anonymous":false,"inputs":[{"indexed":true,"internalType":"address","name":"investor","type":"address"}],"name":"IdentityRemoved","type":"event"},{"anonymous":false,"inputs":[{"indexed":true,"internalType":"address","name":"investor","type":"address"},{"indexed":false,"internalType":"uint16","name":"country","type":"uint16"},{"indexed":false,"internalType":"uint40","name":"expiresAt","type":"uint40"}],"name":"IdentityUpdated","type":"event"},{"inputs":[{"internalType":"address","name":"agent","type":"address"}],"name":"addAgent","outputs":[],"stateMutability":"nonpayable","type":"function"},{"inputs":[{"internalType":"address","name":"","type":"address"}],"name":"agents","outputs":[{"internalType":"bool","name":"","type":"bool"}],"stateMutability":"view","type":"function"},{"inputs":[{"internalType":"address","name":"investor","type":"address"}],"name":"identityOf","outputs":[{"components":[{"internalType":"bool","name":"verified","type":"bool"},{"internalType":"uint16","name":"country","type":"uint16"},{"internalType":"uint40","name":"verifiedAt","type":"uint40"},{"internalType":"uint40","name":"expiresAt","type":"uint40"},{"internalType":"bytes32","name":"kycProvider","type":"bytes32"}],"internalType":"struct IIdentityRegistry.Identity","name":"","type":"tuple"}],"stateMutability":"view","type":"function"},{"inputs":[{"internalType":"address","name":"agent","type":"address"}],"name":"isAgent","outputs":[{"internalType":"bool","name":"","type":"bool"}],"stateMutability":"view","type":"function"},{"inputs":[{"internalType":"address","name":"investor","type":"address"}],"name":"isVerified","outputs":[{"internalType":"bool","name":"","type":"bool"}],"stateMutability":"view","type":"function"},{"inputs":[],"name":"owner","outputs":[{"internalType":"address","name":"","type":"address"}],"stateMutability":"view","type":"function"},{"inputs":[{"internalType":"address","name":"investor","type":"address"},{"internalType":"uint16","name":"country","type":"uint16"},{"internalType":"uint40","name":"expiresAt","type":"uint40"},{"internalType":"bytes32","name":"kycProvider","type":"bytes32"}],"name":"registerIdentity","outputs":[],"stateMutability":"nonpayable","type":"function"},{"inputs":[{"internalType":"address","name":"agent","type":"address"}],"name":"removeAgent","outputs":[],"stateMutability":"nonpayable","type":"function"},{"inputs":[{"internalType":"address","name":"investor","type":"address"}],"name":"removeIdentity","outputs":[],"stateMutability":"nonpayable","type":"function"},{"inputs":[{"internalType":"address","name":"newOwner","type":"address"}],"name":"setOwner","outputs":[],"stateMutability":"nonpayable","type":"function"}],"evm":{"bytecode":{"linkReferences":{},"object":"6080346100a957601f6107d338819003918201601f19168301916001600160401b038311848410176100ae578084926020946040528339810103126100a957516001600160a01b038116908190036100a957801561007a57600080546001600160a01b03191691909117905560405161070e90816100c58239f35b60405162461bcd60e51b815260206004820152600760248201526606f776e65723d360cc1b6044820152606490fd5b600080fd5b634e487b7160e01b600052604160045260246000fdfe604060808152600436101561001357600080fd5b600090813560e01c806313af4035146105185780631ffbb064146104ee57806384e79842146104725780638da5cb5b1461044b57806397a6278e146103dd578063b9209e33146103af578063c1f2f1aa14610320578063c634562614610260578063eda50db9146100cd5763fd66091e1461008d57600080fd5b346100c95760203660031901126100c95760209160ff9082906001600160a01b036100b661056b565b1681526001855220541690519015158152f35b5080fd5b50346100c95760803660031901126100c9576100e761056b565b6024359061ffff821680920361025c576044359264ffffffffff938481168091036102585760643592338752600160205260ff83882054168015610245575b61012f906105f0565b6001600160a01b0316946101448615156105be565b42168082111561020f5791606093917f0e8932203a72e5b1fcd29c9d671ae2c16f917306f1c2a4ca194e2c118ec12c709593600188610181610628565b928284528b6020850191898352878601908152878b87019288845260808801958b87528152600260205220955115159260ff6cffffffffff000000000000000067ffffffffff00000062ffff008a54945160081b16945160181b1694518b1b169416906cffffffffffffffffffffffffff19161717171783555191015581519384526020840152820152a280f35b825162461bcd60e51b815260206004820152600f60248201526e185b1c9958591e48195e1c1a5c9959608a1b6044820152606490fd5b5086546001600160a01b03163314610126565b8580fd5b8380fd5b50346100c95760203660031901126100c9578060a09261027e61056b565b816080610289610628565b82815282602082015282868201528260608201520152600180861b031681526002602052209060016102b9610628565b9183549060ff82161515948585526020850161ffff808560081c16825283870191608064ffffffffff978895868960181c1686528660608c0199891c1689520154980197885284519889525116602088015251169085015251166060830152516080820152f35b50346100c95760203660031901126100c95781600161033d61056b565b3383528160205260ff84842054168015610399575b61035b906105f0565b818060a01b0316928383526002602052822082815501557f374ace31388bb8ee152e1f7ad5e216944c28a32dfedb6c9353ba26bf0cdbb15a8280a280f35b5061035b828060a01b0384541633149050610352565b50346100c95760203660031901126100c9576020906103d46103cf61056b565b61065e565b90519015158152f35b50346100c95760203660031901126100c9576103f761056b565b82546001600160a01b0391906104109083163314610586565b168083526001602052908220805460ff191690557fed9c8ad8d5a0a66898ea49d2956929c93ae2e8bd50281b2ed897c5d1a6737e0b8280a280f35b50346100c957816003193601126100c957905490516001600160a01b039091168152602090f35b50346100c95760203660031901126100c95761048c61056b565b82546001600160a01b0391906104a59083163314610586565b16906104b28215156105be565b81835260016020528220600160ff198254161790557ff68e73cec97f2d70aa641fb26e87a4383686e2efacb648f2165aeb02ac562ec58280a280f35b50346100c95760203660031901126100c95760209160ff9082906001600160a01b036100b661056b565b82346105685760203660031901126105685761053261056b565b8154906001600160a01b039061054b3383851614610586565b16906105588215156105be565b6001600160a01b03191617815580f35b80fd5b600435906001600160a01b038216820361058157565b600080fd5b1561058d57565b60405162461bcd60e51b81526020600482015260096024820152683737ba1037bbb732b960b91b6044820152606490fd5b156105c557565b606460405162461bcd60e51b81526020600482015260046024820152637a65726f60e01b6044820152fd5b156105f757565b60405162461bcd60e51b81526020600482015260096024820152681b9bdd081859d95b9d60ba1b6044820152606490fd5b6040519060a0820182811067ffffffffffffffff82111761064857604052565b634e487b7160e01b600052604160045260246000fd5b6001600160a01b0316600090815260026020526040902061067d610628565b8154906080600160ff841615938415845261ffff8160081c16602085015264ffffffffff90818160181c16604086015260401c169485606085015201549101526106d2574210156106cd57600190565b600090565b5060009056fea2646970667358221220dd20530af448cfcdafee54a142dc4cc3b0021b08e6ca653a9f82d72c64802fb764736f6c63430008140033","opcodes":"PUSH1 0x80 CALLVALUE PUSH2 0xA9 JUMPI PUSH1 0x1F PUSH2 0x7D3 CODESIZE DUP2 SWAP1 SUB SWAP2 DUP3 ADD PUSH1 0x1F NOT AND DUP4 ADD SWAP2 PUSH1 0x1 PUSH1 0x1 PUSH1 0x40 SHL SUB DUP4 GT DUP5 DUP5 LT OR PUSH2 0xAE JUMPI DUP1 DUP5 SWAP3 PUSH1 0x20 SWAP5 PUSH1 0x40 MSTORE DUP4 CODECOPY DUP2 ADD SUB SLT PUSH2 0xA9 JUMPI MLOAD PUSH1 0x1 PUSH1 0x1 PUSH1 0xA0 SHL SUB DUP2 AND SWAP1 DUP2 SWAP1 SUB PUSH2 0xA9 JUMPI DUP1 ISZERO PUSH2 0x7A JUMPI PUSH1 0x0 DUP1 SLOAD PUSH1 0x1 PUSH1 0x1 PUSH1 0xA0 SHL SUB NOT AND SWAP2 SWAP1 SWAP2 OR SWAP1 SSTORE PUSH1 0x40 MLOAD PUSH2 0x70E SWAP1 DUP2 PUSH2 0xC5 DUP3 CODECOPY RETURN JUMPDEST PUSH1 0x40 MLOAD PUSH3 0x461BCD PUSH1 0xE5 SHL DUP2 MSTORE PUSH1 0x20 PUSH1 0x4 DUP3 ADD MSTORE PUSH1 0x7 PUSH1 0x24 DUP3 ADD MSTORE PUSH7 0x6F776E65723D3 PUSH1 0xCC SHL PUSH1 0x44 DUP3 ADD MSTORE PUSH1 0x64 SWAP1 REVERT JUMPDEST PUSH1 0x0 DUP1 REVERT JUMPDEST PUSH4 0x4E487B71 PUSH1 0xE0 SHL PUSH1 0x0 MSTORE PUSH1 0x41 PUSH1 0x4 MSTORE PUSH1 0x24 PUSH1 0x0 REVERT INVALID PUSH1 0x40 PUSH1 0x80 DUP2 MSTORE PUSH1 0x4 CALLDATASIZE LT ISZERO PUSH2 0x13 JUMPI PUSH1 0x0 DUP1 REVERT JUMPDEST PUSH1 0x0 SWAP1 DUP2 CALLDATALOAD PUSH1 0xE0 SHR DUP1 PUSH4 0x13AF4035 EQ PUSH2 0x518 JUMPI DUP1 PUSH4 0x1FFBB064 EQ PUSH2 0x4EE JUMPI DUP1 PUSH4 0x84E79842 EQ PUSH2 0x472 JUMPI DUP1 PUSH4 0x8DA5CB5B EQ PUSH2 0x44B JUMPI DUP1 PUSH4 0x97A6278E EQ PUSH2 0x3DD JUMPI DUP1 PUSH4 0xB9209E33 EQ PUSH2 0x3AF JUMPI DUP1 PUSH4 0xC1F2F1AA EQ PUSH2 0x320 JUMPI DUP1 PUSH4 0xC6345626 EQ PUSH2 0x260 JUMPI DUP1 PUSH4 0xEDA50DB9 EQ PUSH2 0xCD JUMPI PUSH4 0xFD66091E EQ PUSH2 0x8D JUMPI PUSH1 0x0 DUP1 REVERT JUMPDEST CALLVALUE PUSH2 0xC9 JUMPI PUSH1 0x20 CALLDATASIZE PUSH1 0x3 NOT ADD SLT PUSH2 0xC9 JUMPI PUSH1 0x20 SWAP2 PUSH1 0xFF SWAP1 DUP3 SWAP1 PUSH1 0x1 PUSH1 0x1 PUSH1 0xA0 SHL SUB PUSH2 0xB6 PUSH2 0x56B JUMP JUMPDEST AND DUP2 MSTORE PUSH1 0x1 DUP6 MSTORE KECCAK256 SLOAD AND SWAP1 MLOAD SWAP1 ISZERO ISZERO DUP2 MSTORE RETURN JUMPDEST POP DUP1 REVERT JUMPDEST POP CALLVALUE PUSH2 0xC9 JUMPI PUSH1 0x80 CALLDATASIZE PUSH1 0x3 NOT ADD SLT PUSH2 0xC9 JUMPI PUSH2 0xE7 PUSH2 0x56B JUMP JUMPDEST PUSH1 0x24 CALLDATALOAD SWAP1 PUSH2 0xFFFF DUP3 AND DUP1 SWAP3 SUB PUSH2 0x25C JUMPI PUSH1 0x44 CALLDATALOAD SWAP3 PUSH5 0xFFFFFFFFFF SWAP4 DUP5 DUP2 AND DUP1 SWAP2 SUB PUSH2 0x258 JUMPI PUSH1 0x64 CALLDATALOAD SWAP3 CALLER DUP8 MSTORE PUSH1 0x1 PUSH1 0x20 MSTORE PUSH1 0xFF DUP4 DUP9 KECCAK256 SLOAD AND DUP1 ISZERO PUSH2 0x245 JUMPI JUMPDEST PUSH2 0x12F SWAP1 PUSH2 0x5F0 JUMP JUMPDEST PUSH1 0x1 PUSH1 0x1 PUSH1 0xA0 SHL SUB AND SWAP5 PUSH2 0x144 DUP7 ISZERO ISZERO PUSH2 0x5BE JUMP JUMPDEST TIMESTAMP AND DUP1 DUP3 GT ISZERO PUSH2 0x20F JUMPI SWAP2 PUSH1 0x60 SWAP4 SWAP2 PUSH32 0xE8932203A72E5B1FCD29C9D671AE2C16F917306F1C2A4CA194E2C118EC12C70 SWAP6 SWAP4 PUSH1 0x1 DUP9 PUSH2 0x181 PUSH2 0x628 JUMP JUMPDEST SWAP3 DUP3 DUP5 MSTORE DUP12 PUSH1 0x20 DUP6 ADD SWAP2 DUP10 DUP4 MSTORE DUP8 DUP7 ADD SWAP1 DUP2 MSTORE DUP8 DUP12 DUP8 ADD SWAP3 DUP9 DUP5 MSTORE PUSH1 0x80 DUP9 ADD SWAP6 DUP12 DUP8 MSTORE DUP2 MSTORE PUSH1 0x2 PUSH1 0x20 MSTORE KECCAK256 SWAP6 MLOAD ISZERO ISZERO SWAP3 PUSH1 0xFF PUSH13 0xFFFFFFFFFF0000000000000000 PUSH8 0xFFFFFFFFFF000000 PUSH3 0xFFFF00 DUP11 SLOAD SWAP5 MLOAD PUSH1 0x8 SHL AND SWAP5 MLOAD PUSH1 0x18 SHL AND SWAP5 MLOAD DUP12 SHL AND SWAP5 AND SWAP1 PUSH13 0xFFFFFFFFFFFFFFFFFFFFFFFFFF NOT AND OR OR OR OR DUP4 SSTORE MLOAD SWAP2 ADD SSTORE DUP2 MLOAD SWAP4 DUP5 MSTORE PUSH1 0x20 DUP5 ADD MSTORE DUP3 ADD MSTORE LOG2 DUP1 RETURN JUMPDEST DUP3 MLOAD PUSH3 0x461BCD PUSH1 0xE5 SHL DUP2 MSTORE PUSH1 0x20 PUSH1 0x4 DUP3 ADD MSTORE PUSH1 0xF PUSH1 0x24 DUP3 ADD MSTORE PUSH15 0x185B1C9958591E48195E1C1A5C9959 PUSH1 0x8A SHL PUSH1 0x44 DUP3 ADD MSTORE PUSH1 0x64 SWAP1 REVERT JUMPDEST POP DUP7 SLOAD PUSH1 0x1 PUSH1 0x1 PUSH1 0xA0 SHL SUB AND CALLER EQ PUSH2 0x126 JUMP JUMPDEST DUP6 DUP1 REVERT JUMPDEST DUP4 DUP1 REVERT JUMPDEST POP CALLVALUE PUSH2 0xC9 JUMPI PUSH1 0x20 CALLDATASIZE PUSH1 0x3 NOT ADD SLT PUSH2 0xC9 JUMPI DUP1 PUSH1 0xA0 SWAP3 PUSH2 0x27E PUSH2 0x56B JUMP JUMPDEST DUP2 PUSH1 0x80 PUSH2 0x289 PUSH2 0x628 JUMP JUMPDEST DUP3 DUP2 MSTORE DUP3 PUSH1 0x20 DUP3 ADD MSTORE DUP3 DUP7 DUP3 ADD MSTORE DUP3 PUSH1 0x60 DUP3 ADD MSTORE ADD MSTORE PUSH1 0x1 DUP1 DUP7 SHL SUB AND DUP2 MSTORE PUSH1 0x2 PUSH1 0x20 MSTORE KECCAK256 SWAP1 PUSH1 0x1 PUSH2 0x2B9 PUSH2 0x628 JUMP JUMPDEST SWAP2 DUP4 SLOAD SWAP1 PUSH1 0xFF DUP3 AND ISZERO ISZERO SWAP5 DUP6 DUP6 MSTORE PUSH1 0x20 DUP6 ADD PUSH2 0xFFFF DUP1 DUP6 PUSH1 0x8 SHR AND DUP3 MSTORE DUP4 DUP8 ADD SWAP2 PUSH1 0x80 PUSH5 0xFFFFFFFFFF SWAP8 DUP9 SWAP6 DUP7 DUP10 PUSH1 0x18 SHR AND DUP7 MSTORE DUP7 PUSH1 0x60 DUP13 ADD SWAP10 DUP10 SHR AND DUP10 MSTORE ADD SLOAD SWAP9 ADD SWAP8 DUP9 MSTORE DUP5 MLOAD SWAP9 DUP10 MSTORE MLOAD AND PUSH1 0x20 DUP9 ADD MSTORE MLOAD AND SWAP1 DUP6 ADD MSTORE MLOAD AND PUSH1 0x60 DUP4 ADD MSTORE MLOAD PUSH1 0x80 DUP3 ADD MSTORE RETURN JUMPDEST POP CALLVALUE PUSH2 0xC9 JUMPI PUSH1 0x20 CALLDATASIZE PUSH1 0x3 NOT ADD SLT PUSH2 0xC9 JUMPI DUP2 PUSH1 0x1 PUSH2 0x33D PUSH2 0x56B JUMP JUMPDEST CALLER DUP4 MSTORE DUP2 PUSH1 0x20 MSTORE PUSH1 0xFF DUP5 DUP5 KECCAK256 SLOAD AND DUP1 ISZERO PUSH2 0x399 JUMPI JUMPDEST PUSH2 0x35B SWAP1 PUSH2 0x5F0 JUMP JUMPDEST DUP2 DUP1 PUSH1 0xA0 SHL SUB AND SWAP3 DUP4 DUP4 MSTORE PUSH1 0x2 PUSH1 0x20 MSTORE DUP3 KECCAK256 DUP3 DUP2 SSTORE ADD SSTORE PUSH32 0x374ACE31388BB8EE152E1F7AD5E216944C28A32DFEDB6C9353BA26BF0CDBB15A DUP3 DUP1 LOG2 DUP1 RETURN JUMPDEST POP PUSH2 0x35B DUP3 DUP1 PUSH1 0xA0 SHL SUB DUP5 SLOAD AND CALLER EQ SWAP1 POP PUSH2 0x352 JUMP JUMPDEST POP CALLVALUE PUSH2 0xC9 JUMPI PUSH1 0x20 CALLDATASIZE PUSH1 0x3 NOT ADD SLT PUSH2 0xC9 JUMPI PUSH1 0x20 SWAP1 PUSH2 0x3D4 PUSH2 0x3CF PUSH2 0x56B JUMP JUMPDEST PUSH2 0x65E JUMP JUMPDEST SWAP1 MLOAD SWAP1 ISZERO ISZERO DUP2 MSTORE RETURN JUMPDEST POP CALLVALUE PUSH2 0xC9 JUMPI PUSH1 0x20 CALLDATASIZE PUSH1 0x3 NOT ADD SLT PUSH2 0xC9 JUMPI PUSH2 0x3F7 PUSH2 0x56B JUMP JUMPDEST DUP3 SLOAD PUSH1 0x1 PUSH1 0x1 PUSH1 0xA0 SHL SUB SWAP2 SWAP1 PUSH2 0x410 SWAP1 DUP4 AND CALLER EQ PUSH2 0x586 JUMP JUMPDEST AND DUP1 DUP4 MSTORE PUSH1 0x1 PUSH1 0x20 MSTORE SWAP1 DUP3 KECCAK256 DUP1 SLOAD PUSH1 0xFF NOT AND SWAP1 SSTORE PUSH32 0xED9C8AD8D5A0A66898EA49D2956929C93AE2E8BD50281B2ED897C5D1A6737E0B DUP3 DUP1 LOG2 DUP1 RETURN JUMPDEST POP CALLVALUE PUSH2 0xC9 JUMPI DUP2 PUSH1 0x3 NOT CALLDATASIZE ADD SLT PUSH2 0xC9 JUMPI SWAP1 SLOAD SWAP1 MLOAD PUSH1 0x1 PUSH1 0x1 PUSH1 0xA0 SHL SUB SWAP1 SWAP2 AND DUP2 MSTORE PUSH1 0x20 SWAP1 RETURN JUMPDEST POP CALLVALUE PUSH2 0xC9 JUMPI PUSH1 0x20 CALLDATASIZE PUSH1 0x3 NOT ADD SLT PUSH2 0xC9 JUMPI PUSH2 0x48C PUSH2 0x56B JUMP JUMPDEST DUP3 SLOAD PUSH1 0x1 PUSH1 0x1 PUSH1 0xA0 SHL SUB SWAP2 SWAP1 PUSH2 0x4A5 SWAP1 DUP4 AND CALLER EQ PUSH2 0x586 JUMP JUMPDEST AND SWAP1 PUSH2 0x4B2 DUP3 ISZERO ISZERO PUSH2 0x5BE JUMP JUMPDEST DUP2 DUP4 MSTORE PUSH1 0x1 PUSH1 0x20 MSTORE DUP3 KECCAK256 PUSH1 0x1 PUSH1 0xFF NOT DUP3 SLOAD AND OR SWAP1 SSTORE PUSH32 0xF68E73CEC97F2D70AA641FB26E87A4383686E2EFACB648F2165AEB02AC562EC5 DUP3 DUP1 LOG2 DUP1 RETURN JUMPDEST POP CALLVALUE PUSH2 0xC9 JUMPI PUSH1 0x20 CALLDATASIZE PUSH1 0x3 NOT ADD SLT PUSH2 0xC9 JUMPI PUSH1 0x20 SWAP2 PUSH1 0xFF SWAP1 DUP3 SWAP1 PUSH1 0x1 PUSH1 0x1 PUSH1 0xA0 SHL SUB PUSH2 0xB6 PUSH2 0x56B JUMP JUMPDEST DUP3 CALLVALUE PUSH2 0x568 JUMPI PUSH1 0x20 CALLDATASIZE PUSH1 0x3 NOT ADD SLT PUSH2 0x568 JUMPI PUSH2 0x532 PUSH2 0x56B JUMP JUMPDEST DUP2 SLOAD SWAP1 PUSH1 0x1 PUSH1 0x1 PUSH1 0xA0 SHL SUB SWAP1 PUSH2 0x54B CALLER DUP4 DUP6 AND EQ PUSH2 0x586 JUMP JUMPDEST AND SWAP1 PUSH2 0x558 DUP3 ISZERO ISZERO PUSH2 0x5BE JUMP JUMPDEST PUSH1 0x1 PUSH1 0x1 PUSH1 0xA0 SHL SUB NOT AND OR DUP2 SSTORE DUP1 RETURN JUMPDEST DUP1 REVERT JUMPDEST PUSH1 0x4 CALLDATALOAD SWAP1 PUSH1 0x1 PUSH1 0x1 PUSH1 0xA0 SHL SUB DUP3 AND DUP3 SUB PUSH2 0x581 JUMPI JUMP JUMPDEST PUSH1 0x0 DUP1 REVERT JUMPDEST ISZERO PUSH2 0x58D JUMPI JUMP JUMPDEST PUSH1 0x40 MLOAD PUSH3 0x461BCD PUSH1 0xE5 SHL DUP2 MSTORE PUSH1 0x20 PUSH1 0x4 DUP3 ADD MSTORE PUSH1 0x9 PUSH1 0x24 DUP3 ADD MSTORE PUSH9 0x3737BA1037BBB732B9 PUSH1 0xB9 SHL PUSH1 0x44 DUP3 ADD MSTORE PUSH1 0x64 SWAP1 REVERT JUMPDEST ISZERO PUSH2 0x5C5 JUMPI JUMP JUMPDEST PUSH1 0x64 PUSH1 0x40 MLOAD PUSH3 0x461BCD PUSH1 0xE5 SHL DUP2 MSTORE PUSH1 0x20 PUSH1 0x4 DUP3 ADD MSTORE PUSH1 0x4 PUSH1 0x24 DUP3 ADD MSTORE PUSH4 0x7A65726F PUSH1 0xE0 SHL PUSH1 0x44 DUP3 ADD MSTORE REVERT JUMPDEST ISZERO PUSH2 0x5F7 JUMPI JUMP JUMPDEST PUSH1 0x40 MLOAD PUSH3 0x461BCD PUSH1 0xE5 SHL DUP2 MSTORE PUSH1 0x20 PUSH1 0x4 DUP3 ADD MSTORE PUSH1 0x9 PUSH1 0x24 DUP3 ADD MSTORE PUSH9 0x1B9BDD081859D95B9D PUSH1 0xBA SHL PUSH1 0x44 DUP3 ADD MSTORE PUSH1 0x64 SWAP1 REVERT JUMPDEST PUSH1 0x40 MLOAD SWAP1 PUSH1 0xA0 DUP3 ADD DUP3 DUP2 LT PUSH8 0xFFFFFFFFFFFFFFFF DUP3 GT OR PUSH2 0x648 JUMPI PUSH1 0x40 MSTORE JUMP JUMPDEST PUSH4 0x4E487B71 PUSH1 0xE0 SHL PUSH1 0x0 MSTORE PUSH1 0x41 PUSH1 0x4 MSTORE PUSH1 0x24 PUSH1 0x0 REVERT JUMPDEST PUSH1 0x1 PUSH1 0x1 PUSH1 0xA0 SHL SUB AND PUSH1 0x0 SWAP1 DUP2 MSTORE PUSH1 0x2 PUSH1 0x20 MSTORE PUSH1 0x40 SWAP1 KECCAK256 PUSH2 0x67D PUSH2 0x628 JUMP JUMPDEST DUP2 SLOAD SWAP1 PUSH1 0x80 PUSH1 0x1 PUSH1 0xFF DUP5 AND ISZERO SWAP4 DUP5 ISZERO DUP5 MSTORE PUSH2 0xFFFF DUP2 PUSH1 0x8 SHR AND PUSH1 0x20 DUP6 ADD MSTORE PUSH5 0xFFFFFFFFFF SWAP1 DUP2 DUP2 PUSH1 0x18 SHR AND PUSH1 0x40 DUP7 ADD MSTORE PUSH1 0x40 SHR AND SWAP5 DUP6 PUSH1 0x60 DUP6 ADD MSTORE ADD SLOAD SWAP2 ADD MSTORE PUSH2 0x6D2 JUMPI TIMESTAMP LT ISZERO PUSH2 0x6CD JUMPI PUSH1 0x1 SWAP1 JUMP JUMPDEST PUSH1 0x0 SWAP1 JUMP JUMPDEST POP PUSH1 0x0 SWAP1 JUMP INVALID LOG2 PUSH5 0x6970667358 0x22 SLT KECCAK256 0xDD KECCAK256 MSTORE8 EXP DELEGATECALL BASEFEE 0xCF 0xCD 0xAF 0xEE SLOAD LOG1 TIMESTAMP 0xDC 0x4C 0xC3 0xB0 MUL SHL ADDMOD 0xE6 0xCA PUSH6 0x3A9F82D72C64 DUP1 0x2F 0xB7 PUSH5 0x736F6C6343 STOP ADDMOD EQ STOP CALLER "},"methodIdentifiers":{"addAgent(address)":"84e79842","agents(address)":"fd66091e","identityOf(address)":"c6345626","isAgent(address)":"1ffbb064","isVerified(address)":"b9209e33","owner()":"8da5cb5b","registerIdentity(address,uint16,uint40,bytes32)":"eda50db9","removeAgent(address)":"97a6278e","removeIdentity(address)":"c1f2f1aa","setOwner(address)":"13af4035"}}}}}