{"contracts/oracle/NAVOracle.sol":{"NAVOracle":{"abi":[{"inputs":[{"internalType":"address","name":"_owner","type":"address"},{"internalType":"address","name":"_settlementToken","type":"address"},{"internalType":"uint256","name":"_initialNav","type":"uint256"}],"stateMutability":"nonpayable","type":"constructor"},{"anonymous":false,"inputs":[{"indexed":false,"internalType":"uint256","name":"navPerToken","type":"uint256"},{"indexed":false,"internalType":"uint40","name":"effectiveFrom","type":"uint40"},{"indexed":false,"internalType":"bytes32","name":"reportHash","type":"bytes32"}],"name":"NAVUpdated","type":"event"},{"inputs":[],"name":"effectiveFrom","outputs":[{"internalType":"uint40","name":"","type":"uint40"}],"stateMutability":"view","type":"function"},{"inputs":[],"name":"navPerToken","outputs":[{"internalType":"uint256","name":"","type":"uint256"}],"stateMutability":"view","type":"function"},{"inputs":[{"internalType":"address","name":"","type":"address"}],"name":"operators","outputs":[{"internalType":"bool","name":"","type":"bool"}],"stateMutability":"view","type":"function"},{"inputs":[],"name":"owner","outputs":[{"internalType":"address","name":"","type":"address"}],"stateMutability":"view","type":"function"},{"inputs":[],"name":"reportHash","outputs":[{"internalType":"bytes32","name":"","type":"bytes32"}],"stateMutability":"view","type":"function"},{"inputs":[{"internalType":"address","name":"op","type":"address"},{"internalType":"bool","name":"enabled","type":"bool"}],"name":"setOperator","outputs":[],"stateMutability":"nonpayable","type":"function"},{"inputs":[{"internalType":"address","name":"newOwner","type":"address"}],"name":"setOwner","outputs":[],"stateMutability":"nonpayable","type":"function"},{"inputs":[],"name":"settlementToken","outputs":[{"internalType":"address","name":"","type":"address"}],"stateMutability":"view","type":"function"},{"inputs":[],"name":"settlementTokenAddress","outputs":[{"internalType":"address","name":"","type":"address"}],"stateMutability":"view","type":"function"},{"inputs":[{"internalType":"uint256","name":"newNavPerToken","type":"uint256"},{"internalType":"uint40","name":"newEffectiveFrom","type":"uint40"},{"internalType":"bytes32","name":"newReportHash","type":"bytes32"}],"name":"updateNAV","outputs":[],"stateMutability":"nonpayable","type":"function"}],"evm":{"bytecode":{"linkReferences":{},"object":"60a0346100f657601f61056c38819003918201601f19168301916001600160401b038311848410176100fb578084926060946040528339810103126100f65761004781610111565b90604061005660208301610111565b910151916001600160a01b039081169081151590816100ea575b50156100bf57600080546001600160a01b0319169190911790556080526002556003805464ffffffffff19164264ffffffffff1617905560405161044690816101268239608051816103a90152f35b606460405162461bcd60e51b81526020600482015260046024820152637a65726f60e01b6044820152fd5b90508216151538610070565b600080fd5b634e487b7160e01b600052604160045260246000fd5b51906001600160a01b03821682036100f65756fe6040608081526004908136101561001557600080fd5b600090813560e01c92836313af40351461030257836313e7c9d8146102c55783633c81ba4f146102a9578363558a72971461024a5783635f7e9e67146102255783637b9e618d146100935783638da5cb5b146101fe578363a036f25b146101dc578363a0acd088146100985750505063ac5f9ad11461009357600080fd5b610393565b346101d85760603660031901126101d85780359160243564ffffffffff928382168092036101d45760443593338752600160205260ff848820541680156101c1575b1561018f578515610164574216821061013b5760028590556003805464ffffffffff191683179055839055815193845260208401528201527fe891e89ada2cc8b876ee034960692957c23a753de6bcff6cf02a8a3a8c5f861490606090a180f35b60649083519062461bcd60e51b82526020818301526024820152631c185cdd60e21b6044820152fd5b835162461bcd60e51b8152602081840152600560248201526406e61763d360dc1b6044820152606490fd5b835162461bcd60e51b8152602081840152600c60248201526b3737ba1037b832b930ba37b960a11b6044820152606490fd5b5086546001600160a01b031633146100da565b8580fd5b8280fd5b50346101fa57816003193601126101fa576020906002549051908152f35b5080fd5b50346101fa57816003193601126101fa57905490516001600160a01b039091168152602090f35b50346101fa57816003193601126101fa5760209064ffffffffff600354169051908152f35b50346101fa57806003193601126101fa57610263610378565b90602435918215158093036102a55783546001600160a01b03919061028b90831633146103d8565b168352600160205282209060ff8019835416911617905580f35b8380fd5b346101d857826003193601126101d85760209250549051908152f35b50346101fa5760203660031901126101fa5760209160ff9082906001600160a01b036102ef610378565b1681526001855220541690519015158152f35b346101d85760203660031901126101d85761031b610378565b835491906001600160a01b039061033533838616146103d8565b1692831561034f5750506001600160a01b03191617815580f35b60649250519062461bcd60e51b82526020818301526024820152637a65726f60e01b6044820152fd5b600435906001600160a01b038216820361038e57565b600080fd5b3461038e57600036600319011261038e576040517f00000000000000000000000000000000000000000000000000000000000000006001600160a01b03168152602090f35b156103df57565b60405162461bcd60e51b81526020600482015260096024820152683737ba1037bbb732b960b91b6044820152606490fdfea264697066735822122083dcf2d0eb75be2255a0c8286f546075340dcbe9511ecf3f384c65e45c116c7e64736f6c63430008140033","opcodes":"PUSH1 0xA0 CALLVALUE PUSH2 0xF6 JUMPI PUSH1 0x1F PUSH2 0x56C CODESIZE DUP2 SWAP1 SUB SWAP2 DUP3 ADD PUSH1 0x1F NOT AND DUP4 ADD SWAP2 PUSH1 0x1 PUSH1 0x1 PUSH1 0x40 SHL SUB DUP4 GT DUP5 DUP5 LT OR PUSH2 0xFB JUMPI DUP1 DUP5 SWAP3 PUSH1 0x60 SWAP5 PUSH1 0x40 MSTORE DUP4 CODECOPY DUP2 ADD SUB SLT PUSH2 0xF6 JUMPI PUSH2 0x47 DUP2 PUSH2 0x111 JUMP JUMPDEST SWAP1 PUSH1 0x40 PUSH2 0x56 PUSH1 0x20 DUP4 ADD PUSH2 0x111 JUMP JUMPDEST SWAP2 ADD MLOAD SWAP2 PUSH1 0x1 PUSH1 0x1 PUSH1 0xA0 SHL SUB SWAP1 DUP2 AND SWAP1 DUP2 ISZERO ISZERO SWAP1 DUP2 PUSH2 0xEA JUMPI JUMPDEST POP ISZERO PUSH2 0xBF JUMPI PUSH1 0x0 DUP1 SLOAD PUSH1 0x1 PUSH1 0x1 PUSH1 0xA0 SHL SUB NOT AND SWAP2 SWAP1 SWAP2 OR SWAP1 SSTORE PUSH1 0x80 MSTORE PUSH1 0x2 SSTORE PUSH1 0x3 DUP1 SLOAD PUSH5 0xFFFFFFFFFF NOT AND TIMESTAMP PUSH5 0xFFFFFFFFFF AND OR SWAP1 SSTORE PUSH1 0x40 MLOAD PUSH2 0x446 SWAP1 DUP2 PUSH2 0x126 DUP3 CODECOPY PUSH1 0x80 MLOAD DUP2 PUSH2 0x3A9 ADD MSTORE RETURN JUMPDEST PUSH1 0x64 PUSH1 0x40 MLOAD PUSH3 0x461BCD PUSH1 0xE5 SHL DUP2 MSTORE PUSH1 0x20 PUSH1 0x4 DUP3 ADD MSTORE PUSH1 0x4 PUSH1 0x24 DUP3 ADD MSTORE PUSH4 0x7A65726F PUSH1 0xE0 SHL PUSH1 0x44 DUP3 ADD MSTORE REVERT JUMPDEST SWAP1 POP DUP3 AND ISZERO ISZERO CODESIZE PUSH2 0x70 JUMP JUMPDEST PUSH1 0x0 DUP1 REVERT JUMPDEST PUSH4 0x4E487B71 PUSH1 0xE0 SHL PUSH1 0x0 MSTORE PUSH1 0x41 PUSH1 0x4 MSTORE PUSH1 0x24 PUSH1 0x0 REVERT JUMPDEST MLOAD SWAP1 PUSH1 0x1 PUSH1 0x1 PUSH1 0xA0 SHL SUB DUP3 AND DUP3 SUB PUSH2 0xF6 JUMPI JUMP INVALID PUSH1 0x40 PUSH1 0x80 DUP2 MSTORE PUSH1 0x4 SWAP1 DUP2 CALLDATASIZE LT ISZERO PUSH2 0x15 JUMPI PUSH1 0x0 DUP1 REVERT JUMPDEST PUSH1 0x0 SWAP1 DUP2 CALLDATALOAD PUSH1 0xE0 SHR SWAP3 DUP4 PUSH4 0x13AF4035 EQ PUSH2 0x302 JUMPI DUP4 PUSH4 0x13E7C9D8 EQ PUSH2 0x2C5 JUMPI DUP4 PUSH4 0x3C81BA4F EQ PUSH2 0x2A9 JUMPI DUP4 PUSH4 0x558A7297 EQ PUSH2 0x24A JUMPI DUP4 PUSH4 0x5F7E9E67 EQ PUSH2 0x225 JUMPI DUP4 PUSH4 0x7B9E618D EQ PUSH2 0x93 JUMPI DUP4 PUSH4 0x8DA5CB5B EQ PUSH2 0x1FE JUMPI DUP4 PUSH4 0xA036F25B EQ PUSH2 0x1DC JUMPI DUP4 PUSH4 0xA0ACD088 EQ PUSH2 0x98 JUMPI POP POP POP PUSH4 0xAC5F9AD1 EQ PUSH2 0x93 JUMPI PUSH1 0x0 DUP1 REVERT JUMPDEST PUSH2 0x393 JUMP JUMPDEST CALLVALUE PUSH2 0x1D8 JUMPI PUSH1 0x60 CALLDATASIZE PUSH1 0x3 NOT ADD SLT PUSH2 0x1D8 JUMPI DUP1 CALLDATALOAD SWAP2 PUSH1 0x24 CALLDATALOAD PUSH5 0xFFFFFFFFFF SWAP3 DUP4 DUP3 AND DUP1 SWAP3 SUB PUSH2 0x1D4 JUMPI PUSH1 0x44 CALLDATALOAD SWAP4 CALLER DUP8 MSTORE PUSH1 0x1 PUSH1 0x20 MSTORE PUSH1 0xFF DUP5 DUP9 KECCAK256 SLOAD AND DUP1 ISZERO PUSH2 0x1C1 JUMPI JUMPDEST ISZERO PUSH2 0x18F JUMPI DUP6 ISZERO PUSH2 0x164 JUMPI TIMESTAMP AND DUP3 LT PUSH2 0x13B JUMPI PUSH1 0x2 DUP6 SWAP1 SSTORE PUSH1 0x3 DUP1 SLOAD PUSH5 0xFFFFFFFFFF NOT AND DUP4 OR SWAP1 SSTORE DUP4 SWAP1 SSTORE DUP2 MLOAD SWAP4 DUP5 MSTORE PUSH1 0x20 DUP5 ADD MSTORE DUP3 ADD MSTORE PUSH32 0xE891E89ADA2CC8B876EE034960692957C23A753DE6BCFF6CF02A8A3A8C5F8614 SWAP1 PUSH1 0x60 SWAP1 LOG1 DUP1 RETURN JUMPDEST PUSH1 0x64 SWAP1 DUP4 MLOAD SWAP1 PUSH3 0x461BCD PUSH1 0xE5 SHL DUP3 MSTORE PUSH1 0x20 DUP2 DUP4 ADD MSTORE PUSH1 0x24 DUP3 ADD MSTORE PUSH4 0x1C185CDD PUSH1 0xE2 SHL PUSH1 0x44 DUP3 ADD MSTORE REVERT JUMPDEST DUP4 MLOAD PUSH3 0x461BCD PUSH1 0xE5 SHL DUP2 MSTORE PUSH1 0x20 DUP2 DUP5 ADD MSTORE PUSH1 0x5 PUSH1 0x24 DUP3 ADD MSTORE PUSH5 0x6E61763D3 PUSH1 0xDC SHL PUSH1 0x44 DUP3 ADD MSTORE PUSH1 0x64 SWAP1 REVERT JUMPDEST DUP4 MLOAD PUSH3 0x461BCD PUSH1 0xE5 SHL DUP2 MSTORE PUSH1 0x20 DUP2 DUP5 ADD MSTORE PUSH1 0xC PUSH1 0x24 DUP3 ADD MSTORE PUSH12 0x3737BA1037B832B930BA37B9 PUSH1 0xA1 SHL PUSH1 0x44 DUP3 ADD MSTORE PUSH1 0x64 SWAP1 REVERT JUMPDEST POP DUP7 SLOAD PUSH1 0x1 PUSH1 0x1 PUSH1 0xA0 SHL SUB AND CALLER EQ PUSH2 0xDA JUMP JUMPDEST DUP6 DUP1 REVERT JUMPDEST DUP3 DUP1 REVERT JUMPDEST POP CALLVALUE PUSH2 0x1FA JUMPI DUP2 PUSH1 0x3 NOT CALLDATASIZE ADD SLT PUSH2 0x1FA JUMPI PUSH1 0x20 SWAP1 PUSH1 0x2 SLOAD SWAP1 MLOAD SWAP1 DUP2 MSTORE RETURN JUMPDEST POP DUP1 REVERT JUMPDEST POP CALLVALUE PUSH2 0x1FA JUMPI DUP2 PUSH1 0x3 NOT CALLDATASIZE ADD SLT PUSH2 0x1FA JUMPI SWAP1 SLOAD SWAP1 MLOAD PUSH1 0x1 PUSH1 0x1 PUSH1 0xA0 SHL SUB SWAP1 SWAP2 AND DUP2 MSTORE PUSH1 0x20 SWAP1 RETURN JUMPDEST POP CALLVALUE PUSH2 0x1FA JUMPI DUP2 PUSH1 0x3 NOT CALLDATASIZE ADD SLT PUSH2 0x1FA JUMPI PUSH1 0x20 SWAP1 PUSH5 0xFFFFFFFFFF PUSH1 0x3 SLOAD AND SWAP1 MLOAD SWAP1 DUP2 MSTORE RETURN JUMPDEST POP CALLVALUE PUSH2 0x1FA JUMPI DUP1 PUSH1 0x3 NOT CALLDATASIZE ADD SLT PUSH2 0x1FA JUMPI PUSH2 0x263 PUSH2 0x378 JUMP JUMPDEST SWAP1 PUSH1 0x24 CALLDATALOAD SWAP2 DUP3 ISZERO ISZERO DUP1 SWAP4 SUB PUSH2 0x2A5 JUMPI DUP4 SLOAD PUSH1 0x1 PUSH1 0x1 PUSH1 0xA0 SHL SUB SWAP2 SWAP1 PUSH2 0x28B SWAP1 DUP4 AND CALLER EQ PUSH2 0x3D8 JUMP JUMPDEST AND DUP4 MSTORE PUSH1 0x1 PUSH1 0x20 MSTORE DUP3 KECCAK256 SWAP1 PUSH1 0xFF DUP1 NOT DUP4 SLOAD AND SWAP2 AND OR SWAP1 SSTORE DUP1 RETURN JUMPDEST DUP4 DUP1 REVERT JUMPDEST CALLVALUE PUSH2 0x1D8 JUMPI DUP3 PUSH1 0x3 NOT CALLDATASIZE ADD SLT PUSH2 0x1D8 JUMPI PUSH1 0x20 SWAP3 POP SLOAD SWAP1 MLOAD SWAP1 DUP2 MSTORE RETURN JUMPDEST POP CALLVALUE PUSH2 0x1FA JUMPI PUSH1 0x20 CALLDATASIZE PUSH1 0x3 NOT ADD SLT PUSH2 0x1FA JUMPI PUSH1 0x20 SWAP2 PUSH1 0xFF SWAP1 DUP3 SWAP1 PUSH1 0x1 PUSH1 0x1 PUSH1 0xA0 SHL SUB PUSH2 0x2EF PUSH2 0x378 JUMP JUMPDEST AND DUP2 MSTORE PUSH1 0x1 DUP6 MSTORE KECCAK256 SLOAD AND SWAP1 MLOAD SWAP1 ISZERO ISZERO DUP2 MSTORE RETURN JUMPDEST CALLVALUE PUSH2 0x1D8 JUMPI PUSH1 0x20 CALLDATASIZE PUSH1 0x3 NOT ADD SLT PUSH2 0x1D8 JUMPI PUSH2 0x31B PUSH2 0x378 JUMP JUMPDEST DUP4 SLOAD SWAP2 SWAP1 PUSH1 0x1 PUSH1 0x1 PUSH1 0xA0 SHL SUB SWAP1 PUSH2 0x335 CALLER DUP4 DUP7 AND EQ PUSH2 0x3D8 JUMP JUMPDEST AND SWAP3 DUP4 ISZERO PUSH2 0x34F JUMPI POP POP PUSH1 0x1 PUSH1 0x1 PUSH1 0xA0 SHL SUB NOT AND OR DUP2 SSTORE DUP1 RETURN JUMPDEST PUSH1 0x64 SWAP3 POP MLOAD SWAP1 PUSH3 0x461BCD PUSH1 0xE5 SHL DUP3 MSTORE PUSH1 0x20 DUP2 DUP4 ADD MSTORE PUSH1 0x24 DUP3 ADD MSTORE PUSH4 0x7A65726F PUSH1 0xE0 SHL PUSH1 0x44 DUP3 ADD MSTORE REVERT JUMPDEST PUSH1 0x4 CALLDATALOAD SWAP1 PUSH1 0x1 PUSH1 0x1 PUSH1 0xA0 SHL SUB DUP3 AND DUP3 SUB PUSH2 0x38E JUMPI JUMP JUMPDEST PUSH1 0x0 DUP1 REVERT JUMPDEST CALLVALUE PUSH2 0x38E JUMPI PUSH1 0x0 CALLDATASIZE PUSH1 0x3 NOT ADD SLT PUSH2 0x38E JUMPI PUSH1 0x40 MLOAD PUSH32 0x0 PUSH1 0x1 PUSH1 0x1 PUSH1 0xA0 SHL SUB AND DUP2 MSTORE PUSH1 0x20 SWAP1 RETURN JUMPDEST ISZERO PUSH2 0x3DF JUMPI JUMP JUMPDEST PUSH1 0x40 MLOAD PUSH3 0x461BCD PUSH1 0xE5 SHL DUP2 MSTORE PUSH1 0x20 PUSH1 0x4 DUP3 ADD MSTORE PUSH1 0x9 PUSH1 0x24 DUP3 ADD MSTORE PUSH9 0x3737BA1037BBB732B9 PUSH1 0xB9 SHL PUSH1 0x44 DUP3 ADD MSTORE PUSH1 0x64 SWAP1 REVERT INVALID LOG2 PUSH5 0x6970667358 0x22 SLT KECCAK256 DUP4 0xDC CALLCODE 0xD0 0xEB PUSH22 0xBE2255A0C8286F546075340DCBE9511ECF3F384C65E4 0x5C GT PUSH13 0x7E64736F6C6343000814003300 "},"methodIdentifiers":{"effectiveFrom()":"5f7e9e67","navPerToken()":"a036f25b","operators(address)":"13e7c9d8","owner()":"8da5cb5b","reportHash()":"3c81ba4f","setOperator(address,bool)":"558a7297","setOwner(address)":"13af4035","settlementToken()":"7b9e618d","settlementTokenAddress()":"ac5f9ad1","updateNAV(uint256,uint40,bytes32)":"a0acd088"}}}}}