{"contracts/vault/RedemptionVault.sol":{"RedemptionVault":{"abi":[{"inputs":[{"internalType":"address","name":"_owner","type":"address"},{"internalType":"address","name":"_stoToken","type":"address"},{"internalType":"address","name":"_navOracle","type":"address"},{"internalType":"address","name":"_settlement","type":"address"}],"stateMutability":"nonpayable","type":"constructor"},{"anonymous":false,"inputs":[{"indexed":true,"internalType":"uint256","name":"requestId","type":"uint256"},{"indexed":true,"internalType":"address","name":"operator","type":"address"}],"name":"RedemptionApproved","type":"event"},{"anonymous":false,"inputs":[{"indexed":true,"internalType":"uint256","name":"requestId","type":"uint256"},{"indexed":true,"internalType":"address","name":"investor","type":"address"},{"indexed":false,"internalType":"uint256","name":"stablecoinAmount","type":"uint256"}],"name":"RedemptionClaimed","type":"event"},{"anonymous":false,"inputs":[{"indexed":true,"internalType":"uint256","name":"requestId","type":"uint256"},{"indexed":true,"internalType":"address","name":"operator","type":"address"},{"indexed":false,"internalType":"string","name":"reason","type":"string"}],"name":"RedemptionRejected","type":"event"},{"anonymous":false,"inputs":[{"indexed":true,"internalType":"uint256","name":"requestId","type":"uint256"},{"indexed":true,"internalType":"address","name":"investor","type":"address"},{"indexed":false,"internalType":"uint256","name":"tokenAmount","type":"uint256"},{"indexed":false,"internalType":"uint256","name":"navSnapshot","type":"uint256"},{"indexed":false,"internalType":"uint40","name":"requestedAt","type":"uint40"}],"name":"RedemptionRequested","type":"event"},{"inputs":[{"internalType":"uint256","name":"requestId","type":"uint256"}],"name":"approve","outputs":[],"stateMutability":"nonpayable","type":"function"},{"inputs":[{"internalType":"uint256","name":"requestId","type":"uint256"}],"name":"claim","outputs":[],"stateMutability":"nonpayable","type":"function"},{"inputs":[{"internalType":"uint256","name":"stablecoinAmount","type":"uint256"}],"name":"fund","outputs":[],"stateMutability":"nonpayable","type":"function"},{"inputs":[],"name":"navOracle","outputs":[{"internalType":"contract INAVOracle","name":"","type":"address"}],"stateMutability":"view","type":"function"},{"inputs":[],"name":"nextRequestId","outputs":[{"internalType":"uint256","name":"","type":"uint256"}],"stateMutability":"view","type":"function"},{"inputs":[{"internalType":"address","name":"","type":"address"}],"name":"operators","outputs":[{"internalType":"bool","name":"","type":"bool"}],"stateMutability":"view","type":"function"},{"inputs":[],"name":"owner","outputs":[{"internalType":"address","name":"","type":"address"}],"stateMutability":"view","type":"function"},{"inputs":[{"internalType":"uint256","name":"requestId","type":"uint256"},{"internalType":"string","name":"reason","type":"string"}],"name":"reject","outputs":[],"stateMutability":"nonpayable","type":"function"},{"inputs":[{"internalType":"uint256","name":"tokenAmount","type":"uint256"}],"name":"requestRedemption","outputs":[{"internalType":"uint256","name":"requestId","type":"uint256"}],"stateMutability":"nonpayable","type":"function"},{"inputs":[{"internalType":"uint256","name":"","type":"uint256"}],"name":"requests","outputs":[{"internalType":"address","name":"investor","type":"address"},{"internalType":"uint256","name":"tokenAmount","type":"uint256"},{"internalType":"uint256","name":"navSnapshot","type":"uint256"},{"internalType":"uint256","name":"stableAmount","type":"uint256"},{"internalType":"uint40","name":"requestedAt","type":"uint40"},{"internalType":"enum RedemptionVault.Status","name":"status","type":"uint8"}],"stateMutability":"view","type":"function"},{"inputs":[],"name":"reserveAvailable","outputs":[{"internalType":"uint256","name":"","type":"uint256"}],"stateMutability":"view","type":"function"},{"inputs":[],"name":"reserveFunded","outputs":[{"internalType":"uint256","name":"","type":"uint256"}],"stateMutability":"view","type":"function"},{"inputs":[],"name":"reserveLocked","outputs":[{"internalType":"uint256","name":"","type":"uint256"}],"stateMutability":"view","type":"function"},{"inputs":[{"internalType":"address","name":"newOracle","type":"address"}],"name":"setNavOracle","outputs":[],"stateMutability":"nonpayable","type":"function"},{"inputs":[{"internalType":"address","name":"op","type":"address"},{"internalType":"bool","name":"enabled","type":"bool"}],"name":"setOperator","outputs":[],"stateMutability":"nonpayable","type":"function"},{"inputs":[{"internalType":"address","name":"newOwner","type":"address"}],"name":"setOwner","outputs":[],"stateMutability":"nonpayable","type":"function"},{"inputs":[],"name":"settlement","outputs":[{"internalType":"contract IERC20Minimal","name":"","type":"address"}],"stateMutability":"view","type":"function"},{"inputs":[],"name":"stoToken","outputs":[{"internalType":"contract ISecurityToken","name":"","type":"address"}],"stateMutability":"view","type":"function"},{"inputs":[{"internalType":"uint256","name":"amount","type":"uint256"},{"internalType":"address","name":"to","type":"address"}],"name":"withdrawUnlocked","outputs":[],"stateMutability":"nonpayable","type":"function"}],"evm":{"bytecode":{"linkReferences":{},"object":"60c0604090808252346200020f5760808162001394803803809162000025828562000214565b8339810103126200020f576200003b816200024e565b906020916200004c8383016200024e565b91620000686060620000608784016200024e565b92016200024e565b6001600160a01b03928316918215158062000203575b80620001f7575b80620001eb575b15620001c157836004928188938160018060a01b0319996000988b8a541617895516608052168097600254161760025516948560a052875192838092637b9e618d60e01b82525afa918215620001b657809262000173575b505016036200013f575051611130908162000264823960805181818161014e015281816107a501528181610a210152610d51015260a0518181816103ef0152818161093a01528181610abe01528181610c860152610eb60152f35b606491519062461bcd60e51b82526004820152600f60248201526e0dee4c2c6d8ca40dad2e6dac2e8c6d608b1b6044820152fd5b9091508482813d8311620001ae575b6200018e818362000214565b81010312620001ab5750620001a3906200024e565b3880620000e4565b80fd5b503d62000182565b8651903d90823e3d90fd5b865162461bcd60e51b815260048082018890526024820152637a65726f60e01b6044820152606490fd5b5083821615156200008c565b50838116151562000085565b5083851615156200007e565b600080fd5b601f909101601f19168101906001600160401b038211908210176200023857604052565b634e487b7160e01b600052604160045260246000fd5b51906001600160a01b03821682036200020f5756fe6040608081526004908136101561001557600080fd5b600090813560e01c80630ec95e0314610e0d57806313af403514610dbd57806313e7c9d814610d8057806313ee6b9714610d3d5780631e9ee55f14610c1c578063379607f51461099157806349d4640d146109695780635116063014610926578063558a7297146108c75780636a84a985146108a957806371d68a97146106b15780637ce96d2e1461069357806381d12c581461060457806387fa0844146105e65780638da5cb5b146105bf57806397eb1fdc14610595578063b759f9541461046a578063ca1d209d146103945763eeb3c910146100f257600080fd5b3461034e5760209283600319360112610390578035908115906101158215610f9c565b83516323b872dd60e01b815233828201908152306020820152604081018590526001600160a01b039691908890829081900360600181857f00000000000000000000000000000000000000000000000000000000000000008c165af1908115610359579061018a918391610363575b5061101e565b8187876002541687519485809263a036f25b60e01b82525afa928315610359578293610326575b50828502938585048414171561031357600354600019811461030057600101968760035564ffffffffff908142169588519160c0830183811067ffffffffffffffff8211176102eb579288969492888b8f948f8f909a80999760019c82998452338952818901958652838901968752670de0b6b3a764000060608a0198048852608089019e8f5260a089019d8e528c525289209451166bffffffffffffffffffffffff60a01b8554161784555160018401555160028301555160038201550194511691845493519160058310156102d857505065ff00000000009060281b169165ffffffffffff19161717905583519283528583015282820152827f486293ba7cd634c1dde815232de9fccd4ae8f492b3cbf213f09651b9a497b07260603393a351908152f35b634e487b7160e01b825260219052602490fd5b604186634e487b7160e01b6000525260246000fd5b634e487b7160e01b835260118252602483fd5b634e487b7160e01b825260119052602490fd5b9092508781813d8311610352575b61033e8183610fce565b8101031261034e575191386101b1565b5080fd5b503d610334565b86513d84823e3d90fd5b6103839150893d8b11610389575b61037b8183610fce565b810190611006565b38610184565b503d610371565b8280fd5b508234610390576020366003190112610390576103ea6020823580936103bb821515610f9c565b85516323b872dd60e01b8152339181019182523060208301526040820192909252909283918291606090910190565b0381877f00000000000000000000000000000000000000000000000000000000000000006001600160a01b03165af1928315610461575061043d92610435918591610443575061101e565b6005546110ed565b60055580f35b61045b915060203d81116103895761037b8183610fce565b85610184565b513d85823e3d90fd5b50823461039057602036600319011261039057803591338452600160205260ff81852054168015610582575b61049f90611055565b82845281602052808420908282019260ff845460281c16600581101561056f5760016104cb9114611090565b6005549160036104de60065480956110ca565b940154809410610535575050906104f4916110ed565b600655805465ff000000000019166502000000000017905533907fd51b9c949cd1d69185a9ef9f809e0ba99cf932bc119eb3ad686c918331a218188380a380f35b906020606492519162461bcd60e51b835282015260146024820152731c995cd95c9d99481a5b9cdd59999a58da595b9d60621b6044820152fd5b634e487b7160e01b875260218252602487fd5b5083546001600160a01b03163314610496565b503461034e578160031936011261034e576020906105b8600554600654906110ca565b9051908152f35b503461034e578160031936011261034e57905490516001600160a01b039091168152602090f35b503461034e578160031936011261034e576020906006549051908152f35b5090346106905760203660031901126106905782358152826020528181209064ffffffffff60018060a01b038354169360018401549360028101548760038301549201549260ff8460281c1696815198895260208901528701526060860152166080840152600582101561067d5760c0838360a0820152f35b634e487b7160e01b815260218452602490fd5b80fd5b503461034e578160031936011261034e576020906005549051908152f35b5082346103905781600319360112610390578035906024359267ffffffffffffffff938481116108a557366023820112156108a557808301359485116108a55736602486830101116108a5573386526020926001845260ff83882054168015610892575b61071e90611055565b848752808452828720818101805460ff8160281c16600581101561087f5791650300000000006107a1949261075660018b9614611090565b65ff000000000019161790558054600190910154865163a9059cbb60e01b81526001600160a01b0392831686820190815260208101929092529384929183918d918391604090910190565b03927f0000000000000000000000000000000000000000000000000000000000000000165af1908115610875578891610858575b501561082c5750908460247f66805c428365b7fad5b3d484ba618ccea991d43a38ea0d97de8d0b0a9591fcf7949382845195808752860152018284013785818684010152813395601f80199101168101030190a380f35b825162461bcd60e51b815290810184905260066024820152651c99599d5b9960d21b6044820152606490fd5b61086f9150853d87116103895761037b8183610fce565b886107d5565b84513d8a823e3d90fd5b634e487b7160e01b8b526021855260248bfd5b5086546001600160a01b03163314610715565b8580fd5b503461034e578160031936011261034e576020906003549051908152f35b503461034e578060031936011261034e576108e0610f49565b90602435918215158093036109225783546001600160a01b0391906109089083163314610f64565b168352600160205282209060ff8019835416911617905580f35b8380fd5b503461034e578160031936011261034e57517f00000000000000000000000000000000000000000000000000000000000000006001600160a01b03168152602090f35b503461034e578160031936011261034e5760025490516001600160a01b039091168152602090f35b5082903461039057602080600319360112610922578235918285528382528085208481019081549160ff8360281c166005811015610c0957600203610bd75781546001600160a01b03939084163303610ba557650400000000009065ff000000000019161790556003810195610a0a87546006546110ca565b600655610a1a87546005546110ca565b60055587837f0000000000000000000000000000000000000000000000000000000000000000166001840154813b15610390578651632770a7eb60e21b81523085820190815260208101929092529291839182908490829060400103925af18015610b6d57610b77575b5081548754855163a9059cbb60e01b81529185166001600160a01b0316838301908152602081019190915286908290819060400103818c887f0000000000000000000000000000000000000000000000000000000000000000165af1908115610b6d578991610b50575b5015610b275750907fa15008b6e695cc35d35421608ccb0ed390dab78c54707b1be30293cb76296c81939291541694549051908152a380f35b835162461bcd60e51b8152908101859052600360248201526270617960e81b6044820152606490fd5b610b679150863d88116103895761037b8183610fce565b89610aee565b85513d8b823e3d90fd5b67ffffffffffffffff8199929911610b925784529688610a84565b634e487b7160e01b825260418952602482fd5b845162461bcd60e51b8152808901879052600c60248201526b3737ba1034b73b32b9ba37b960a11b6044820152606490fd5b835162461bcd60e51b8152808801869052600c60248201526b1b9bdd08185c1c1c9bdd995960a21b6044820152606490fd5b634e487b7160e01b895260218852602489fd5b5082346103905760208060031936011261092257610c38610f49565b84546001600160a01b0394918591610c539083163314610f64565b1693610c60851515610f9c565b8151637b9e618d60e01b81529083828681895afa918215610d33578792610cf7575b50807f000000000000000000000000000000000000000000000000000000000000000016911603610ccb575050506bffffffffffffffffffffffff60a01b600254161760025580f35b5162461bcd60e51b81529182015260086024820152670dad2e6dac2e8c6d60c31b604482015260649150fd5b9091508381813d8311610d2c575b610d0f8183610fce565b81010312610d2857518181168103610d28579087610c82565b8680fd5b503d610d05565b83513d89823e3d90fd5b503461034e578160031936011261034e57517f00000000000000000000000000000000000000000000000000000000000000006001600160a01b03168152602090f35b503461034e57602036600319011261034e5760209160ff9082906001600160a01b03610daa610f49565b1681526001855220541690519015158152f35b823461069057602036600319011261069057610dd7610f49565b8154906001600160a01b0390610df03383851614610f64565b1690610dfd821515610f9c565b6001600160a01b03191617815580f35b5082346103905781600319360112610390578035906001600160a01b039060243590828216808303610d2857610e5290610e4b858954163314610f64565b1515610f9c565b600554610e61600654826110ca565b8511610f1d57918660209492610e7b87610eb298966110ca565b600555875163a9059cbb60e01b81526001600160a01b03909316908301908152602081019490945290948593849291839160400190565b03927f0000000000000000000000000000000000000000000000000000000000000000165af1908115610f1157610ef092508391610ef3575061101e565b80f35b610f0b915060203d81116103895761037b8183610fce565b83610184565b505051903d90823e3d90fd5b855162461bcd60e51b815260208184015260066024820152651b1bd8dad95960d21b6044820152606490fd5b600435906001600160a01b0382168203610f5f57565b600080fd5b15610f6b57565b60405162461bcd60e51b81526020600482015260096024820152683737ba1037bbb732b960b91b6044820152606490fd5b15610fa357565b606460405162461bcd60e51b81526020600482015260046024820152637a65726f60e01b6044820152fd5b90601f8019910116810190811067ffffffffffffffff821117610ff057604052565b634e487b7160e01b600052604160045260246000fd5b90816020910312610f5f57518015158103610f5f5790565b1561102557565b60405162461bcd60e51b81526020600482015260086024820152673a3930b739b332b960c11b6044820152606490fd5b1561105c57565b60405162461bcd60e51b815260206004820152600c60248201526b3737ba1037b832b930ba37b960a11b6044820152606490fd5b1561109757565b60405162461bcd60e51b815260206004820152600b60248201526a6e6f742070656e64696e6760a81b6044820152606490fd5b919082039182116110d757565b634e487b7160e01b600052601160045260246000fd5b919082018092116110d75756fea264697066735822122079fa9ac2834afd7b385f4a3b9805e577d94a12dc1874fb32aa8c92e9b3c9332c64736f6c63430008140033","opcodes":"PUSH1 0xC0 PUSH1 0x40 SWAP1 DUP1 DUP3 MSTORE CALLVALUE PUSH3 0x20F JUMPI PUSH1 0x80 DUP2 PUSH3 0x1394 DUP1 CODESIZE SUB DUP1 SWAP2 PUSH3 0x25 DUP3 DUP6 PUSH3 0x214 JUMP JUMPDEST DUP4 CODECOPY DUP2 ADD SUB SLT PUSH3 0x20F JUMPI PUSH3 0x3B DUP2 PUSH3 0x24E JUMP JUMPDEST SWAP1 PUSH1 0x20 SWAP2 PUSH3 0x4C DUP4 DUP4 ADD PUSH3 0x24E JUMP JUMPDEST SWAP2 PUSH3 0x68 PUSH1 0x60 PUSH3 0x60 DUP8 DUP5 ADD PUSH3 0x24E JUMP JUMPDEST SWAP3 ADD PUSH3 0x24E JUMP JUMPDEST PUSH1 0x1 PUSH1 0x1 PUSH1 0xA0 SHL SUB SWAP3 DUP4 AND SWAP2 DUP3 ISZERO ISZERO DUP1 PUSH3 0x203 JUMPI JUMPDEST DUP1 PUSH3 0x1F7 JUMPI JUMPDEST DUP1 PUSH3 0x1EB JUMPI JUMPDEST ISZERO PUSH3 0x1C1 JUMPI DUP4 PUSH1 0x4 SWAP3 DUP2 DUP9 SWAP4 DUP2 PUSH1 0x1 DUP1 PUSH1 0xA0 SHL SUB NOT SWAP10 PUSH1 0x0 SWAP9 DUP12 DUP11 SLOAD AND OR DUP10 SSTORE AND PUSH1 0x80 MSTORE AND DUP1 SWAP8 PUSH1 0x2 SLOAD AND OR PUSH1 0x2 SSTORE AND SWAP5 DUP6 PUSH1 0xA0 MSTORE DUP8 MLOAD SWAP3 DUP4 DUP1 SWAP3 PUSH4 0x7B9E618D PUSH1 0xE0 SHL DUP3 MSTORE GAS STATICCALL SWAP2 DUP3 ISZERO PUSH3 0x1B6 JUMPI DUP1 SWAP3 PUSH3 0x173 JUMPI JUMPDEST POP POP AND SUB PUSH3 0x13F JUMPI POP MLOAD PUSH2 0x1130 SWAP1 DUP2 PUSH3 0x264 DUP3 CODECOPY PUSH1 0x80 MLOAD DUP2 DUP2 DUP2 PUSH2 0x14E ADD MSTORE DUP2 DUP2 PUSH2 0x7A5 ADD MSTORE DUP2 DUP2 PUSH2 0xA21 ADD MSTORE PUSH2 0xD51 ADD MSTORE PUSH1 0xA0 MLOAD DUP2 DUP2 DUP2 PUSH2 0x3EF ADD MSTORE DUP2 DUP2 PUSH2 0x93A ADD MSTORE DUP2 DUP2 PUSH2 0xABE ADD MSTORE DUP2 DUP2 PUSH2 0xC86 ADD MSTORE PUSH2 0xEB6 ADD MSTORE RETURN JUMPDEST PUSH1 0x64 SWAP2 MLOAD SWAP1 PUSH3 0x461BCD PUSH1 0xE5 SHL DUP3 MSTORE PUSH1 0x4 DUP3 ADD MSTORE PUSH1 0xF PUSH1 0x24 DUP3 ADD MSTORE PUSH15 0xDEE4C2C6D8CA40DAD2E6DAC2E8C6D PUSH1 0x8B SHL PUSH1 0x44 DUP3 ADD MSTORE REVERT JUMPDEST SWAP1 SWAP2 POP DUP5 DUP3 DUP2 RETURNDATASIZE DUP4 GT PUSH3 0x1AE JUMPI JUMPDEST PUSH3 0x18E DUP2 DUP4 PUSH3 0x214 JUMP JUMPDEST DUP2 ADD SUB SLT PUSH3 0x1AB JUMPI POP PUSH3 0x1A3 SWAP1 PUSH3 0x24E JUMP JUMPDEST CODESIZE DUP1 PUSH3 0xE4 JUMP JUMPDEST DUP1 REVERT JUMPDEST POP RETURNDATASIZE PUSH3 0x182 JUMP JUMPDEST DUP7 MLOAD SWAP1 RETURNDATASIZE SWAP1 DUP3 RETURNDATACOPY RETURNDATASIZE SWAP1 REVERT JUMPDEST DUP7 MLOAD PUSH3 0x461BCD PUSH1 0xE5 SHL DUP2 MSTORE PUSH1 0x4 DUP1 DUP3 ADD DUP9 SWAP1 MSTORE PUSH1 0x24 DUP3 ADD MSTORE PUSH4 0x7A65726F PUSH1 0xE0 SHL PUSH1 0x44 DUP3 ADD MSTORE PUSH1 0x64 SWAP1 REVERT JUMPDEST POP DUP4 DUP3 AND ISZERO ISZERO PUSH3 0x8C JUMP JUMPDEST POP DUP4 DUP2 AND ISZERO ISZERO PUSH3 0x85 JUMP JUMPDEST POP DUP4 DUP6 AND ISZERO ISZERO PUSH3 0x7E JUMP JUMPDEST PUSH1 0x0 DUP1 REVERT JUMPDEST PUSH1 0x1F SWAP1 SWAP2 ADD PUSH1 0x1F NOT AND DUP2 ADD SWAP1 PUSH1 0x1 PUSH1 0x1 PUSH1 0x40 SHL SUB DUP3 GT SWAP1 DUP3 LT OR PUSH3 0x238 JUMPI PUSH1 0x40 MSTORE JUMP JUMPDEST PUSH4 0x4E487B71 PUSH1 0xE0 SHL PUSH1 0x0 MSTORE PUSH1 0x41 PUSH1 0x4 MSTORE PUSH1 0x24 PUSH1 0x0 REVERT JUMPDEST MLOAD SWAP1 PUSH1 0x1 PUSH1 0x1 PUSH1 0xA0 SHL SUB DUP3 AND DUP3 SUB PUSH3 0x20F JUMPI JUMP INVALID PUSH1 0x40 PUSH1 0x80 DUP2 MSTORE PUSH1 0x4 SWAP1 DUP2 CALLDATASIZE LT ISZERO PUSH2 0x15 JUMPI PUSH1 0x0 DUP1 REVERT JUMPDEST PUSH1 0x0 SWAP1 DUP2 CALLDATALOAD PUSH1 0xE0 SHR DUP1 PUSH4 0xEC95E03 EQ PUSH2 0xE0D JUMPI DUP1 PUSH4 0x13AF4035 EQ PUSH2 0xDBD JUMPI DUP1 PUSH4 0x13E7C9D8 EQ PUSH2 0xD80 JUMPI DUP1 PUSH4 0x13EE6B97 EQ PUSH2 0xD3D JUMPI DUP1 PUSH4 0x1E9EE55F EQ PUSH2 0xC1C JUMPI DUP1 PUSH4 0x379607F5 EQ PUSH2 0x991 JUMPI DUP1 PUSH4 0x49D4640D EQ PUSH2 0x969 JUMPI DUP1 PUSH4 0x51160630 EQ PUSH2 0x926 JUMPI DUP1 PUSH4 0x558A7297 EQ PUSH2 0x8C7 JUMPI DUP1 PUSH4 0x6A84A985 EQ PUSH2 0x8A9 JUMPI DUP1 PUSH4 0x71D68A97 EQ PUSH2 0x6B1 JUMPI DUP1 PUSH4 0x7CE96D2E EQ PUSH2 0x693 JUMPI DUP1 PUSH4 0x81D12C58 EQ PUSH2 0x604 JUMPI DUP1 PUSH4 0x87FA0844 EQ PUSH2 0x5E6 JUMPI DUP1 PUSH4 0x8DA5CB5B EQ PUSH2 0x5BF JUMPI DUP1 PUSH4 0x97EB1FDC EQ PUSH2 0x595 JUMPI DUP1 PUSH4 0xB759F954 EQ PUSH2 0x46A JUMPI DUP1 PUSH4 0xCA1D209D EQ PUSH2 0x394 JUMPI PUSH4 0xEEB3C910 EQ PUSH2 0xF2 JUMPI PUSH1 0x0 DUP1 REVERT JUMPDEST CALLVALUE PUSH2 0x34E JUMPI PUSH1 0x20 SWAP3 DUP4 PUSH1 0x3 NOT CALLDATASIZE ADD SLT PUSH2 0x390 JUMPI DUP1 CALLDATALOAD SWAP1 DUP2 ISZERO SWAP1 PUSH2 0x115 DUP3 ISZERO PUSH2 0xF9C JUMP JUMPDEST DUP4 MLOAD PUSH4 0x23B872DD PUSH1 0xE0 SHL DUP2 MSTORE CALLER DUP3 DUP3 ADD SWAP1 DUP2 MSTORE ADDRESS PUSH1 0x20 DUP3 ADD MSTORE PUSH1 0x40 DUP2 ADD DUP6 SWAP1 MSTORE PUSH1 0x1 PUSH1 0x1 PUSH1 0xA0 SHL SUB SWAP7 SWAP2 SWAP1 DUP9 SWAP1 DUP3 SWAP1 DUP2 SWAP1 SUB PUSH1 0x60 ADD DUP2 DUP6 PUSH32 0x0 DUP13 AND GAS CALL SWAP1 DUP2 ISZERO PUSH2 0x359 JUMPI SWAP1 PUSH2 0x18A SWAP2 DUP4 SWAP2 PUSH2 0x363 JUMPI JUMPDEST POP PUSH2 0x101E JUMP JUMPDEST DUP2 DUP8 DUP8 PUSH1 0x2 SLOAD AND DUP8 MLOAD SWAP5 DUP6 DUP1 SWAP3 PUSH4 0xA036F25B PUSH1 0xE0 SHL DUP3 MSTORE GAS STATICCALL SWAP3 DUP4 ISZERO PUSH2 0x359 JUMPI DUP3 SWAP4 PUSH2 0x326 JUMPI JUMPDEST POP DUP3 DUP6 MUL SWAP4 DUP6 DUP6 DIV DUP5 EQ OR ISZERO PUSH2 0x313 JUMPI PUSH1 0x3 SLOAD PUSH1 0x0 NOT DUP2 EQ PUSH2 0x300 JUMPI PUSH1 0x1 ADD SWAP7 DUP8 PUSH1 0x3 SSTORE PUSH5 0xFFFFFFFFFF SWAP1 DUP2 TIMESTAMP AND SWAP6 DUP9 MLOAD SWAP2 PUSH1 0xC0 DUP4 ADD DUP4 DUP2 LT PUSH8 0xFFFFFFFFFFFFFFFF DUP3 GT OR PUSH2 0x2EB JUMPI SWAP3 DUP9 SWAP7 SWAP5 SWAP3 DUP9 DUP12 DUP16 SWAP5 DUP16 DUP16 SWAP1 SWAP11 DUP1 SWAP10 SWAP8 PUSH1 0x1 SWAP13 DUP3 SWAP10 DUP5 MSTORE CALLER DUP10 MSTORE DUP2 DUP10 ADD SWAP6 DUP7 MSTORE DUP4 DUP10 ADD SWAP7 DUP8 MSTORE PUSH8 0xDE0B6B3A7640000 PUSH1 0x60 DUP11 ADD SWAP9 DIV DUP9 MSTORE PUSH1 0x80 DUP10 ADD SWAP15 DUP16 MSTORE PUSH1 0xA0 DUP10 ADD SWAP14 DUP15 MSTORE DUP13 MSTORE MSTORE DUP10 KECCAK256 SWAP5 MLOAD AND PUSH12 0xFFFFFFFFFFFFFFFFFFFFFFFF PUSH1 0xA0 SHL DUP6 SLOAD AND OR DUP5 SSTORE MLOAD PUSH1 0x1 DUP5 ADD SSTORE MLOAD PUSH1 0x2 DUP4 ADD SSTORE MLOAD PUSH1 0x3 DUP3 ADD SSTORE ADD SWAP5 MLOAD AND SWAP2 DUP5 SLOAD SWAP4 MLOAD SWAP2 PUSH1 0x5 DUP4 LT ISZERO PUSH2 0x2D8 JUMPI POP POP PUSH6 0xFF0000000000 SWAP1 PUSH1 0x28 SHL AND SWAP2 PUSH6 0xFFFFFFFFFFFF NOT AND OR OR SWAP1 SSTORE DUP4 MLOAD SWAP3 DUP4 MSTORE DUP6 DUP4 ADD MSTORE DUP3 DUP3 ADD MSTORE DUP3 PUSH32 0x486293BA7CD634C1DDE815232DE9FCCD4AE8F492B3CBF213F09651B9A497B072 PUSH1 0x60 CALLER SWAP4 LOG3 MLOAD SWAP1 DUP2 MSTORE RETURN JUMPDEST PUSH4 0x4E487B71 PUSH1 0xE0 SHL DUP3 MSTORE PUSH1 0x21 SWAP1 MSTORE PUSH1 0x24 SWAP1 REVERT JUMPDEST PUSH1 0x41 DUP7 PUSH4 0x4E487B71 PUSH1 0xE0 SHL PUSH1 0x0 MSTORE MSTORE PUSH1 0x24 PUSH1 0x0 REVERT JUMPDEST PUSH4 0x4E487B71 PUSH1 0xE0 SHL DUP4 MSTORE PUSH1 0x11 DUP3 MSTORE PUSH1 0x24 DUP4 REVERT JUMPDEST PUSH4 0x4E487B71 PUSH1 0xE0 SHL DUP3 MSTORE PUSH1 0x11 SWAP1 MSTORE PUSH1 0x24 SWAP1 REVERT JUMPDEST SWAP1 SWAP3 POP DUP8 DUP2 DUP2 RETURNDATASIZE DUP4 GT PUSH2 0x352 JUMPI JUMPDEST PUSH2 0x33E DUP2 DUP4 PUSH2 0xFCE JUMP JUMPDEST DUP2 ADD SUB SLT PUSH2 0x34E JUMPI MLOAD SWAP2 CODESIZE PUSH2 0x1B1 JUMP JUMPDEST POP DUP1 REVERT JUMPDEST POP RETURNDATASIZE PUSH2 0x334 JUMP JUMPDEST DUP7 MLOAD RETURNDATASIZE DUP5 DUP3 RETURNDATACOPY RETURNDATASIZE SWAP1 REVERT JUMPDEST PUSH2 0x383 SWAP2 POP DUP10 RETURNDATASIZE DUP12 GT PUSH2 0x389 JUMPI JUMPDEST PUSH2 0x37B DUP2 DUP4 PUSH2 0xFCE JUMP JUMPDEST DUP2 ADD SWAP1 PUSH2 0x1006 JUMP JUMPDEST CODESIZE PUSH2 0x184 JUMP JUMPDEST POP RETURNDATASIZE PUSH2 0x371 JUMP JUMPDEST DUP3 DUP1 REVERT JUMPDEST POP DUP3 CALLVALUE PUSH2 0x390 JUMPI PUSH1 0x20 CALLDATASIZE PUSH1 0x3 NOT ADD SLT PUSH2 0x390 JUMPI PUSH2 0x3EA PUSH1 0x20 DUP3 CALLDATALOAD DUP1 SWAP4 PUSH2 0x3BB DUP3 ISZERO ISZERO PUSH2 0xF9C JUMP JUMPDEST DUP6 MLOAD PUSH4 0x23B872DD PUSH1 0xE0 SHL DUP2 MSTORE CALLER SWAP2 DUP2 ADD SWAP2 DUP3 MSTORE ADDRESS PUSH1 0x20 DUP4 ADD MSTORE PUSH1 0x40 DUP3 ADD SWAP3 SWAP1 SWAP3 MSTORE SWAP1 SWAP3 DUP4 SWAP2 DUP3 SWAP2 PUSH1 0x60 SWAP1 SWAP2 ADD SWAP1 JUMP JUMPDEST SUB DUP2 DUP8 PUSH32 0x0 PUSH1 0x1 PUSH1 0x1 PUSH1 0xA0 SHL SUB AND GAS CALL SWAP3 DUP4 ISZERO PUSH2 0x461 JUMPI POP PUSH2 0x43D SWAP3 PUSH2 0x435 SWAP2 DUP6 SWAP2 PUSH2 0x443 JUMPI POP PUSH2 0x101E JUMP JUMPDEST PUSH1 0x5 SLOAD PUSH2 0x10ED JUMP JUMPDEST PUSH1 0x5 SSTORE DUP1 RETURN JUMPDEST PUSH2 0x45B SWAP2 POP PUSH1 0x20 RETURNDATASIZE DUP2 GT PUSH2 0x389 JUMPI PUSH2 0x37B DUP2 DUP4 PUSH2 0xFCE JUMP JUMPDEST DUP6 PUSH2 0x184 JUMP JUMPDEST MLOAD RETURNDATASIZE DUP6 DUP3 RETURNDATACOPY RETURNDATASIZE SWAP1 REVERT JUMPDEST POP DUP3 CALLVALUE PUSH2 0x390 JUMPI PUSH1 0x20 CALLDATASIZE PUSH1 0x3 NOT ADD SLT PUSH2 0x390 JUMPI DUP1 CALLDATALOAD SWAP2 CALLER DUP5 MSTORE PUSH1 0x1 PUSH1 0x20 MSTORE PUSH1 0xFF DUP2 DUP6 KECCAK256 SLOAD AND DUP1 ISZERO PUSH2 0x582 JUMPI JUMPDEST PUSH2 0x49F SWAP1 PUSH2 0x1055 JUMP JUMPDEST DUP3 DUP5 MSTORE DUP2 PUSH1 0x20 MSTORE DUP1 DUP5 KECCAK256 SWAP1 DUP3 DUP3 ADD SWAP3 PUSH1 0xFF DUP5 SLOAD PUSH1 0x28 SHR AND PUSH1 0x5 DUP2 LT ISZERO PUSH2 0x56F JUMPI PUSH1 0x1 PUSH2 0x4CB SWAP2 EQ PUSH2 0x1090 JUMP JUMPDEST PUSH1 0x5 SLOAD SWAP2 PUSH1 0x3 PUSH2 0x4DE PUSH1 0x6 SLOAD DUP1 SWAP6 PUSH2 0x10CA JUMP JUMPDEST SWAP5 ADD SLOAD DUP1 SWAP5 LT PUSH2 0x535 JUMPI POP POP SWAP1 PUSH2 0x4F4 SWAP2 PUSH2 0x10ED JUMP JUMPDEST PUSH1 0x6 SSTORE DUP1 SLOAD PUSH6 0xFF0000000000 NOT AND PUSH6 0x20000000000 OR SWAP1 SSTORE CALLER SWAP1 PUSH32 0xD51B9C949CD1D69185A9EF9F809E0BA99CF932BC119EB3AD686C918331A21818 DUP4 DUP1 LOG3 DUP1 RETURN JUMPDEST SWAP1 PUSH1 0x20 PUSH1 0x64 SWAP3 MLOAD SWAP2 PUSH3 0x461BCD PUSH1 0xE5 SHL DUP4 MSTORE DUP3 ADD MSTORE PUSH1 0x14 PUSH1 0x24 DUP3 ADD MSTORE PUSH20 0x1C995CD95C9D99481A5B9CDD59999A58DA595B9D PUSH1 0x62 SHL PUSH1 0x44 DUP3 ADD MSTORE REVERT JUMPDEST PUSH4 0x4E487B71 PUSH1 0xE0 SHL DUP8 MSTORE PUSH1 0x21 DUP3 MSTORE PUSH1 0x24 DUP8 REVERT JUMPDEST POP DUP4 SLOAD PUSH1 0x1 PUSH1 0x1 PUSH1 0xA0 SHL SUB AND CALLER EQ PUSH2 0x496 JUMP JUMPDEST POP CALLVALUE PUSH2 0x34E JUMPI DUP2 PUSH1 0x3 NOT CALLDATASIZE ADD SLT PUSH2 0x34E JUMPI PUSH1 0x20 SWAP1 PUSH2 0x5B8 PUSH1 0x5 SLOAD PUSH1 0x6 SLOAD SWAP1 PUSH2 0x10CA JUMP JUMPDEST SWAP1 MLOAD SWAP1 DUP2 MSTORE RETURN JUMPDEST POP CALLVALUE PUSH2 0x34E JUMPI DUP2 PUSH1 0x3 NOT CALLDATASIZE ADD SLT PUSH2 0x34E JUMPI SWAP1 SLOAD SWAP1 MLOAD PUSH1 0x1 PUSH1 0x1 PUSH1 0xA0 SHL SUB SWAP1 SWAP2 AND DUP2 MSTORE PUSH1 0x20 SWAP1 RETURN JUMPDEST POP CALLVALUE PUSH2 0x34E JUMPI DUP2 PUSH1 0x3 NOT CALLDATASIZE ADD SLT PUSH2 0x34E JUMPI PUSH1 0x20 SWAP1 PUSH1 0x6 SLOAD SWAP1 MLOAD SWAP1 DUP2 MSTORE RETURN JUMPDEST POP SWAP1 CALLVALUE PUSH2 0x690 JUMPI PUSH1 0x20 CALLDATASIZE PUSH1 0x3 NOT ADD SLT PUSH2 0x690 JUMPI DUP3 CALLDATALOAD DUP2 MSTORE DUP3 PUSH1 0x20 MSTORE DUP2 DUP2 KECCAK256 SWAP1 PUSH5 0xFFFFFFFFFF PUSH1 0x1 DUP1 PUSH1 0xA0 SHL SUB DUP4 SLOAD AND SWAP4 PUSH1 0x1 DUP5 ADD SLOAD SWAP4 PUSH1 0x2 DUP2 ADD SLOAD DUP8 PUSH1 0x3 DUP4 ADD SLOAD SWAP3 ADD SLOAD SWAP3 PUSH1 0xFF DUP5 PUSH1 0x28 SHR AND SWAP7 DUP2 MLOAD SWAP9 DUP10 MSTORE PUSH1 0x20 DUP10 ADD MSTORE DUP8 ADD MSTORE PUSH1 0x60 DUP7 ADD MSTORE AND PUSH1 0x80 DUP5 ADD MSTORE PUSH1 0x5 DUP3 LT ISZERO PUSH2 0x67D JUMPI PUSH1 0xC0 DUP4 DUP4 PUSH1 0xA0 DUP3 ADD MSTORE RETURN JUMPDEST PUSH4 0x4E487B71 PUSH1 0xE0 SHL DUP2 MSTORE PUSH1 0x21 DUP5 MSTORE PUSH1 0x24 SWAP1 REVERT JUMPDEST DUP1 REVERT JUMPDEST POP CALLVALUE PUSH2 0x34E JUMPI DUP2 PUSH1 0x3 NOT CALLDATASIZE ADD SLT PUSH2 0x34E JUMPI PUSH1 0x20 SWAP1 PUSH1 0x5 SLOAD SWAP1 MLOAD SWAP1 DUP2 MSTORE RETURN JUMPDEST POP DUP3 CALLVALUE PUSH2 0x390 JUMPI DUP2 PUSH1 0x3 NOT CALLDATASIZE ADD SLT PUSH2 0x390 JUMPI DUP1 CALLDATALOAD SWAP1 PUSH1 0x24 CALLDATALOAD SWAP3 PUSH8 0xFFFFFFFFFFFFFFFF SWAP4 DUP5 DUP2 GT PUSH2 0x8A5 JUMPI CALLDATASIZE PUSH1 0x23 DUP3 ADD SLT ISZERO PUSH2 0x8A5 JUMPI DUP1 DUP4 ADD CALLDATALOAD SWAP5 DUP6 GT PUSH2 0x8A5 JUMPI CALLDATASIZE PUSH1 0x24 DUP7 DUP4 ADD ADD GT PUSH2 0x8A5 JUMPI CALLER DUP7 MSTORE PUSH1 0x20 SWAP3 PUSH1 0x1 DUP5 MSTORE PUSH1 0xFF DUP4 DUP9 KECCAK256 SLOAD AND DUP1 ISZERO PUSH2 0x892 JUMPI JUMPDEST PUSH2 0x71E SWAP1 PUSH2 0x1055 JUMP JUMPDEST DUP5 DUP8 MSTORE DUP1 DUP5 MSTORE DUP3 DUP8 KECCAK256 DUP2 DUP2 ADD DUP1 SLOAD PUSH1 0xFF DUP2 PUSH1 0x28 SHR AND PUSH1 0x5 DUP2 LT ISZERO PUSH2 0x87F JUMPI SWAP2 PUSH6 0x30000000000 PUSH2 0x7A1 SWAP5 SWAP3 PUSH2 0x756 PUSH1 0x1 DUP12 SWAP7 EQ PUSH2 0x1090 JUMP JUMPDEST PUSH6 0xFF0000000000 NOT AND OR SWAP1 SSTORE DUP1 SLOAD PUSH1 0x1 SWAP1 SWAP2 ADD SLOAD DUP7 MLOAD PUSH4 0xA9059CBB PUSH1 0xE0 SHL DUP2 MSTORE PUSH1 0x1 PUSH1 0x1 PUSH1 0xA0 SHL SUB SWAP3 DUP4 AND DUP7 DUP3 ADD SWAP1 DUP2 MSTORE PUSH1 0x20 DUP2 ADD SWAP3 SWAP1 SWAP3 MSTORE SWAP4 DUP5 SWAP3 SWAP2 DUP4 SWAP2 DUP14 SWAP2 DUP4 SWAP2 PUSH1 0x40 SWAP1 SWAP2 ADD SWAP1 JUMP JUMPDEST SUB SWAP3 PUSH32 0x0 AND GAS CALL SWAP1 DUP2 ISZERO PUSH2 0x875 JUMPI DUP9 SWAP2 PUSH2 0x858 JUMPI JUMPDEST POP ISZERO PUSH2 0x82C JUMPI POP SWAP1 DUP5 PUSH1 0x24 PUSH32 0x66805C428365B7FAD5B3D484BA618CCEA991D43A38EA0D97DE8D0B0A9591FCF7 SWAP5 SWAP4 DUP3 DUP5 MLOAD SWAP6 DUP1 DUP8 MSTORE DUP7 ADD MSTORE ADD DUP3 DUP5 ADD CALLDATACOPY DUP6 DUP2 DUP7 DUP5 ADD ADD MSTORE DUP2 CALLER SWAP6 PUSH1 0x1F DUP1 NOT SWAP2 ADD AND DUP2 ADD SUB ADD SWAP1 LOG3 DUP1 RETURN JUMPDEST DUP3 MLOAD PUSH3 0x461BCD PUSH1 0xE5 SHL DUP2 MSTORE SWAP1 DUP2 ADD DUP5 SWAP1 MSTORE PUSH1 0x6 PUSH1 0x24 DUP3 ADD MSTORE PUSH6 0x1C99599D5B99 PUSH1 0xD2 SHL PUSH1 0x44 DUP3 ADD MSTORE PUSH1 0x64 SWAP1 REVERT JUMPDEST PUSH2 0x86F SWAP2 POP DUP6 RETURNDATASIZE DUP8 GT PUSH2 0x389 JUMPI PUSH2 0x37B DUP2 DUP4 PUSH2 0xFCE JUMP JUMPDEST DUP9 PUSH2 0x7D5 JUMP JUMPDEST DUP5 MLOAD RETURNDATASIZE DUP11 DUP3 RETURNDATACOPY RETURNDATASIZE SWAP1 REVERT JUMPDEST PUSH4 0x4E487B71 PUSH1 0xE0 SHL DUP12 MSTORE PUSH1 0x21 DUP6 MSTORE PUSH1 0x24 DUP12 REVERT JUMPDEST POP DUP7 SLOAD PUSH1 0x1 PUSH1 0x1 PUSH1 0xA0 SHL SUB AND CALLER EQ PUSH2 0x715 JUMP JUMPDEST DUP6 DUP1 REVERT JUMPDEST POP CALLVALUE PUSH2 0x34E JUMPI DUP2 PUSH1 0x3 NOT CALLDATASIZE ADD SLT PUSH2 0x34E JUMPI PUSH1 0x20 SWAP1 PUSH1 0x3 SLOAD SWAP1 MLOAD SWAP1 DUP2 MSTORE RETURN JUMPDEST POP CALLVALUE PUSH2 0x34E JUMPI DUP1 PUSH1 0x3 NOT CALLDATASIZE ADD SLT PUSH2 0x34E JUMPI PUSH2 0x8E0 PUSH2 0xF49 JUMP JUMPDEST SWAP1 PUSH1 0x24 CALLDATALOAD SWAP2 DUP3 ISZERO ISZERO DUP1 SWAP4 SUB PUSH2 0x922 JUMPI DUP4 SLOAD PUSH1 0x1 PUSH1 0x1 PUSH1 0xA0 SHL SUB SWAP2 SWAP1 PUSH2 0x908 SWAP1 DUP4 AND CALLER EQ PUSH2 0xF64 JUMP JUMPDEST AND DUP4 MSTORE PUSH1 0x1 PUSH1 0x20 MSTORE DUP3 KECCAK256 SWAP1 PUSH1 0xFF DUP1 NOT DUP4 SLOAD AND SWAP2 AND OR SWAP1 SSTORE DUP1 RETURN JUMPDEST DUP4 DUP1 REVERT JUMPDEST POP CALLVALUE PUSH2 0x34E JUMPI DUP2 PUSH1 0x3 NOT CALLDATASIZE ADD SLT PUSH2 0x34E JUMPI MLOAD PUSH32 0x0 PUSH1 0x1 PUSH1 0x1 PUSH1 0xA0 SHL SUB AND DUP2 MSTORE PUSH1 0x20 SWAP1 RETURN JUMPDEST POP CALLVALUE PUSH2 0x34E JUMPI DUP2 PUSH1 0x3 NOT CALLDATASIZE ADD SLT PUSH2 0x34E JUMPI PUSH1 0x2 SLOAD SWAP1 MLOAD PUSH1 0x1 PUSH1 0x1 PUSH1 0xA0 SHL SUB SWAP1 SWAP2 AND DUP2 MSTORE PUSH1 0x20 SWAP1 RETURN JUMPDEST POP DUP3 SWAP1 CALLVALUE PUSH2 0x390 JUMPI PUSH1 0x20 DUP1 PUSH1 0x3 NOT CALLDATASIZE ADD SLT PUSH2 0x922 JUMPI DUP3 CALLDATALOAD SWAP2 DUP3 DUP6 MSTORE DUP4 DUP3 MSTORE DUP1 DUP6 KECCAK256 DUP5 DUP2 ADD SWAP1 DUP2 SLOAD SWAP2 PUSH1 0xFF DUP4 PUSH1 0x28 SHR AND PUSH1 0x5 DUP2 LT ISZERO PUSH2 0xC09 JUMPI PUSH1 0x2 SUB PUSH2 0xBD7 JUMPI DUP2 SLOAD PUSH1 0x1 PUSH1 0x1 PUSH1 0xA0 SHL SUB SWAP4 SWAP1 DUP5 AND CALLER SUB PUSH2 0xBA5 JUMPI PUSH6 0x40000000000 SWAP1 PUSH6 0xFF0000000000 NOT AND OR SWAP1 SSTORE PUSH1 0x3 DUP2 ADD SWAP6 PUSH2 0xA0A DUP8 SLOAD PUSH1 0x6 SLOAD PUSH2 0x10CA JUMP JUMPDEST PUSH1 0x6 SSTORE PUSH2 0xA1A DUP8 SLOAD PUSH1 0x5 SLOAD PUSH2 0x10CA JUMP JUMPDEST PUSH1 0x5 SSTORE DUP8 DUP4 PUSH32 0x0 AND PUSH1 0x1 DUP5 ADD SLOAD DUP2 EXTCODESIZE ISZERO PUSH2 0x390 JUMPI DUP7 MLOAD PUSH4 0x2770A7EB PUSH1 0xE2 SHL DUP2 MSTORE ADDRESS DUP6 DUP3 ADD SWAP1 DUP2 MSTORE PUSH1 0x20 DUP2 ADD SWAP3 SWAP1 SWAP3 MSTORE SWAP3 SWAP2 DUP4 SWAP2 DUP3 SWAP1 DUP5 SWAP1 DUP3 SWAP1 PUSH1 0x40 ADD SUB SWAP3 GAS CALL DUP1 ISZERO PUSH2 0xB6D JUMPI PUSH2 0xB77 JUMPI JUMPDEST POP DUP2 SLOAD DUP8 SLOAD DUP6 MLOAD PUSH4 0xA9059CBB PUSH1 0xE0 SHL DUP2 MSTORE SWAP2 DUP6 AND PUSH1 0x1 PUSH1 0x1 PUSH1 0xA0 SHL SUB AND DUP4 DUP4 ADD SWAP1 DUP2 MSTORE PUSH1 0x20 DUP2 ADD SWAP2 SWAP1 SWAP2 MSTORE DUP7 SWAP1 DUP3 SWAP1 DUP2 SWAP1 PUSH1 0x40 ADD SUB DUP2 DUP13 DUP9 PUSH32 0x0 AND GAS CALL SWAP1 DUP2 ISZERO PUSH2 0xB6D JUMPI DUP10 SWAP2 PUSH2 0xB50 JUMPI JUMPDEST POP ISZERO PUSH2 0xB27 JUMPI POP SWAP1 PUSH32 0xA15008B6E695CC35D35421608CCB0ED390DAB78C54707B1BE30293CB76296C81 SWAP4 SWAP3 SWAP2 SLOAD AND SWAP5 SLOAD SWAP1 MLOAD SWAP1 DUP2 MSTORE LOG3 DUP1 RETURN JUMPDEST DUP4 MLOAD PUSH3 0x461BCD PUSH1 0xE5 SHL DUP2 MSTORE SWAP1 DUP2 ADD DUP6 SWAP1 MSTORE PUSH1 0x3 PUSH1 0x24 DUP3 ADD MSTORE PUSH3 0x706179 PUSH1 0xE8 SHL PUSH1 0x44 DUP3 ADD MSTORE PUSH1 0x64 SWAP1 REVERT JUMPDEST PUSH2 0xB67 SWAP2 POP DUP7 RETURNDATASIZE DUP9 GT PUSH2 0x389 JUMPI PUSH2 0x37B DUP2 DUP4 PUSH2 0xFCE JUMP JUMPDEST DUP10 PUSH2 0xAEE JUMP JUMPDEST DUP6 MLOAD RETURNDATASIZE DUP12 DUP3 RETURNDATACOPY RETURNDATASIZE SWAP1 REVERT JUMPDEST PUSH8 0xFFFFFFFFFFFFFFFF DUP2 SWAP10 SWAP3 SWAP10 GT PUSH2 0xB92 JUMPI DUP5 MSTORE SWAP7 DUP9 PUSH2 0xA84 JUMP JUMPDEST PUSH4 0x4E487B71 PUSH1 0xE0 SHL DUP3 MSTORE PUSH1 0x41 DUP10 MSTORE PUSH1 0x24 DUP3 REVERT JUMPDEST DUP5 MLOAD PUSH3 0x461BCD PUSH1 0xE5 SHL DUP2 MSTORE DUP1 DUP10 ADD DUP8 SWAP1 MSTORE PUSH1 0xC PUSH1 0x24 DUP3 ADD MSTORE PUSH12 0x3737BA1034B73B32B9BA37B9 PUSH1 0xA1 SHL PUSH1 0x44 DUP3 ADD MSTORE PUSH1 0x64 SWAP1 REVERT JUMPDEST DUP4 MLOAD PUSH3 0x461BCD PUSH1 0xE5 SHL DUP2 MSTORE DUP1 DUP9 ADD DUP7 SWAP1 MSTORE PUSH1 0xC PUSH1 0x24 DUP3 ADD MSTORE PUSH12 0x1B9BDD08185C1C1C9BDD9959 PUSH1 0xA2 SHL PUSH1 0x44 DUP3 ADD MSTORE PUSH1 0x64 SWAP1 REVERT JUMPDEST PUSH4 0x4E487B71 PUSH1 0xE0 SHL DUP10 MSTORE PUSH1 0x21 DUP9 MSTORE PUSH1 0x24 DUP10 REVERT JUMPDEST POP DUP3 CALLVALUE PUSH2 0x390 JUMPI PUSH1 0x20 DUP1 PUSH1 0x3 NOT CALLDATASIZE ADD SLT PUSH2 0x922 JUMPI PUSH2 0xC38 PUSH2 0xF49 JUMP JUMPDEST DUP5 SLOAD PUSH1 0x1 PUSH1 0x1 PUSH1 0xA0 SHL SUB SWAP5 SWAP2 DUP6 SWAP2 PUSH2 0xC53 SWAP1 DUP4 AND CALLER EQ PUSH2 0xF64 JUMP JUMPDEST AND SWAP4 PUSH2 0xC60 DUP6 ISZERO ISZERO PUSH2 0xF9C JUMP JUMPDEST DUP2 MLOAD PUSH4 0x7B9E618D PUSH1 0xE0 SHL DUP2 MSTORE SWAP1 DUP4 DUP3 DUP7 DUP2 DUP10 GAS STATICCALL SWAP2 DUP3 ISZERO PUSH2 0xD33 JUMPI DUP8 SWAP3 PUSH2 0xCF7 JUMPI JUMPDEST POP DUP1 PUSH32 0x0 AND SWAP2 AND SUB PUSH2 0xCCB JUMPI POP POP POP PUSH12 0xFFFFFFFFFFFFFFFFFFFFFFFF PUSH1 0xA0 SHL PUSH1 0x2 SLOAD AND OR PUSH1 0x2 SSTORE DUP1 RETURN JUMPDEST MLOAD PUSH3 0x461BCD PUSH1 0xE5 SHL DUP2 MSTORE SWAP2 DUP3 ADD MSTORE PUSH1 0x8 PUSH1 0x24 DUP3 ADD MSTORE PUSH8 0xDAD2E6DAC2E8C6D PUSH1 0xC3 SHL PUSH1 0x44 DUP3 ADD MSTORE PUSH1 0x64 SWAP2 POP REVERT JUMPDEST SWAP1 SWAP2 POP DUP4 DUP2 DUP2 RETURNDATASIZE DUP4 GT PUSH2 0xD2C JUMPI JUMPDEST PUSH2 0xD0F DUP2 DUP4 PUSH2 0xFCE JUMP JUMPDEST DUP2 ADD SUB SLT PUSH2 0xD28 JUMPI MLOAD DUP2 DUP2 AND DUP2 SUB PUSH2 0xD28 JUMPI SWAP1 DUP8 PUSH2 0xC82 JUMP JUMPDEST DUP7 DUP1 REVERT JUMPDEST POP RETURNDATASIZE PUSH2 0xD05 JUMP JUMPDEST DUP4 MLOAD RETURNDATASIZE DUP10 DUP3 RETURNDATACOPY RETURNDATASIZE SWAP1 REVERT JUMPDEST POP CALLVALUE PUSH2 0x34E JUMPI DUP2 PUSH1 0x3 NOT CALLDATASIZE ADD SLT PUSH2 0x34E JUMPI MLOAD PUSH32 0x0 PUSH1 0x1 PUSH1 0x1 PUSH1 0xA0 SHL SUB AND DUP2 MSTORE PUSH1 0x20 SWAP1 RETURN JUMPDEST POP CALLVALUE PUSH2 0x34E JUMPI PUSH1 0x20 CALLDATASIZE PUSH1 0x3 NOT ADD SLT PUSH2 0x34E JUMPI PUSH1 0x20 SWAP2 PUSH1 0xFF SWAP1 DUP3 SWAP1 PUSH1 0x1 PUSH1 0x1 PUSH1 0xA0 SHL SUB PUSH2 0xDAA PUSH2 0xF49 JUMP JUMPDEST AND DUP2 MSTORE PUSH1 0x1 DUP6 MSTORE KECCAK256 SLOAD AND SWAP1 MLOAD SWAP1 ISZERO ISZERO DUP2 MSTORE RETURN JUMPDEST DUP3 CALLVALUE PUSH2 0x690 JUMPI PUSH1 0x20 CALLDATASIZE PUSH1 0x3 NOT ADD SLT PUSH2 0x690 JUMPI PUSH2 0xDD7 PUSH2 0xF49 JUMP JUMPDEST DUP2 SLOAD SWAP1 PUSH1 0x1 PUSH1 0x1 PUSH1 0xA0 SHL SUB SWAP1 PUSH2 0xDF0 CALLER DUP4 DUP6 AND EQ PUSH2 0xF64 JUMP JUMPDEST AND SWAP1 PUSH2 0xDFD DUP3 ISZERO ISZERO PUSH2 0xF9C JUMP JUMPDEST PUSH1 0x1 PUSH1 0x1 PUSH1 0xA0 SHL SUB NOT AND OR DUP2 SSTORE DUP1 RETURN JUMPDEST POP DUP3 CALLVALUE PUSH2 0x390 JUMPI DUP2 PUSH1 0x3 NOT CALLDATASIZE ADD SLT PUSH2 0x390 JUMPI DUP1 CALLDATALOAD SWAP1 PUSH1 0x1 PUSH1 0x1 PUSH1 0xA0 SHL SUB SWAP1 PUSH1 0x24 CALLDATALOAD SWAP1 DUP3 DUP3 AND DUP1 DUP4 SUB PUSH2 0xD28 JUMPI PUSH2 0xE52 SWAP1 PUSH2 0xE4B DUP6 DUP10 SLOAD AND CALLER EQ PUSH2 0xF64 JUMP JUMPDEST ISZERO ISZERO PUSH2 0xF9C JUMP JUMPDEST PUSH1 0x5 SLOAD PUSH2 0xE61 PUSH1 0x6 SLOAD DUP3 PUSH2 0x10CA JUMP JUMPDEST DUP6 GT PUSH2 0xF1D JUMPI SWAP2 DUP7 PUSH1 0x20 SWAP5 SWAP3 PUSH2 0xE7B DUP8 PUSH2 0xEB2 SWAP9 SWAP7 PUSH2 0x10CA JUMP JUMPDEST PUSH1 0x5 SSTORE DUP8 MLOAD PUSH4 0xA9059CBB PUSH1 0xE0 SHL DUP2 MSTORE PUSH1 0x1 PUSH1 0x1 PUSH1 0xA0 SHL SUB SWAP1 SWAP4 AND SWAP1 DUP4 ADD SWAP1 DUP2 MSTORE PUSH1 0x20 DUP2 ADD SWAP5 SWAP1 SWAP5 MSTORE SWAP1 SWAP5 DUP6 SWAP4 DUP5 SWAP3 SWAP2 DUP4 SWAP2 PUSH1 0x40 ADD SWAP1 JUMP JUMPDEST SUB SWAP3 PUSH32 0x0 AND GAS CALL SWAP1 DUP2 ISZERO PUSH2 0xF11 JUMPI PUSH2 0xEF0 SWAP3 POP DUP4 SWAP2 PUSH2 0xEF3 JUMPI POP PUSH2 0x101E JUMP JUMPDEST DUP1 RETURN JUMPDEST PUSH2 0xF0B SWAP2 POP PUSH1 0x20 RETURNDATASIZE DUP2 GT PUSH2 0x389 JUMPI PUSH2 0x37B DUP2 DUP4 PUSH2 0xFCE JUMP JUMPDEST DUP4 PUSH2 0x184 JUMP JUMPDEST POP POP MLOAD SWAP1 RETURNDATASIZE SWAP1 DUP3 RETURNDATACOPY RETURNDATASIZE SWAP1 REVERT JUMPDEST DUP6 MLOAD PUSH3 0x461BCD PUSH1 0xE5 SHL DUP2 MSTORE PUSH1 0x20 DUP2 DUP5 ADD MSTORE PUSH1 0x6 PUSH1 0x24 DUP3 ADD MSTORE PUSH6 0x1B1BD8DAD959 PUSH1 0xD2 SHL PUSH1 0x44 DUP3 ADD MSTORE PUSH1 0x64 SWAP1 REVERT JUMPDEST PUSH1 0x4 CALLDATALOAD SWAP1 PUSH1 0x1 PUSH1 0x1 PUSH1 0xA0 SHL SUB DUP3 AND DUP3 SUB PUSH2 0xF5F JUMPI JUMP JUMPDEST PUSH1 0x0 DUP1 REVERT JUMPDEST ISZERO PUSH2 0xF6B JUMPI JUMP JUMPDEST PUSH1 0x40 MLOAD PUSH3 0x461BCD PUSH1 0xE5 SHL DUP2 MSTORE PUSH1 0x20 PUSH1 0x4 DUP3 ADD MSTORE PUSH1 0x9 PUSH1 0x24 DUP3 ADD MSTORE PUSH9 0x3737BA1037BBB732B9 PUSH1 0xB9 SHL PUSH1 0x44 DUP3 ADD MSTORE PUSH1 0x64 SWAP1 REVERT JUMPDEST ISZERO PUSH2 0xFA3 JUMPI JUMP JUMPDEST PUSH1 0x64 PUSH1 0x40 MLOAD PUSH3 0x461BCD PUSH1 0xE5 SHL DUP2 MSTORE PUSH1 0x20 PUSH1 0x4 DUP3 ADD MSTORE PUSH1 0x4 PUSH1 0x24 DUP3 ADD MSTORE PUSH4 0x7A65726F PUSH1 0xE0 SHL PUSH1 0x44 DUP3 ADD MSTORE REVERT JUMPDEST SWAP1 PUSH1 0x1F DUP1 NOT SWAP2 ADD AND DUP2 ADD SWAP1 DUP2 LT PUSH8 0xFFFFFFFFFFFFFFFF DUP3 GT OR PUSH2 0xFF0 JUMPI PUSH1 0x40 MSTORE JUMP JUMPDEST PUSH4 0x4E487B71 PUSH1 0xE0 SHL PUSH1 0x0 MSTORE PUSH1 0x41 PUSH1 0x4 MSTORE PUSH1 0x24 PUSH1 0x0 REVERT JUMPDEST SWAP1 DUP2 PUSH1 0x20 SWAP2 SUB SLT PUSH2 0xF5F JUMPI MLOAD DUP1 ISZERO ISZERO DUP2 SUB PUSH2 0xF5F JUMPI SWAP1 JUMP JUMPDEST ISZERO PUSH2 0x1025 JUMPI JUMP JUMPDEST PUSH1 0x40 MLOAD PUSH3 0x461BCD PUSH1 0xE5 SHL DUP2 MSTORE PUSH1 0x20 PUSH1 0x4 DUP3 ADD MSTORE PUSH1 0x8 PUSH1 0x24 DUP3 ADD MSTORE PUSH8 0x3A3930B739B332B9 PUSH1 0xC1 SHL PUSH1 0x44 DUP3 ADD MSTORE PUSH1 0x64 SWAP1 REVERT JUMPDEST ISZERO PUSH2 0x105C JUMPI JUMP JUMPDEST PUSH1 0x40 MLOAD PUSH3 0x461BCD PUSH1 0xE5 SHL DUP2 MSTORE PUSH1 0x20 PUSH1 0x4 DUP3 ADD MSTORE PUSH1 0xC PUSH1 0x24 DUP3 ADD MSTORE PUSH12 0x3737BA1037B832B930BA37B9 PUSH1 0xA1 SHL PUSH1 0x44 DUP3 ADD MSTORE PUSH1 0x64 SWAP1 REVERT JUMPDEST ISZERO PUSH2 0x1097 JUMPI JUMP JUMPDEST PUSH1 0x40 MLOAD PUSH3 0x461BCD PUSH1 0xE5 SHL DUP2 MSTORE PUSH1 0x20 PUSH1 0x4 DUP3 ADD MSTORE PUSH1 0xB PUSH1 0x24 DUP3 ADD MSTORE PUSH11 0x6E6F742070656E64696E67 PUSH1 0xA8 SHL PUSH1 0x44 DUP3 ADD MSTORE PUSH1 0x64 SWAP1 REVERT JUMPDEST SWAP2 SWAP1 DUP3 SUB SWAP2 DUP3 GT PUSH2 0x10D7 JUMPI JUMP JUMPDEST PUSH4 0x4E487B71 PUSH1 0xE0 SHL PUSH1 0x0 MSTORE PUSH1 0x11 PUSH1 0x4 MSTORE PUSH1 0x24 PUSH1 0x0 REVERT JUMPDEST SWAP2 SWAP1 DUP3 ADD DUP1 SWAP3 GT PUSH2 0x10D7 JUMPI JUMP INVALID LOG2 PUSH5 0x6970667358 0x22 SLT KECCAK256 PUSH26 0xFA9AC2834AFD7B385F4A3B9805E577D94A12DC1874FB32AA8C92 0xE9 0xB3 0xC9 CALLER 0x2C PUSH5 0x736F6C6343 STOP ADDMOD EQ STOP CALLER "},"methodIdentifiers":{"approve(uint256)":"b759f954","claim(uint256)":"379607f5","fund(uint256)":"ca1d209d","navOracle()":"49d4640d","nextRequestId()":"6a84a985","operators(address)":"13e7c9d8","owner()":"8da5cb5b","reject(uint256,string)":"71d68a97","requestRedemption(uint256)":"eeb3c910","requests(uint256)":"81d12c58","reserveAvailable()":"97eb1fdc","reserveFunded()":"7ce96d2e","reserveLocked()":"87fa0844","setNavOracle(address)":"1e9ee55f","setOperator(address,bool)":"558a7297","setOwner(address)":"13af4035","settlement()":"51160630","stoToken()":"13ee6b97","withdrawUnlocked(uint256,address)":"0ec95e03"}}}}}