{
  "_format": "hh-sol-artifact-1",
  "contractName": "RedemptionVault",
  "sourceName": "contracts/vault/RedemptionVault.sol",
  "abi": [
    {
      "inputs": [
        {
          "internalType": "address",
          "name": "_owner",
          "type": "address"
        },
        {
          "internalType": "address",
          "name": "_stoToken",
          "type": "address"
        },
        {
          "internalType": "address",
          "name": "_navOracle",
          "type": "address"
        },
        {
          "internalType": "address",
          "name": "_settlement",
          "type": "address"
        }
      ],
      "stateMutability": "nonpayable",
      "type": "constructor"
    },
    {
      "anonymous": false,
      "inputs": [
        {
          "indexed": true,
          "internalType": "uint256",
          "name": "requestId",
          "type": "uint256"
        },
        {
          "indexed": true,
          "internalType": "address",
          "name": "operator",
          "type": "address"
        }
      ],
      "name": "RedemptionApproved",
      "type": "event"
    },
    {
      "anonymous": false,
      "inputs": [
        {
          "indexed": true,
          "internalType": "uint256",
          "name": "requestId",
          "type": "uint256"
        },
        {
          "indexed": true,
          "internalType": "address",
          "name": "investor",
          "type": "address"
        },
        {
          "indexed": false,
          "internalType": "uint256",
          "name": "stablecoinAmount",
          "type": "uint256"
        }
      ],
      "name": "RedemptionClaimed",
      "type": "event"
    },
    {
      "anonymous": false,
      "inputs": [
        {
          "indexed": true,
          "internalType": "uint256",
          "name": "requestId",
          "type": "uint256"
        },
        {
          "indexed": true,
          "internalType": "address",
          "name": "operator",
          "type": "address"
        },
        {
          "indexed": false,
          "internalType": "string",
          "name": "reason",
          "type": "string"
        }
      ],
      "name": "RedemptionRejected",
      "type": "event"
    },
    {
      "anonymous": false,
      "inputs": [
        {
          "indexed": true,
          "internalType": "uint256",
          "name": "requestId",
          "type": "uint256"
        },
        {
          "indexed": true,
          "internalType": "address",
          "name": "investor",
          "type": "address"
        },
        {
          "indexed": false,
          "internalType": "uint256",
          "name": "tokenAmount",
          "type": "uint256"
        },
        {
          "indexed": false,
          "internalType": "uint256",
          "name": "navSnapshot",
          "type": "uint256"
        },
        {
          "indexed": false,
          "internalType": "uint40",
          "name": "requestedAt",
          "type": "uint40"
        }
      ],
      "name": "RedemptionRequested",
      "type": "event"
    },
    {
      "inputs": [
        {
          "internalType": "uint256",
          "name": "requestId",
          "type": "uint256"
        }
      ],
      "name": "approve",
      "outputs": [],
      "stateMutability": "nonpayable",
      "type": "function"
    },
    {
      "inputs": [
        {
          "internalType": "uint256",
          "name": "requestId",
          "type": "uint256"
        }
      ],
      "name": "claim",
      "outputs": [],
      "stateMutability": "nonpayable",
      "type": "function"
    },
    {
      "inputs": [
        {
          "internalType": "uint256",
          "name": "stablecoinAmount",
          "type": "uint256"
        }
      ],
      "name": "fund",
      "outputs": [],
      "stateMutability": "nonpayable",
      "type": "function"
    },
    {
      "inputs": [],
      "name": "navOracle",
      "outputs": [
        {
          "internalType": "contract INAVOracle",
          "name": "",
          "type": "address"
        }
      ],
      "stateMutability": "view",
      "type": "function"
    },
    {
      "inputs": [],
      "name": "nextRequestId",
      "outputs": [
        {
          "internalType": "uint256",
          "name": "",
          "type": "uint256"
        }
      ],
      "stateMutability": "view",
      "type": "function"
    },
    {
      "inputs": [
        {
          "internalType": "address",
          "name": "",
          "type": "address"
        }
      ],
      "name": "operators",
      "outputs": [
        {
          "internalType": "bool",
          "name": "",
          "type": "bool"
        }
      ],
      "stateMutability": "view",
      "type": "function"
    },
    {
      "inputs": [],
      "name": "owner",
      "outputs": [
        {
          "internalType": "address",
          "name": "",
          "type": "address"
        }
      ],
      "stateMutability": "view",
      "type": "function"
    },
    {
      "inputs": [
        {
          "internalType": "uint256",
          "name": "requestId",
          "type": "uint256"
        },
        {
          "internalType": "string",
          "name": "reason",
          "type": "string"
        }
      ],
      "name": "reject",
      "outputs": [],
      "stateMutability": "nonpayable",
      "type": "function"
    },
    {
      "inputs": [
        {
          "internalType": "uint256",
          "name": "tokenAmount",
          "type": "uint256"
        }
      ],
      "name": "requestRedemption",
      "outputs": [
        {
          "internalType": "uint256",
          "name": "requestId",
          "type": "uint256"
        }
      ],
      "stateMutability": "nonpayable",
      "type": "function"
    },
    {
      "inputs": [
        {
          "internalType": "uint256",
          "name": "",
          "type": "uint256"
        }
      ],
      "name": "requests",
      "outputs": [
        {
          "internalType": "address",
          "name": "investor",
          "type": "address"
        },
        {
          "internalType": "uint256",
          "name": "tokenAmount",
          "type": "uint256"
        },
        {
          "internalType": "uint256",
          "name": "navSnapshot",
          "type": "uint256"
        },
        {
          "internalType": "uint256",
          "name": "stableAmount",
          "type": "uint256"
        },
        {
          "internalType": "uint40",
          "name": "requestedAt",
          "type": "uint40"
        },
        {
          "internalType": "enum RedemptionVault.Status",
          "name": "status",
          "type": "uint8"
        }
      ],
      "stateMutability": "view",
      "type": "function"
    },
    {
      "inputs": [],
      "name": "reserveAvailable",
      "outputs": [
        {
          "internalType": "uint256",
          "name": "",
          "type": "uint256"
        }
      ],
      "stateMutability": "view",
      "type": "function"
    },
    {
      "inputs": [],
      "name": "reserveFunded",
      "outputs": [
        {
          "internalType": "uint256",
          "name": "",
          "type": "uint256"
        }
      ],
      "stateMutability": "view",
      "type": "function"
    },
    {
      "inputs": [],
      "name": "reserveLocked",
      "outputs": [
        {
          "internalType": "uint256",
          "name": "",
          "type": "uint256"
        }
      ],
      "stateMutability": "view",
      "type": "function"
    },
    {
      "inputs": [
        {
          "internalType": "address",
          "name": "newOracle",
          "type": "address"
        }
      ],
      "name": "setNavOracle",
      "outputs": [],
      "stateMutability": "nonpayable",
      "type": "function"
    },
    {
      "inputs": [
        {
          "internalType": "address",
          "name": "op",
          "type": "address"
        },
        {
          "internalType": "bool",
          "name": "enabled",
          "type": "bool"
        }
      ],
      "name": "setOperator",
      "outputs": [],
      "stateMutability": "nonpayable",
      "type": "function"
    },
    {
      "inputs": [
        {
          "internalType": "address",
          "name": "newOwner",
          "type": "address"
        }
      ],
      "name": "setOwner",
      "outputs": [],
      "stateMutability": "nonpayable",
      "type": "function"
    },
    {
      "inputs": [],
      "name": "settlement",
      "outputs": [
        {
          "internalType": "contract IERC20Minimal",
          "name": "",
          "type": "address"
        }
      ],
      "stateMutability": "view",
      "type": "function"
    },
    {
      "inputs": [],
      "name": "stoToken",
      "outputs": [
        {
          "internalType": "contract ISecurityToken",
          "name": "",
          "type": "address"
        }
      ],
      "stateMutability": "view",
      "type": "function"
    },
    {
      "inputs": [
        {
          "internalType": "uint256",
          "name": "amount",
          "type": "uint256"
        },
        {
          "internalType": "address",
          "name": "to",
          "type": "address"
        }
      ],
      "name": "withdrawUnlocked",
      "outputs": [],
      "stateMutability": "nonpayable",
      "type": "function"
    }
  ],
  "bytecode": "0x60c0604090808252346200020f5760808162001394803803809162000025828562000214565b8339810103126200020f576200003b816200024e565b906020916200004c8383016200024e565b91620000686060620000608784016200024e565b92016200024e565b6001600160a01b03928316918215158062000203575b80620001f7575b80620001eb575b15620001c157836004928188938160018060a01b0319996000988b8a541617895516608052168097600254161760025516948560a052875192838092637b9e618d60e01b82525afa918215620001b657809262000173575b505016036200013f575051611130908162000264823960805181818161014e015281816107a501528181610a210152610d51015260a0518181816103ef0152818161093a01528181610abe01528181610c860152610eb60152f35b606491519062461bcd60e51b82526004820152600f60248201526e0dee4c2c6d8ca40dad2e6dac2e8c6d608b1b6044820152fd5b9091508482813d8311620001ae575b6200018e818362000214565b81010312620001ab5750620001a3906200024e565b3880620000e4565b80fd5b503d62000182565b8651903d90823e3d90fd5b865162461bcd60e51b815260048082018890526024820152637a65726f60e01b6044820152606490fd5b5083821615156200008c565b50838116151562000085565b5083851615156200007e565b600080fd5b601f909101601f19168101906001600160401b038211908210176200023857604052565b634e487b7160e01b600052604160045260246000fd5b51906001600160a01b03821682036200020f5756fe6040608081526004908136101561001557600080fd5b600090813560e01c80630ec95e0314610e0d57806313af403514610dbd57806313e7c9d814610d8057806313ee6b9714610d3d5780631e9ee55f14610c1c578063379607f51461099157806349d4640d146109695780635116063014610926578063558a7297146108c75780636a84a985146108a957806371d68a97146106b15780637ce96d2e1461069357806381d12c581461060457806387fa0844146105e65780638da5cb5b146105bf57806397eb1fdc14610595578063b759f9541461046a578063ca1d209d146103945763eeb3c910146100f257600080fd5b3461034e5760209283600319360112610390578035908115906101158215610f9c565b83516323b872dd60e01b815233828201908152306020820152604081018590526001600160a01b039691908890829081900360600181857f00000000000000000000000000000000000000000000000000000000000000008c165af1908115610359579061018a918391610363575b5061101e565b8187876002541687519485809263a036f25b60e01b82525afa928315610359578293610326575b50828502938585048414171561031357600354600019811461030057600101968760035564ffffffffff908142169588519160c0830183811067ffffffffffffffff8211176102eb579288969492888b8f948f8f909a80999760019c82998452338952818901958652838901968752670de0b6b3a764000060608a0198048852608089019e8f5260a089019d8e528c525289209451166bffffffffffffffffffffffff60a01b8554161784555160018401555160028301555160038201550194511691845493519160058310156102d857505065ff00000000009060281b169165ffffffffffff19161717905583519283528583015282820152827f486293ba7cd634c1dde815232de9fccd4ae8f492b3cbf213f09651b9a497b07260603393a351908152f35b634e487b7160e01b825260219052602490fd5b604186634e487b7160e01b6000525260246000fd5b634e487b7160e01b835260118252602483fd5b634e487b7160e01b825260119052602490fd5b9092508781813d8311610352575b61033e8183610fce565b8101031261034e575191386101b1565b5080fd5b503d610334565b86513d84823e3d90fd5b6103839150893d8b11610389575b61037b8183610fce565b810190611006565b38610184565b503d610371565b8280fd5b508234610390576020366003190112610390576103ea6020823580936103bb821515610f9c565b85516323b872dd60e01b8152339181019182523060208301526040820192909252909283918291606090910190565b0381877f00000000000000000000000000000000000000000000000000000000000000006001600160a01b03165af1928315610461575061043d92610435918591610443575061101e565b6005546110ed565b60055580f35b61045b915060203d81116103895761037b8183610fce565b85610184565b513d85823e3d90fd5b50823461039057602036600319011261039057803591338452600160205260ff81852054168015610582575b61049f90611055565b82845281602052808420908282019260ff845460281c16600581101561056f5760016104cb9114611090565b6005549160036104de60065480956110ca565b940154809410610535575050906104f4916110ed565b600655805465ff000000000019166502000000000017905533907fd51b9c949cd1d69185a9ef9f809e0ba99cf932bc119eb3ad686c918331a218188380a380f35b906020606492519162461bcd60e51b835282015260146024820152731c995cd95c9d99481a5b9cdd59999a58da595b9d60621b6044820152fd5b634e487b7160e01b875260218252602487fd5b5083546001600160a01b03163314610496565b503461034e578160031936011261034e576020906105b8600554600654906110ca565b9051908152f35b503461034e578160031936011261034e57905490516001600160a01b039091168152602090f35b503461034e578160031936011261034e576020906006549051908152f35b5090346106905760203660031901126106905782358152826020528181209064ffffffffff60018060a01b038354169360018401549360028101548760038301549201549260ff8460281c1696815198895260208901528701526060860152166080840152600582101561067d5760c0838360a0820152f35b634e487b7160e01b815260218452602490fd5b80fd5b503461034e578160031936011261034e576020906005549051908152f35b5082346103905781600319360112610390578035906024359267ffffffffffffffff938481116108a557366023820112156108a557808301359485116108a55736602486830101116108a5573386526020926001845260ff83882054168015610892575b61071e90611055565b848752808452828720818101805460ff8160281c16600581101561087f5791650300000000006107a1949261075660018b9614611090565b65ff000000000019161790558054600190910154865163a9059cbb60e01b81526001600160a01b0392831686820190815260208101929092529384929183918d918391604090910190565b03927f0000000000000000000000000000000000000000000000000000000000000000165af1908115610875578891610858575b501561082c5750908460247f66805c428365b7fad5b3d484ba618ccea991d43a38ea0d97de8d0b0a9591fcf7949382845195808752860152018284013785818684010152813395601f80199101168101030190a380f35b825162461bcd60e51b815290810184905260066024820152651c99599d5b9960d21b6044820152606490fd5b61086f9150853d87116103895761037b8183610fce565b886107d5565b84513d8a823e3d90fd5b634e487b7160e01b8b526021855260248bfd5b5086546001600160a01b03163314610715565b8580fd5b503461034e578160031936011261034e576020906003549051908152f35b503461034e578060031936011261034e576108e0610f49565b90602435918215158093036109225783546001600160a01b0391906109089083163314610f64565b168352600160205282209060ff8019835416911617905580f35b8380fd5b503461034e578160031936011261034e57517f00000000000000000000000000000000000000000000000000000000000000006001600160a01b03168152602090f35b503461034e578160031936011261034e5760025490516001600160a01b039091168152602090f35b5082903461039057602080600319360112610922578235918285528382528085208481019081549160ff8360281c166005811015610c0957600203610bd75781546001600160a01b03939084163303610ba557650400000000009065ff000000000019161790556003810195610a0a87546006546110ca565b600655610a1a87546005546110ca565b60055587837f0000000000000000000000000000000000000000000000000000000000000000166001840154813b15610390578651632770a7eb60e21b81523085820190815260208101929092529291839182908490829060400103925af18015610b6d57610b77575b5081548754855163a9059cbb60e01b81529185166001600160a01b0316838301908152602081019190915286908290819060400103818c887f0000000000000000000000000000000000000000000000000000000000000000165af1908115610b6d578991610b50575b5015610b275750907fa15008b6e695cc35d35421608ccb0ed390dab78c54707b1be30293cb76296c81939291541694549051908152a380f35b835162461bcd60e51b8152908101859052600360248201526270617960e81b6044820152606490fd5b610b679150863d88116103895761037b8183610fce565b89610aee565b85513d8b823e3d90fd5b67ffffffffffffffff8199929911610b925784529688610a84565b634e487b7160e01b825260418952602482fd5b845162461bcd60e51b8152808901879052600c60248201526b3737ba1034b73b32b9ba37b960a11b6044820152606490fd5b835162461bcd60e51b8152808801869052600c60248201526b1b9bdd08185c1c1c9bdd995960a21b6044820152606490fd5b634e487b7160e01b895260218852602489fd5b5082346103905760208060031936011261092257610c38610f49565b84546001600160a01b0394918591610c539083163314610f64565b1693610c60851515610f9c565b8151637b9e618d60e01b81529083828681895afa918215610d33578792610cf7575b50807f000000000000000000000000000000000000000000000000000000000000000016911603610ccb575050506bffffffffffffffffffffffff60a01b600254161760025580f35b5162461bcd60e51b81529182015260086024820152670dad2e6dac2e8c6d60c31b604482015260649150fd5b9091508381813d8311610d2c575b610d0f8183610fce565b81010312610d2857518181168103610d28579087610c82565b8680fd5b503d610d05565b83513d89823e3d90fd5b503461034e578160031936011261034e57517f00000000000000000000000000000000000000000000000000000000000000006001600160a01b03168152602090f35b503461034e57602036600319011261034e5760209160ff9082906001600160a01b03610daa610f49565b1681526001855220541690519015158152f35b823461069057602036600319011261069057610dd7610f49565b8154906001600160a01b0390610df03383851614610f64565b1690610dfd821515610f9c565b6001600160a01b03191617815580f35b5082346103905781600319360112610390578035906001600160a01b039060243590828216808303610d2857610e5290610e4b858954163314610f64565b1515610f9c565b600554610e61600654826110ca565b8511610f1d57918660209492610e7b87610eb298966110ca565b600555875163a9059cbb60e01b81526001600160a01b03909316908301908152602081019490945290948593849291839160400190565b03927f0000000000000000000000000000000000000000000000000000000000000000165af1908115610f1157610ef092508391610ef3575061101e565b80f35b610f0b915060203d81116103895761037b8183610fce565b83610184565b505051903d90823e3d90fd5b855162461bcd60e51b815260208184015260066024820152651b1bd8dad95960d21b6044820152606490fd5b600435906001600160a01b0382168203610f5f57565b600080fd5b15610f6b57565b60405162461bcd60e51b81526020600482015260096024820152683737ba1037bbb732b960b91b6044820152606490fd5b15610fa357565b606460405162461bcd60e51b81526020600482015260046024820152637a65726f60e01b6044820152fd5b90601f8019910116810190811067ffffffffffffffff821117610ff057604052565b634e487b7160e01b600052604160045260246000fd5b90816020910312610f5f57518015158103610f5f5790565b1561102557565b60405162461bcd60e51b81526020600482015260086024820152673a3930b739b332b960c11b6044820152606490fd5b1561105c57565b60405162461bcd60e51b815260206004820152600c60248201526b3737ba1037b832b930ba37b960a11b6044820152606490fd5b1561109757565b60405162461bcd60e51b815260206004820152600b60248201526a6e6f742070656e64696e6760a81b6044820152606490fd5b919082039182116110d757565b634e487b7160e01b600052601160045260246000fd5b919082018092116110d75756fea264697066735822122079fa9ac2834afd7b385f4a3b9805e577d94a12dc1874fb32aa8c92e9b3c9332c64736f6c63430008140033",
  "linkReferences": {},
  "deployedLinkReferences": {}
}