{
  "_format": "hh-sol-artifact-1",
  "contractName": "NAVOracle",
  "sourceName": "contracts/oracle/NAVOracle.sol",
  "abi": [
    {
      "inputs": [
        {
          "internalType": "address",
          "name": "_owner",
          "type": "address"
        },
        {
          "internalType": "address",
          "name": "_settlementToken",
          "type": "address"
        },
        {
          "internalType": "uint256",
          "name": "_initialNav",
          "type": "uint256"
        }
      ],
      "stateMutability": "nonpayable",
      "type": "constructor"
    },
    {
      "anonymous": false,
      "inputs": [
        {
          "indexed": false,
          "internalType": "uint256",
          "name": "navPerToken",
          "type": "uint256"
        },
        {
          "indexed": false,
          "internalType": "uint40",
          "name": "effectiveFrom",
          "type": "uint40"
        },
        {
          "indexed": false,
          "internalType": "bytes32",
          "name": "reportHash",
          "type": "bytes32"
        }
      ],
      "name": "NAVUpdated",
      "type": "event"
    },
    {
      "inputs": [],
      "name": "effectiveFrom",
      "outputs": [
        {
          "internalType": "uint40",
          "name": "",
          "type": "uint40"
        }
      ],
      "stateMutability": "view",
      "type": "function"
    },
    {
      "inputs": [],
      "name": "navPerToken",
      "outputs": [
        {
          "internalType": "uint256",
          "name": "",
          "type": "uint256"
        }
      ],
      "stateMutability": "view",
      "type": "function"
    },
    {
      "inputs": [
        {
          "internalType": "address",
          "name": "",
          "type": "address"
        }
      ],
      "name": "operators",
      "outputs": [
        {
          "internalType": "bool",
          "name": "",
          "type": "bool"
        }
      ],
      "stateMutability": "view",
      "type": "function"
    },
    {
      "inputs": [],
      "name": "owner",
      "outputs": [
        {
          "internalType": "address",
          "name": "",
          "type": "address"
        }
      ],
      "stateMutability": "view",
      "type": "function"
    },
    {
      "inputs": [],
      "name": "reportHash",
      "outputs": [
        {
          "internalType": "bytes32",
          "name": "",
          "type": "bytes32"
        }
      ],
      "stateMutability": "view",
      "type": "function"
    },
    {
      "inputs": [
        {
          "internalType": "address",
          "name": "op",
          "type": "address"
        },
        {
          "internalType": "bool",
          "name": "enabled",
          "type": "bool"
        }
      ],
      "name": "setOperator",
      "outputs": [],
      "stateMutability": "nonpayable",
      "type": "function"
    },
    {
      "inputs": [
        {
          "internalType": "address",
          "name": "newOwner",
          "type": "address"
        }
      ],
      "name": "setOwner",
      "outputs": [],
      "stateMutability": "nonpayable",
      "type": "function"
    },
    {
      "inputs": [],
      "name": "settlementToken",
      "outputs": [
        {
          "internalType": "address",
          "name": "",
          "type": "address"
        }
      ],
      "stateMutability": "view",
      "type": "function"
    },
    {
      "inputs": [],
      "name": "settlementTokenAddress",
      "outputs": [
        {
          "internalType": "address",
          "name": "",
          "type": "address"
        }
      ],
      "stateMutability": "view",
      "type": "function"
    },
    {
      "inputs": [
        {
          "internalType": "uint256",
          "name": "newNavPerToken",
          "type": "uint256"
        },
        {
          "internalType": "uint40",
          "name": "newEffectiveFrom",
          "type": "uint40"
        },
        {
          "internalType": "bytes32",
          "name": "newReportHash",
          "type": "bytes32"
        }
      ],
      "name": "updateNAV",
      "outputs": [],
      "stateMutability": "nonpayable",
      "type": "function"
    }
  ],
  "bytecode": "0x60a0346100f657601f61056c38819003918201601f19168301916001600160401b038311848410176100fb578084926060946040528339810103126100f65761004781610111565b90604061005660208301610111565b910151916001600160a01b039081169081151590816100ea575b50156100bf57600080546001600160a01b0319169190911790556080526002556003805464ffffffffff19164264ffffffffff1617905560405161044690816101268239608051816103a90152f35b606460405162461bcd60e51b81526020600482015260046024820152637a65726f60e01b6044820152fd5b90508216151538610070565b600080fd5b634e487b7160e01b600052604160045260246000fd5b51906001600160a01b03821682036100f65756fe6040608081526004908136101561001557600080fd5b600090813560e01c92836313af40351461030257836313e7c9d8146102c55783633c81ba4f146102a9578363558a72971461024a5783635f7e9e67146102255783637b9e618d146100935783638da5cb5b146101fe578363a036f25b146101dc578363a0acd088146100985750505063ac5f9ad11461009357600080fd5b610393565b346101d85760603660031901126101d85780359160243564ffffffffff928382168092036101d45760443593338752600160205260ff848820541680156101c1575b1561018f578515610164574216821061013b5760028590556003805464ffffffffff191683179055839055815193845260208401528201527fe891e89ada2cc8b876ee034960692957c23a753de6bcff6cf02a8a3a8c5f861490606090a180f35b60649083519062461bcd60e51b82526020818301526024820152631c185cdd60e21b6044820152fd5b835162461bcd60e51b8152602081840152600560248201526406e61763d360dc1b6044820152606490fd5b835162461bcd60e51b8152602081840152600c60248201526b3737ba1037b832b930ba37b960a11b6044820152606490fd5b5086546001600160a01b031633146100da565b8580fd5b8280fd5b50346101fa57816003193601126101fa576020906002549051908152f35b5080fd5b50346101fa57816003193601126101fa57905490516001600160a01b039091168152602090f35b50346101fa57816003193601126101fa5760209064ffffffffff600354169051908152f35b50346101fa57806003193601126101fa57610263610378565b90602435918215158093036102a55783546001600160a01b03919061028b90831633146103d8565b168352600160205282209060ff8019835416911617905580f35b8380fd5b346101d857826003193601126101d85760209250549051908152f35b50346101fa5760203660031901126101fa5760209160ff9082906001600160a01b036102ef610378565b1681526001855220541690519015158152f35b346101d85760203660031901126101d85761031b610378565b835491906001600160a01b039061033533838616146103d8565b1692831561034f5750506001600160a01b03191617815580f35b60649250519062461bcd60e51b82526020818301526024820152637a65726f60e01b6044820152fd5b600435906001600160a01b038216820361038e57565b600080fd5b3461038e57600036600319011261038e576040517f00000000000000000000000000000000000000000000000000000000000000006001600160a01b03168152602090f35b156103df57565b60405162461bcd60e51b81526020600482015260096024820152683737ba1037bbb732b960b91b6044820152606490fdfea264697066735822122083dcf2d0eb75be2255a0c8286f546075340dcbe9511ecf3f384c65e45c116c7e64736f6c63430008140033",
  "linkReferences": {},
  "deployedLinkReferences": {}
}