{
  "_format": "hh-sol-artifact-1",
  "contractName": "NenoSecurityToken",
  "sourceName": "contracts/token/NenoSecurityToken.sol",
  "abi": [
    {
      "inputs": [
        {
          "internalType": "string",
          "name": "_name",
          "type": "string"
        },
        {
          "internalType": "string",
          "name": "_symbol",
          "type": "string"
        },
        {
          "internalType": "address",
          "name": "_owner",
          "type": "address"
        },
        {
          "internalType": "address",
          "name": "_registry",
          "type": "address"
        },
        {
          "internalType": "address",
          "name": "_compliance",
          "type": "address"
        }
      ],
      "stateMutability": "nonpayable",
      "type": "constructor"
    },
    {
      "anonymous": false,
      "inputs": [
        {
          "indexed": true,
          "internalType": "address",
          "name": "agent",
          "type": "address"
        },
        {
          "indexed": false,
          "internalType": "bool",
          "name": "enabled",
          "type": "bool"
        }
      ],
      "name": "AgentSet",
      "type": "event"
    },
    {
      "anonymous": false,
      "inputs": [
        {
          "indexed": true,
          "internalType": "address",
          "name": "owner",
          "type": "address"
        },
        {
          "indexed": true,
          "internalType": "address",
          "name": "spender",
          "type": "address"
        },
        {
          "indexed": false,
          "internalType": "uint256",
          "name": "value",
          "type": "uint256"
        }
      ],
      "name": "Approval",
      "type": "event"
    },
    {
      "anonymous": false,
      "inputs": [
        {
          "indexed": true,
          "internalType": "address",
          "name": "newCompliance",
          "type": "address"
        }
      ],
      "name": "ComplianceChanged",
      "type": "event"
    },
    {
      "anonymous": false,
      "inputs": [
        {
          "indexed": true,
          "internalType": "address",
          "name": "from",
          "type": "address"
        },
        {
          "indexed": true,
          "internalType": "address",
          "name": "to",
          "type": "address"
        },
        {
          "indexed": false,
          "internalType": "uint256",
          "name": "amount",
          "type": "uint256"
        },
        {
          "indexed": false,
          "internalType": "string",
          "name": "reason",
          "type": "string"
        }
      ],
      "name": "ForcedTransfer",
      "type": "event"
    },
    {
      "anonymous": false,
      "inputs": [
        {
          "indexed": true,
          "internalType": "address",
          "name": "newOwner",
          "type": "address"
        }
      ],
      "name": "OwnerChanged",
      "type": "event"
    },
    {
      "anonymous": false,
      "inputs": [
        {
          "indexed": true,
          "internalType": "address",
          "name": "by",
          "type": "address"
        }
      ],
      "name": "Paused",
      "type": "event"
    },
    {
      "anonymous": false,
      "inputs": [
        {
          "indexed": true,
          "internalType": "address",
          "name": "newRegistry",
          "type": "address"
        }
      ],
      "name": "RegistryChanged",
      "type": "event"
    },
    {
      "anonymous": false,
      "inputs": [
        {
          "indexed": true,
          "internalType": "address",
          "name": "from",
          "type": "address"
        },
        {
          "indexed": true,
          "internalType": "address",
          "name": "to",
          "type": "address"
        },
        {
          "indexed": false,
          "internalType": "uint256",
          "name": "value",
          "type": "uint256"
        }
      ],
      "name": "Transfer",
      "type": "event"
    },
    {
      "anonymous": false,
      "inputs": [
        {
          "indexed": true,
          "internalType": "address",
          "name": "by",
          "type": "address"
        }
      ],
      "name": "Unpaused",
      "type": "event"
    },
    {
      "anonymous": false,
      "inputs": [
        {
          "indexed": true,
          "internalType": "address",
          "name": "wallet",
          "type": "address"
        }
      ],
      "name": "WalletLost",
      "type": "event"
    },
    {
      "anonymous": false,
      "inputs": [
        {
          "indexed": true,
          "internalType": "address",
          "name": "lostWallet",
          "type": "address"
        },
        {
          "indexed": true,
          "internalType": "address",
          "name": "recoveryWallet",
          "type": "address"
        }
      ],
      "name": "WalletRecovered",
      "type": "event"
    },
    {
      "inputs": [
        {
          "internalType": "address",
          "name": "",
          "type": "address"
        }
      ],
      "name": "agents",
      "outputs": [
        {
          "internalType": "bool",
          "name": "",
          "type": "bool"
        }
      ],
      "stateMutability": "view",
      "type": "function"
    },
    {
      "inputs": [
        {
          "internalType": "address",
          "name": "o",
          "type": "address"
        },
        {
          "internalType": "address",
          "name": "s",
          "type": "address"
        }
      ],
      "name": "allowance",
      "outputs": [
        {
          "internalType": "uint256",
          "name": "",
          "type": "uint256"
        }
      ],
      "stateMutability": "view",
      "type": "function"
    },
    {
      "inputs": [
        {
          "internalType": "address",
          "name": "spender",
          "type": "address"
        },
        {
          "internalType": "uint256",
          "name": "amount",
          "type": "uint256"
        }
      ],
      "name": "approve",
      "outputs": [
        {
          "internalType": "bool",
          "name": "",
          "type": "bool"
        }
      ],
      "stateMutability": "nonpayable",
      "type": "function"
    },
    {
      "inputs": [
        {
          "internalType": "address",
          "name": "a",
          "type": "address"
        }
      ],
      "name": "balanceOf",
      "outputs": [
        {
          "internalType": "uint256",
          "name": "",
          "type": "uint256"
        }
      ],
      "stateMutability": "view",
      "type": "function"
    },
    {
      "inputs": [
        {
          "internalType": "address",
          "name": "from",
          "type": "address"
        },
        {
          "internalType": "uint256",
          "name": "amount",
          "type": "uint256"
        }
      ],
      "name": "burn",
      "outputs": [],
      "stateMutability": "nonpayable",
      "type": "function"
    },
    {
      "inputs": [],
      "name": "compliance",
      "outputs": [
        {
          "internalType": "contract ICompliance",
          "name": "",
          "type": "address"
        }
      ],
      "stateMutability": "view",
      "type": "function"
    },
    {
      "inputs": [],
      "name": "decimals",
      "outputs": [
        {
          "internalType": "uint8",
          "name": "",
          "type": "uint8"
        }
      ],
      "stateMutability": "view",
      "type": "function"
    },
    {
      "inputs": [
        {
          "internalType": "address",
          "name": "from",
          "type": "address"
        },
        {
          "internalType": "address",
          "name": "to",
          "type": "address"
        },
        {
          "internalType": "uint256",
          "name": "amount",
          "type": "uint256"
        },
        {
          "internalType": "string",
          "name": "reason",
          "type": "string"
        }
      ],
      "name": "forcedTransfer",
      "outputs": [],
      "stateMutability": "nonpayable",
      "type": "function"
    },
    {
      "inputs": [
        {
          "internalType": "address",
          "name": "",
          "type": "address"
        }
      ],
      "name": "lost",
      "outputs": [
        {
          "internalType": "bool",
          "name": "",
          "type": "bool"
        }
      ],
      "stateMutability": "view",
      "type": "function"
    },
    {
      "inputs": [
        {
          "internalType": "address",
          "name": "to",
          "type": "address"
        },
        {
          "internalType": "uint256",
          "name": "amount",
          "type": "uint256"
        }
      ],
      "name": "mint",
      "outputs": [],
      "stateMutability": "nonpayable",
      "type": "function"
    },
    {
      "inputs": [],
      "name": "name",
      "outputs": [
        {
          "internalType": "string",
          "name": "",
          "type": "string"
        }
      ],
      "stateMutability": "view",
      "type": "function"
    },
    {
      "inputs": [],
      "name": "owner",
      "outputs": [
        {
          "internalType": "address",
          "name": "",
          "type": "address"
        }
      ],
      "stateMutability": "view",
      "type": "function"
    },
    {
      "inputs": [],
      "name": "pause",
      "outputs": [],
      "stateMutability": "nonpayable",
      "type": "function"
    },
    {
      "inputs": [],
      "name": "paused",
      "outputs": [
        {
          "internalType": "bool",
          "name": "",
          "type": "bool"
        }
      ],
      "stateMutability": "view",
      "type": "function"
    },
    {
      "inputs": [],
      "name": "registry",
      "outputs": [
        {
          "internalType": "contract IIdentityRegistry",
          "name": "",
          "type": "address"
        }
      ],
      "stateMutability": "view",
      "type": "function"
    },
    {
      "inputs": [
        {
          "internalType": "address",
          "name": "a",
          "type": "address"
        },
        {
          "internalType": "bool",
          "name": "enabled",
          "type": "bool"
        }
      ],
      "name": "setAgent",
      "outputs": [],
      "stateMutability": "nonpayable",
      "type": "function"
    },
    {
      "inputs": [
        {
          "internalType": "address",
          "name": "c",
          "type": "address"
        }
      ],
      "name": "setCompliance",
      "outputs": [],
      "stateMutability": "nonpayable",
      "type": "function"
    },
    {
      "inputs": [
        {
          "internalType": "address",
          "name": "wallet",
          "type": "address"
        },
        {
          "internalType": "bool",
          "name": "isLost",
          "type": "bool"
        }
      ],
      "name": "setLost",
      "outputs": [],
      "stateMutability": "nonpayable",
      "type": "function"
    },
    {
      "inputs": [
        {
          "internalType": "address",
          "name": "newOwner",
          "type": "address"
        }
      ],
      "name": "setOwner",
      "outputs": [],
      "stateMutability": "nonpayable",
      "type": "function"
    },
    {
      "inputs": [
        {
          "internalType": "address",
          "name": "r",
          "type": "address"
        }
      ],
      "name": "setRegistry",
      "outputs": [],
      "stateMutability": "nonpayable",
      "type": "function"
    },
    {
      "inputs": [],
      "name": "symbol",
      "outputs": [
        {
          "internalType": "string",
          "name": "",
          "type": "string"
        }
      ],
      "stateMutability": "view",
      "type": "function"
    },
    {
      "inputs": [],
      "name": "totalSupply",
      "outputs": [
        {
          "internalType": "uint256",
          "name": "",
          "type": "uint256"
        }
      ],
      "stateMutability": "view",
      "type": "function"
    },
    {
      "inputs": [
        {
          "internalType": "address",
          "name": "to",
          "type": "address"
        },
        {
          "internalType": "uint256",
          "name": "amount",
          "type": "uint256"
        }
      ],
      "name": "transfer",
      "outputs": [
        {
          "internalType": "bool",
          "name": "",
          "type": "bool"
        }
      ],
      "stateMutability": "nonpayable",
      "type": "function"
    },
    {
      "inputs": [
        {
          "internalType": "address",
          "name": "from",
          "type": "address"
        },
        {
          "internalType": "address",
          "name": "to",
          "type": "address"
        },
        {
          "internalType": "uint256",
          "name": "amount",
          "type": "uint256"
        }
      ],
      "name": "transferFrom",
      "outputs": [
        {
          "internalType": "bool",
          "name": "",
          "type": "bool"
        }
      ],
      "stateMutability": "nonpayable",
      "type": "function"
    },
    {
      "inputs": [],
      "name": "unpause",
      "outputs": [],
      "stateMutability": "nonpayable",
      "type": "function"
    }
  ],
  "bytecode": "0x60806040523462000411576200191a803803806200001d8162000416565b928339810160a082820312620004115781516001600160401b0391908281116200041157816200004f9185016200043c565b602091828501519084821162000411576200006c9186016200043c565b906200007b60408601620004ae565b936200009860806200009060608901620004ae565b9701620004ae565b6001600160a01b03958616969094908715620003e25786169384151580620003d6575b15620003ab5783519183831162000395576000908154936001968786811c961680156200038a575b8387101462000376578190601f9687811162000323575b508390878311600114620002bf578592620002b3575b5050600019600383901b1c191690871b1782555b82519485116200029f5785548681811c9116801562000294575b82821014620002805790818587969594931162000227575b5080938511600114620001c0575092620001b4575b5050600019600383901b1c191690821b1790555b60018060a01b0319938460055416176005558360095416176009551690600a541617600a556040516114569081620004c48239f35b0151905038806200016b565b868252808220879650939291601f198616915b8282106200020d5750508411620001f3575b505050811b0190556200017f565b015160001960f88460031b161c19169055388080620001e5565b8484015186558897909501949384019390810190620001d3565b9091929394508683528183208580880160051c82019284891062000276575b9188978a9297969594930160051c01915b8281106200026757505062000156565b84815588975089910162000257565b9250819262000246565b634e487b7160e01b83526022600452602483fd5b90607f16906200013e565b634e487b7160e01b82526041600452602482fd5b01519050388062000110565b8580528486208a94509190601f198416875b878282106200030c5750508411620002f2575b505050811b01825562000124565b015160001960f88460031b161c19169055388080620002e4565b8385015186558d97909501949384019301620002d1565b9091508480528385208780850160051c8201928686106200036c575b918b91869594930160051c01915b8281106200035d575050620000fa565b8781558594508b91016200034d565b925081926200033f565b634e487b7160e01b84526022600452602484fd5b95607f1695620000e3565b634e487b7160e01b600052604160045260246000fd5b60405162461bcd60e51b815260048082018490526024820152637a65726f60e01b6044820152606490fd5b508686161515620000bb565b60405162461bcd60e51b815260048101839052600760248201526606f776e65723d360cc1b6044820152606490fd5b600080fd5b6040519190601f01601f191682016001600160401b038111838210176200039557604052565b919080601f84011215620004115782516001600160401b038111620003955760209062000472601f8201601f1916830162000416565b92818452828287010111620004115760005b8181106200049a57508260009394955001015290565b858101830151848201840152820162000484565b51906001600160a01b0382168203620004115756fe608060408181526004918236101561001657600080fd5b600092833560e01c91826306fdde0314610ece57508163095ea7b314610e5f57816313af403514610de857816318160ddd14610dc957816323b872dd14610ce6578163313ce56714610cca5781633ad8b2d7146109b75781633f4ba83a1461095f5783826340c10f19146107b45750816349ba507b146107185781635c975abb146106f45781636290865d146106cb57816370405a471461068d57816370a08231146106555781637b1039991461062c5781638456cb59146105d15781638da5cb5b146105a857816395d89b41146104a657816397d8c6761461042d578382639dc29fac1461030257508163a9059cbb146102c2578163a91ee0dc14610249578163dd62ed3e146101f857508063f89817891461017c5763fd66091e1461013c57600080fd5b346101785760203660031901126101785760209160ff9082906001600160a01b03610165611052565b1681526006855220541690519015158152f35b5080fd5b82346101f55760203660031901126101f557610196611052565b6005546001600160a01b0391906101b090831633146110b2565b166101bc8115156110ea565b600a80546001600160a01b031916821790557fa958a8141c83d69ebaaa9383a0cf588c2c4e6f8dc823573bb94ccc3e4848e7f78280a280f35b80fd5b90503461024557816003193601126102455760209282610216611052565b9161021f61106d565b6001600160a01b0393841682529386522091166000908152908352819020549051908152f35b8280fd5b83346101f55760203660031901126101f557610263611052565b6005546001600160a01b03919061027d90831633146110b2565b166102898115156110ea565b600980546001600160a01b031916821790557fdb0239c63d4033dcdd21bd44f8dd479a03efbae12f6bbe27c0a5f923d26514cc8280a280f35b5050346101785780600319360112610178576020906102fb6102e2611052565b6102f160ff6007541615611154565b6024359033611265565b5160018152f35b9291503461042957816003193601126104295761031d611052565b9160243591338552600660205260ff82862054168015610415575b6103419061111c565b6001600160a01b0384811680875260036020528387205490959190859061036a8282101561120c565b878952600360205203848820558460025403600255600a541691823b1561041157835163469753b960e11b81526001600160a01b03909216908201908152602081018590529091869183919082908490829060400103925af18015610407579085916103ee575b50506000805160206114018339815191529160209151908152a380f35b6103f790610fbd565b6104025783386103d1565b505050fd5b82513d87823e3d90fd5b8680fd5b506005546001600160a01b03163314610338565b5050fd5b505034610178577fdfbbd189290ad6ccafc74f11e514df22fe2c990b1f70c48e80c0c152ccf16415602061046036611083565b60055490916001600160a01b039161047b90831633146110b2565b16938486526006835261049c828288209060ff801983541691151516179055565b519015158152a280f35b8284346101f557806003193601126101f55750805190600092600180549081811c91818116801561059e575b602094858510821461058b575083875290811561056b5750600114610512575b5050506105048261050e940383610fe7565b5191829182611009565b0390f35b60008181529295507fb10e2d527612073b26eecdfd717e6a320cf44b4afac2b0732d9fcbe2b7fa0cf65b828410610558575050508261050e9461050492820101946104f2565b805486850188015292860192810161053c565b60ff1916868501525050151560051b83010192506105048261050e6104f2565b634e487b7160e01b895260229052602488fd5b92607f16926104d2565b50503461017857816003193601126101785760055490516001600160a01b039091168152602090f35b83346101f557806003193601126101f5576105f760018060a01b036005541633146110b2565b600160ff196007541617600755337f62e78cea01bee320cd4e420270b5ea74000d11b0c9f74754ebdbfc544b05a2588280a280f35b50503461017857816003193601126101785760095490516001600160a01b039091168152602090f35b5050346101785760203660031901126101785760209181906001600160a01b0361067d611052565b1681526003845220549051908152f35b5050346101785760203660031901126101785760209160ff9082906001600160a01b036106b8611052565b1681526008855220541690519015158152f35b505034610178578160031936011261017857600a5490516001600160a01b039091168152602090f35b50503461017857816003193601126101785760209060ff6007541690519015158152f35b5050346101785761077161072b36611083565b809291338652600660205260ff858720541680156107a0575b61074d9061111c565b60018060a01b031693848652600860205285209060ff801983541691151516179055565b610779575080f35b7fc8b9fe42bb60581daa8b3ec9bd5cb0145477e23a96801aa7bf3dcb545ae86d9c8280a280f35b506005546001600160a01b03163314610744565b915091346101785780600319360112610178576107cf611052565b926024353384526020916006835260ff8486205416801561094b575b6107f49061111c565b61080360ff6007541615611154565b6001600160a01b03868116969061081b881515611189565b60648582600a54168851928380926372331c7360e11b82526000898301528d60248301528960448301525afa9081156109415790610860918991610914575b506111d3565b61086c84600254611242565b60025587875260038552858720610884858254611242565b9055600a541691823b15610411578551635f8dead360e01b81526001600160a01b03909216908201908152602081018490529091869183919082908490829060400103925af1801561090a579085916108f2575b50506000805160206114018339815191529251908152a380f35b6108fb90610fbd565b6109065783386108d8565b8380fd5b84513d87823e3d90fd5b6109349150873d891161093a575b61092c8183610fe7565b8101906111bb565b3861085a565b503d610922565b87513d8a823e3d90fd5b506005546001600160a01b031633146107eb565b83346101f557806003193601126101f55761098560018060a01b036005541633146110b2565b60ff1960075416600755337f5db9ee0a495bf2e6ff9c91a7834c1ba4fdd244a5e8aa4e537bd38aeae4b073aa8280a280f35b91905034610245576080366003190112610245576109d3611052565b916109dc61106d565b916044359060643567ffffffffffffffff808211610cc65736602383011215610cc65781850135908111610cc6573660248284010111610cc6573388526020946006865260ff848a2054168015610cb2575b610a379061111c565b6001600160a01b0387811698909790610a518a1515611189565b8315610c7d57600a5486516372331c7360e11b81526001600160a01b038084168683019081529085166020820152604081018a90528d9493928b9183918e16908290819060600103915afa908115610c735790610ab4918591610c5c57506111d3565b898116998a845260038a528888852054610ad08282101561120c565b8c865260038c5203888520558b8452878420610aed8a8254611242565b9055600a541690813b156109065787516322ebca6d60e21b81526001600160a01b039182169581019586529216602085015260408401889052909283919082908490829060600103925af18015610c5257610bf9575b50857fbb53097141337c38a36fed7fae913304cd0c540e1200dbb4c8c1cee707f9f2c260246060600080516020611401833981519152989796958b9586868f81815260088d5260ff8b82205416610bcd575b5050508088519485938b85528a8d860152828b860152018484013781810183018e9052601f01601f19168101030190a351908152a380f35b807fced95d270303f50b4373064f4148282a32dd521235b73c351f0955a594941a3091a386868f610b95565b7fbb53097141337c38a36fed7fae913304cd0c540e1200dbb4c8c1cee707f9f2c260246060600080516020611401833981519152989796958b95868c9e610c408e98610fbd565b9e505095509596979850505050610b43565b84513d8b823e3d90fd5b61093491508b3d8d1161093a5761092c8183610fe7565b88513d86823e3d90fd5b855162461bcd60e51b8152808401899052600f60248201526e1c99585cdbdb881c995c5d5a5c9959608a1b6044820152606490fd5b506005546001600160a01b03163314610a2e565b8780fd5b5050346101785781600319360112610178576020905160128152f35b83833461017857606036600319011261017857610d01611052565b610d0961106d565b60443591610d1c60ff6007541615611154565b6001600160a01b038116808652602087815285872033885281528587205490969091858310610d9a5760018301610d5c575b505050906102fb9291611265565b858303928311610d8757908697986102fb979282528952818120338252895220558594938780610d4e565b634e487b7160e01b825260118952602482fd5b865162461bcd60e51b8152808a018990526009602482015268616c6c6f77616e636560b81b6044820152606490fd5b5050346101785781600319360112610178576020906002549051908152f35b83346101f55760203660031901126101f557610e02611052565b600554906001600160a01b0390610e1c33838516146110b2565b168091610e2a8215156110ea565b6001600160a01b031916176005557fa2ea9883a321a3e97b8266c2b078bfeec6d50c711ed71f874a90d500ae2eaf368280a280f35b905034610245578160031936011261024557602092610e7c611052565b918360243592839233825287528181209460018060a01b0316948582528752205582519081527f8c5be1e5ebec7d5bd14f71427d1e84f3dd0314c0f7b2291e5b200ac8c7c3b925843392a35160018152f35b929150346109065783600319360112610906578354600181811c9186908281168015610fb3575b6020958686108214610fa05750848852908115610f7e5750600114610f26575b61050e8686610504828b0383610fe7565b8080949750527f290decd9548b62a8d60345a988386fc84ba6bc95484008f6362f93160ef3e5635b828410610f6b575050508261050e94610504928201019438610f15565b8054868501880152928601928101610f4e565b60ff191687860152505050151560051b83010192506105048261050e38610f15565b634e487b7160e01b845260229052602483fd5b93607f1693610ef5565b67ffffffffffffffff8111610fd157604052565b634e487b7160e01b600052604160045260246000fd5b90601f8019910116810190811067ffffffffffffffff821117610fd157604052565b6020808252825181830181905290939260005b82811061103e57505060409293506000838284010152601f8019910116010190565b81810186015184820160400152850161101c565b600435906001600160a01b038216820361106857565b600080fd5b602435906001600160a01b038216820361106857565b6040906003190112611068576004356001600160a01b0381168103611068579060243580151581036110685790565b156110b957565b60405162461bcd60e51b81526020600482015260096024820152683737ba1037bbb732b960b91b6044820152606490fd5b156110f157565b606460405162461bcd60e51b81526020600482015260046024820152637a65726f60e01b6044820152fd5b1561112357565b60405162461bcd60e51b81526020600482015260096024820152681b9bdd081859d95b9d60ba1b6044820152606490fd5b1561115b57565b60405162461bcd60e51b81526020600482015260066024820152651c185d5cd95960d21b6044820152606490fd5b1561119057565b606460405162461bcd60e51b81526020600482015260046024820152630746f3d360e41b6044820152fd5b90816020910312611068575180151581036110685790565b156111da57565b60405162461bcd60e51b815260206004820152600a602482015269636f6d706c69616e636560b01b6044820152606490fd5b1561121357565b60405162461bcd60e51b815260206004820152600760248201526662616c616e636560c81b6044820152606490fd5b9190820180921161124f57565b634e487b7160e01b600052601160045260246000fd5b9092916001600160a01b03808516929091611281841515611189565b828216926000968488526020936008855260409260ff848b2054166113d057600a5484516372331c7360e11b81526001600160a01b03848116600483015285166024820152604481018790528b93929188908290606490829086165afa9081156113c657906112f69185916113af57506111d3565b87835260038752858584205461130e8282101561120c565b89855260038952038584205588835284832061132b878254611242565b9055600a5416803b156102455784516322ebca6d60e21b81526001600160a01b039283166004820152939091166024840152604483018590528290606490829084905af180156113a5576000805160206114018339815191529596979850611396575b5051908152a3565b61139f90610fbd565b3861138e565b82513d8a823e3d90fd5b6109349150893d8b1161093a5761092c8183610fe7565b86513d86823e3d90fd5b835162461bcd60e51b8152600481018790526009602482015268199c9bdb481b1bdcdd60ba1b6044820152606490fdfeddf252ad1be2c89b69c2b068fc378daa952ba7f163c4a11628f55a4df523b3efa26469706673582212207bbf33c0c2d7c59a0625a73733c003c7bfdba926e24d0c67828d759eb98ac45b64736f6c63430008140033",
  "linkReferences": {},
  "deployedLinkReferences": {}
}