{
  "_format": "hh-sol-artifact-1",
  "contractName": "DefaultCompliance",
  "sourceName": "contracts/compliance/DefaultCompliance.sol",
  "abi": [
    {
      "inputs": [
        {
          "internalType": "address",
          "name": "_owner",
          "type": "address"
        },
        {
          "internalType": "address",
          "name": "_registry",
          "type": "address"
        }
      ],
      "stateMutability": "nonpayable",
      "type": "constructor"
    },
    {
      "anonymous": false,
      "inputs": [
        {
          "indexed": false,
          "internalType": "uint16",
          "name": "country",
          "type": "uint16"
        },
        {
          "indexed": false,
          "internalType": "bool",
          "name": "allowed",
          "type": "bool"
        }
      ],
      "name": "CountryRestrictionSet",
      "type": "event"
    },
    {
      "anonymous": false,
      "inputs": [
        {
          "indexed": false,
          "internalType": "uint40",
          "name": "until",
          "type": "uint40"
        }
      ],
      "name": "LockupSet",
      "type": "event"
    },
    {
      "anonymous": false,
      "inputs": [
        {
          "indexed": false,
          "internalType": "uint256",
          "name": "max",
          "type": "uint256"
        }
      ],
      "name": "MaxHoldersSet",
      "type": "event"
    },
    {
      "anonymous": false,
      "inputs": [
        {
          "indexed": true,
          "internalType": "address",
          "name": "from",
          "type": "address"
        },
        {
          "indexed": true,
          "internalType": "address",
          "name": "to",
          "type": "address"
        },
        {
          "indexed": false,
          "internalType": "uint256",
          "name": "amount",
          "type": "uint256"
        }
      ],
      "name": "TransferApproved",
      "type": "event"
    },
    {
      "anonymous": false,
      "inputs": [
        {
          "indexed": true,
          "internalType": "address",
          "name": "from",
          "type": "address"
        },
        {
          "indexed": true,
          "internalType": "address",
          "name": "to",
          "type": "address"
        },
        {
          "indexed": false,
          "internalType": "uint256",
          "name": "amount",
          "type": "uint256"
        },
        {
          "indexed": false,
          "internalType": "string",
          "name": "reason",
          "type": "string"
        }
      ],
      "name": "TransferRejected",
      "type": "event"
    },
    {
      "inputs": [
        {
          "internalType": "uint16",
          "name": "",
          "type": "uint16"
        }
      ],
      "name": "allowedCountries",
      "outputs": [
        {
          "internalType": "bool",
          "name": "",
          "type": "bool"
        }
      ],
      "stateMutability": "view",
      "type": "function"
    },
    {
      "inputs": [
        {
          "internalType": "address",
          "name": "",
          "type": "address"
        }
      ],
      "name": "balancesCache",
      "outputs": [
        {
          "internalType": "uint256",
          "name": "",
          "type": "uint256"
        }
      ],
      "stateMutability": "view",
      "type": "function"
    },
    {
      "inputs": [
        {
          "internalType": "address",
          "name": "from",
          "type": "address"
        },
        {
          "internalType": "address",
          "name": "to",
          "type": "address"
        },
        {
          "internalType": "uint256",
          "name": "amount",
          "type": "uint256"
        }
      ],
      "name": "canTransfer",
      "outputs": [
        {
          "internalType": "bool",
          "name": "",
          "type": "bool"
        }
      ],
      "stateMutability": "view",
      "type": "function"
    },
    {
      "inputs": [],
      "name": "countryAllowlistActive",
      "outputs": [
        {
          "internalType": "bool",
          "name": "",
          "type": "bool"
        }
      ],
      "stateMutability": "view",
      "type": "function"
    },
    {
      "inputs": [
        {
          "internalType": "address",
          "name": "to",
          "type": "address"
        },
        {
          "internalType": "uint256",
          "name": "amount",
          "type": "uint256"
        }
      ],
      "name": "created",
      "outputs": [],
      "stateMutability": "nonpayable",
      "type": "function"
    },
    {
      "inputs": [
        {
          "internalType": "address",
          "name": "from",
          "type": "address"
        },
        {
          "internalType": "uint256",
          "name": "amount",
          "type": "uint256"
        }
      ],
      "name": "destroyed",
      "outputs": [],
      "stateMutability": "nonpayable",
      "type": "function"
    },
    {
      "inputs": [],
      "name": "disableCountryAllowlist",
      "outputs": [],
      "stateMutability": "nonpayable",
      "type": "function"
    },
    {
      "inputs": [
        {
          "internalType": "address",
          "name": "",
          "type": "address"
        }
      ],
      "name": "exempt",
      "outputs": [
        {
          "internalType": "bool",
          "name": "",
          "type": "bool"
        }
      ],
      "stateMutability": "view",
      "type": "function"
    },
    {
      "inputs": [],
      "name": "holdersCount",
      "outputs": [
        {
          "internalType": "uint256",
          "name": "",
          "type": "uint256"
        }
      ],
      "stateMutability": "view",
      "type": "function"
    },
    {
      "inputs": [],
      "name": "lockupUntil",
      "outputs": [
        {
          "internalType": "uint40",
          "name": "",
          "type": "uint40"
        }
      ],
      "stateMutability": "view",
      "type": "function"
    },
    {
      "inputs": [],
      "name": "maxHolders",
      "outputs": [
        {
          "internalType": "uint256",
          "name": "",
          "type": "uint256"
        }
      ],
      "stateMutability": "view",
      "type": "function"
    },
    {
      "inputs": [],
      "name": "owner",
      "outputs": [
        {
          "internalType": "address",
          "name": "",
          "type": "address"
        }
      ],
      "stateMutability": "view",
      "type": "function"
    },
    {
      "inputs": [],
      "name": "registry",
      "outputs": [
        {
          "internalType": "contract IIdentityRegistry",
          "name": "",
          "type": "address"
        }
      ],
      "stateMutability": "view",
      "type": "function"
    },
    {
      "inputs": [
        {
          "internalType": "uint16",
          "name": "country",
          "type": "uint16"
        },
        {
          "internalType": "bool",
          "name": "allowed",
          "type": "bool"
        }
      ],
      "name": "setCountryAllowed",
      "outputs": [],
      "stateMutability": "nonpayable",
      "type": "function"
    },
    {
      "inputs": [
        {
          "internalType": "address",
          "name": "addr",
          "type": "address"
        },
        {
          "internalType": "bool",
          "name": "isExempt",
          "type": "bool"
        }
      ],
      "name": "setExempt",
      "outputs": [],
      "stateMutability": "nonpayable",
      "type": "function"
    },
    {
      "inputs": [
        {
          "internalType": "uint40",
          "name": "until",
          "type": "uint40"
        }
      ],
      "name": "setLockup",
      "outputs": [],
      "stateMutability": "nonpayable",
      "type": "function"
    },
    {
      "inputs": [
        {
          "internalType": "uint256",
          "name": "max",
          "type": "uint256"
        }
      ],
      "name": "setMaxHolders",
      "outputs": [],
      "stateMutability": "nonpayable",
      "type": "function"
    },
    {
      "inputs": [
        {
          "internalType": "address",
          "name": "newOwner",
          "type": "address"
        }
      ],
      "name": "setOwner",
      "outputs": [],
      "stateMutability": "nonpayable",
      "type": "function"
    },
    {
      "inputs": [
        {
          "internalType": "address",
          "name": "newToken",
          "type": "address"
        }
      ],
      "name": "setToken",
      "outputs": [],
      "stateMutability": "nonpayable",
      "type": "function"
    },
    {
      "inputs": [],
      "name": "token",
      "outputs": [
        {
          "internalType": "address",
          "name": "",
          "type": "address"
        }
      ],
      "stateMutability": "view",
      "type": "function"
    },
    {
      "inputs": [
        {
          "internalType": "address",
          "name": "from",
          "type": "address"
        },
        {
          "internalType": "address",
          "name": "to",
          "type": "address"
        },
        {
          "internalType": "uint256",
          "name": "amount",
          "type": "uint256"
        }
      ],
      "name": "transferred",
      "outputs": [],
      "stateMutability": "nonpayable",
      "type": "function"
    }
  ],
  "bytecode": "0x6080346100ce57601f610ff338819003918201601f19168301916001600160401b038311848410176100d35780849260409485528339810103126100ce57610052602061004b836100e9565b92016100e9565b6001600160a01b039182169190821515806100c3575b156100985760018060a01b03199283600054161760005516906002541617600255604051610ef590816100fe8239f35b606460405162461bcd60e51b81526020600482015260046024820152637a65726f60e01b6044820152fd5b508181161515610068565b600080fd5b634e487b7160e01b600052604160045260246000fd5b51906001600160a01b03821682036100ce5756fe6040608081526004908136101561001557600080fd5b600091823560e01c90816306cb03f7146108c957816313af403514610879578163144fa6d71461081f57816340a1a1cb146107ea5781635f8dead3146107185781636b4ed21b146106fa5781637b103999146106d15781638365066b146106775781638baf29b4146104815781638bf5c4ee146104625781638d2ea7721461036d575080638da5cb5b146103465780639791484c1461031e5780639fde54f5146102c0578063b1ff421e1461028a578063bb50af6f14610267578063bff9c1c4146101cd578063dc3eb2b714610196578063e46638e614610172578063f1320af2146101355763fc0c546a1461010a57600080fd5b3461013157816003193601126101315760015490516001600160a01b039091168152602090f35b5080fd5b50346101315760203660031901126101315760209160ff9082906001600160a01b0361015f610956565b1681526008855220541690519015158152f35b50346101315760209061018d61018736610971565b91610a87565b90519015158152f35b50346101315760203660031901126101315760209181906001600160a01b036101bd610956565b1681526005845220549051908152f35b50346101315780600319360112610131577fcb202a7781a1fa483d7062ac9b9e79f3e4ebc8df0bd8de7be9bc2fc4ae6254f5906102086109b5565b61ffff6102136109a6565b9161022860018060a01b0387541633146109c6565b1690818552600660205261024a818487209060ff801983541691151516179055565b600160ff196007541617600755825191825215156020820152a180f35b503461013157816003193601126101315760209060ff6007541690519015158152f35b50346101315760203660031901126101315760ff8160209361ffff6102ad6109b5565b1681526006855220541690519015158152f35b503461013157806003193601126101315761031b906102dd610956565b906102e66109a6565b845490926001600160a01b039161030090831633146109c6565b168452600860205283209060ff801983541691151516179055565b80f35b503461013157816003193601126101315760209064ffffffffff60025460a01c169051908152f35b5034610131578160031936011261013157905490516001600160a01b039091168152602090f35b9190503461045e578060031936011261045e57610388610956565b600154602435916001600160a01b03916103a59083163314610e57565b16908115158080610448575b1561041857506103cc90828652600560205283862054610e8f565b91829185526005602052842055158061040e575b6103e8575080f35b80546000198101919082116103fb575580f35b634e487b7160e01b835260119052602482fd5b50805415156103e0565b909350919091610429575b50505080f35b61043e91845260056020528320918254610e8f565b9055388080610423565b50828652600860205260ff8487205416156103b1565b8280fd5b5050346101315781600319360112610131576020906003549051908152f35b9190503461045e5761049236610971565b9160018060a09593951b0380916104ae82600154163314610e57565b16938415158080610661575b1561063f575084875260056020526104d58484892054610e8f565b858852600560205280848920551580610635575b61060d575b169384151580806105f7575b156105ae57508486526005602052818620546105168482610eb2565b86885260056020528388205515806105a5575b61055d575b507fb3b962ba1261f3080e7d4f5f2002b0f8338c5bb41cdab72866777fd7b9dc9b9e916020915b51908152a380f35b8054906001820180921161059257557fb3b962ba1261f3080e7d4f5f2002b0f8338c5bb41cdab72866777fd7b9dc9b9e61052e565b634e487b7160e01b875260119052602486fd5b50821515610529565b7fb3b962ba1261f3080e7d4f5f2002b0f8338c5bb41cdab72866777fd7b9dc9b9e939150916020921561055557858752600583528087206105f0838254610eb2565b9055610555565b50858752600860205260ff8388205416156104fa565b855460001981019081116106225786556104ee565b634e487b7160e01b885260118752602488fd5b50855415156104e9565b156104ee57848752600560205282872061065a858254610e8f565b90556104ee565b50858852600860205260ff8489205416156104ba565b90503461045e57602036600319011261045e577fd95f6c53e97f4296dd8ed1d779512e13c947410183d93ca8d54e5a913c2050559160209135906106c560018060a01b0386541633146109c6565b8160035551908152a180f35b50503461013157816003193601126101315760025490516001600160a01b039091168152602090f35b90503461045e578260031936011261045e5760209250549051908152f35b9190503461045e578060031936011261045e57610733610956565b60015460243592916001600160a01b03916107519083163314610e57565b1680151580806107d4575b156107b15750808552600560205281852054916107798484610eb2565b91865260056020528520551590816107a7575b50610795575080f35b805490600182018092116103fb575580f35b905015153861078c565b909293506107bf5750505080f35b61043e91845260056020528320918254610eb2565b50818652600860205260ff83872054161561075c565b833461081c578060031936011261081c5761080f60018060a01b0382541633146109c6565b60ff196007541660075580f35b80fd5b833461081c57602036600319011261081c57610839610956565b81546001600160a01b03919061085290831633146109c6565b1661085e8115156109fe565b6bffffffffffffffffffffffff60a01b600154161760015580f35b833461081c57602036600319011261081c57610893610956565b8154906001600160a01b03906108ac33838516146109c6565b16906108b98215156109fe565b6001600160a01b03191617815580f35b90503461045e57602036600319011261045e573564ffffffffff8116808203610952577fd53bd5ee111e3581c8d6e609752a34e239ccde43c217ac48733179fb229bba6b9260209261092560018060a01b0387541633146109c6565b6002805464ffffffffff60a01b191660a09290921b64ffffffffff60a01b1691909117905551908152a180f35b8380fd5b600435906001600160a01b038216820361096c57565b600080fd5b606090600319011261096c576001600160a01b0390600435828116810361096c5791602435908116810361096c579060443590565b60243590811515820361096c57565b6004359061ffff8216820361096c57565b156109cd57565b60405162461bcd60e51b81526020600482015260096024820152683737ba1037bbb732b960b91b6044820152606490fd5b15610a0557565b606460405162461bcd60e51b81526020600482015260046024820152637a65726f60e01b6044820152fd5b90601f8019910116810190811067ffffffffffffffff821117610a5257604052565b634e487b7160e01b600052604160045260246000fd5b5190811515820361096c57565b519064ffffffffff8216820361096c57565b6001600160a01b0391908216801515908180610e4c575b80610e33575b80610e18575b610de7575b81610dcc575b81610d58575b50610bca57811691821515918280610d3f575b80610cc1575b610cb8578280610c9f575b80610c93575b610b73575b50600354928315159283610b6b575b5082610b50575b82610b37575b5081610b2d575b50610b19575b50600190565b6004541015610b285738610b13565b600090565b9050151538610b0d565b9091506000526005602052604060002054159038610b06565b809250600052600860205260ff604060002054161591610b00565b925038610af9565b60025416602460a060409283519283809263631a2b1360e11b82528960048301525afa908115610c8857600091610bd2575b509061ffff602060ff930151166000526006602052600020541615610bca5738610aea565b505050600090565b60a0813d8211610c80575b81610bea60a09383610a30565b810103126101315782519160a0830183811067ffffffffffffffff821117610c6c578452610c1782610a68565b835260208201519061ffff8216820361081c575082608061ffff936020938460ff98970152610c47868201610a75565b86840152610c5760608201610a75565b60608401520151608082015292935050610ba5565b634e487b7160e01b82526041600452602482fd5b3d9150610bdd565b82513d6000823e3d90fd5b5060ff60075416610ae5565b5083600052600860205260ff6040600020541615610adf565b50505050600090565b506024602082600254166040519283809263b9209e3360e01b82528960048301525afa908115610d3357600091610cfa575b5015610ad4565b906020823d8211610d2b575b81610d1360209383610a30565b8101031261081c5750610d2590610a68565b38610cf3565b3d9150610d06565b6040513d6000823e3d90fd5b5083600052600860205260ff6040600020541615610ace565b9050602083600254169160246040518094819363b9209e3360e01b835260048301525afa908115610d3357600091610d93575b501538610abb565b906020823d8211610dc4575b81610dac60209383610a30565b8101031261081c5750610dbe90610a68565b38610d8b565b3d9150610d9f565b809150600052600860205260ff604060002054161590610ab5565b64ffffffffff60025460a01c168015159081610e0e575b5015610aaf575050505050600090565b9050421038610dfe565b50838316600052600860205260ff6040600020541615610aaa565b5080600052600860205260ff6040600020541615610aa4565b508383161515610a9e565b15610e5e57565b60405162461bcd60e51b81526020600482015260096024820152683737ba103a37b5b2b760b91b6044820152606490fd5b91908203918211610e9c57565b634e487b7160e01b600052601160045260246000fd5b91908201809211610e9c5756fea2646970667358221220ffd138579aab5b50d988991980913b3c4ed13257a186de0fe0a77123a2b95d1764736f6c63430008140033",
  "linkReferences": {},
  "deployedLinkReferences": {}
}