{
  "_format": "hh-sol-artifact-1",
  "contractName": "RevenueShareVault",
  "sourceName": "contracts/vault/RevenueShareVault.sol",
  "abi": [
    {
      "inputs": [
        {
          "internalType": "address",
          "name": "_owner",
          "type": "address"
        },
        {
          "internalType": "address",
          "name": "_stoToken",
          "type": "address"
        },
        {
          "internalType": "address",
          "name": "_settlement",
          "type": "address"
        }
      ],
      "stateMutability": "nonpayable",
      "type": "constructor"
    },
    {
      "anonymous": false,
      "inputs": [
        {
          "indexed": true,
          "internalType": "address",
          "name": "holder",
          "type": "address"
        },
        {
          "indexed": true,
          "internalType": "uint256",
          "name": "distributionId",
          "type": "uint256"
        },
        {
          "indexed": false,
          "internalType": "uint256",
          "name": "amount",
          "type": "uint256"
        }
      ],
      "name": "Claimed",
      "type": "event"
    },
    {
      "anonymous": false,
      "inputs": [
        {
          "indexed": true,
          "internalType": "uint256",
          "name": "id",
          "type": "uint256"
        },
        {
          "indexed": false,
          "internalType": "uint256",
          "name": "amount",
          "type": "uint256"
        },
        {
          "indexed": false,
          "internalType": "uint256",
          "name": "totalSupplyAt",
          "type": "uint256"
        }
      ],
      "name": "Distributed",
      "type": "event"
    },
    {
      "inputs": [
        {
          "internalType": "uint256",
          "name": "distributionId",
          "type": "uint256"
        }
      ],
      "name": "claim",
      "outputs": [],
      "stateMutability": "nonpayable",
      "type": "function"
    },
    {
      "inputs": [
        {
          "internalType": "uint256[]",
          "name": "ids",
          "type": "uint256[]"
        }
      ],
      "name": "claimMany",
      "outputs": [],
      "stateMutability": "nonpayable",
      "type": "function"
    },
    {
      "inputs": [
        {
          "internalType": "uint256",
          "name": "amount",
          "type": "uint256"
        }
      ],
      "name": "distribute",
      "outputs": [],
      "stateMutability": "nonpayable",
      "type": "function"
    },
    {
      "inputs": [
        {
          "internalType": "uint256",
          "name": "",
          "type": "uint256"
        }
      ],
      "name": "distributions",
      "outputs": [
        {
          "internalType": "uint256",
          "name": "amount",
          "type": "uint256"
        },
        {
          "internalType": "uint256",
          "name": "totalSupplyAt",
          "type": "uint256"
        },
        {
          "internalType": "uint256",
          "name": "claimed",
          "type": "uint256"
        },
        {
          "internalType": "uint40",
          "name": "timestamp",
          "type": "uint40"
        }
      ],
      "stateMutability": "view",
      "type": "function"
    },
    {
      "inputs": [],
      "name": "distributionsCount",
      "outputs": [
        {
          "internalType": "uint256",
          "name": "",
          "type": "uint256"
        }
      ],
      "stateMutability": "view",
      "type": "function"
    },
    {
      "inputs": [
        {
          "internalType": "address",
          "name": "",
          "type": "address"
        },
        {
          "internalType": "uint256",
          "name": "",
          "type": "uint256"
        }
      ],
      "name": "hasClaimed",
      "outputs": [
        {
          "internalType": "bool",
          "name": "",
          "type": "bool"
        }
      ],
      "stateMutability": "view",
      "type": "function"
    },
    {
      "inputs": [],
      "name": "owner",
      "outputs": [
        {
          "internalType": "address",
          "name": "",
          "type": "address"
        }
      ],
      "stateMutability": "view",
      "type": "function"
    },
    {
      "inputs": [
        {
          "internalType": "address",
          "name": "newOwner",
          "type": "address"
        }
      ],
      "name": "setOwner",
      "outputs": [],
      "stateMutability": "nonpayable",
      "type": "function"
    },
    {
      "inputs": [],
      "name": "settlement",
      "outputs": [
        {
          "internalType": "contract IERC20Revenue",
          "name": "",
          "type": "address"
        }
      ],
      "stateMutability": "view",
      "type": "function"
    },
    {
      "inputs": [],
      "name": "stoToken",
      "outputs": [
        {
          "internalType": "contract IStoTokenSnapshot",
          "name": "",
          "type": "address"
        }
      ],
      "stateMutability": "view",
      "type": "function"
    },
    {
      "inputs": [
        {
          "internalType": "uint256",
          "name": "distributionId",
          "type": "uint256"
        },
        {
          "internalType": "address",
          "name": "to",
          "type": "address"
        }
      ],
      "name": "sweepStale",
      "outputs": [],
      "stateMutability": "nonpayable",
      "type": "function"
    }
  ],
  "bytecode": "0x60c03461013357601f610f6238819003918201601f19168301916001600160401b0383118484101761013857808492606094604052833981010312610133576100478161014e565b9061006060406100596020840161014e565b920161014e565b6001600160a01b039290919083169081151580610128575b8061011d575b156100f257600080546001600160a01b03191690921790915582166080521660a052604051610dff9081610163823960805181818161034b015281816105b5015281816109200152610b66015260a05181818161017f01528181610327015281816106150152818161082a01526109dd0152f35b606460405162461bcd60e51b81526020600482015260046024820152637a65726f60e01b6044820152fd5b50838316151561007e565b508381161515610078565b600080fd5b634e487b7160e01b600052604160045260246000fd5b51906001600160a01b03821682036101335756fe6040608081526004908136101561001557600080fd5b600091823560e01c90816313af403514610b9557816313ee6b9714610b51578163379607f5146108b85781634487d3df1461085957816351160630146108155781638da5cb5b146107ed57816391c05b0b1461056b578163925489a8146102c8578163b293109614610281578163d75c1763146100bd575063daafd1b61461009c57600080fd5b346100b957816003193601126100b9576020906001549051908152f35b5080fd5b90503461027d578160031936011261027d576001600160a01b03602435818116808203610279576100fd906100f6848854163314610c50565b1515610c88565b6101078335610c00565b509264ffffffffff6303c26700816003870154160181811161026657164211156102375760028454940193845494858203958287116102245782146101f75755845163a9059cbb60e01b81526001600160a01b03909216908201908152602081810194909452909291839182908790829060400103927f0000000000000000000000000000000000000000000000000000000000000000165af19081156101eb576101ba925083916101bd575b50610d0a565b80f35b6101de915060203d81116101e4575b6101d68183610cba565b810190610cf2565b386101b4565b503d6101cc565b505051903d90823e3d90fd5b865162461bcd60e51b815260208185015260076024820152666e6f7468696e6760c81b6044820152606490fd5b634e487b7160e01b895260118452602489fd5b606490602086519162461bcd60e51b83528201526009602482015268746f6f206561726c7960b81b6044820152fd5b634e487b7160e01b885260118352602488fd5b8580fd5b8280fd5b5050346100b957806003193601126100b95760209160ff9082906001600160a01b036102ab610be5565b168152600285528181206024358252855220541690519015158152f35b9190503461027d576020918260031936011261053c5780359167ffffffffffffffff908184116102795736602385011215610279578383013591821161027957602494600591368785851b880101116105675792946001600160a01b037f00000000000000000000000000000000000000000000000000000000000000008116947f000000000000000000000000000000000000000000000000000000000000000090911693909190895b88811061037e578a80f35b8981831b840101358a8c6001805484101561055e573382528b8a8a6002928382528b8620888752825260ff8c87205416610551576103bb88610c00565b50968c51809481936370a0823160e01b835233908301525afa908115610547578e8c938f92938d94889161050b575b5080156104fc576103ff610409918a54610d41565b878a015490610d6a565b9788156104fc5761046b968995338a52838852808a208c8b52885289209060ff198254161790550161043c848254610d8a565b90558b5163a9059cbb60e01b815233918101918252602082019390935291938492839187918391604090910190565b03925af19182156104f15790610486926104d4575b50610d97565b85519081527f987d620f307ff6b94d58743cb7a7509f24071586a77759b77c2d4e29f75a2f9a873392a35b60001981146104c257600101610373565b634e487b7160e01b8b5260118852898bfd5b6104eb9150893d8b116101e4576101d68183610cba565b38610480565b8851903d90823e3d90fd5b505050505050505050506104b1565b945050938092508391503d8311610540575b6105278183610cba565b8101031261053c578c8e8c938c9351386103ea565b8380fd5b503d61051d565b8a513d86823e3d90fd5b50505050505050506104b1565b505050506104b1565b8780fd5b8383346100b9576020908160031936011261027d57833560018060a01b03610597818654163314610c50565b6105a2821515610c88565b82516318160ddd60e01b815290848288817f000000000000000000000000000000000000000000000000000000000000000085165afa9182156107855786926107be575b50811561078f5784869160648651809481936323b872dd60e01b8352338d8401523060248401528860448401527f0000000000000000000000000000000000000000000000000000000000000000165af1908115610785579061064f9187916107685750610d0a565b82516080810181811067ffffffffffffffff82111761075557845282815284810182815284820191878352606081019264ffffffffff92834216855260015468010000000000000000811015610742578060016106af9201600155610c00565b939093610730579060039392915183555160018301555160028201550191511664ffffffffff1982541617905560015493600019850194851161071d577fc5d35a65af09b3042394b742529d10f7fbf9a37294d6b13e4d63d06f9909a15b949596508351928352820152a280f35b634e487b7160e01b865260118752602486fd5b634e487b7160e01b8b528a8c5260248bfd5b634e487b7160e01b8b5260418c5260248bfd5b634e487b7160e01b875260418852602487fd5b61077f9150863d88116101e4576101d68183610cba565b886101b4565b84513d88823e3d90fd5b835162461bcd60e51b815280880186905260096024820152686e6f20737570706c7960b81b6044820152606490fd5b9091508481813d83116107e6575b6107d68183610cba565b81010312610279575190876105e6565b503d6107cc565b5050346100b957816003193601126100b957905490516001600160a01b039091168152602090f35b5050346100b957816003193601126100b957517f00000000000000000000000000000000000000000000000000000000000000006001600160a01b03168152602090f35b90503461027d57602036600319011261027d5735916001548310156108b55750610884608092610c00565b509081549160018101549164ffffffffff600360028401549301541692815194855260208501528301526060820152f35b80fd5b90503461027d5760208060031936011261053c57813592600154841015610b275733855260028252808520848652825260ff8186205416610af4576108fc84610c00565b5081516370a0823160e01b8152338186015290936001600160a01b039184816024817f000000000000000000000000000000000000000000000000000000000000000087165afa908115610aea578891610abd575b508015610a8d57610966610971918754610d41565b600187015490610d6a565b948515610a65576109d992859260028893338c52818652878c208b8d528652878c20600160ff19825416179055016109aa848254610d8a565b9055855163a9059cbb60e01b81523391810191825260208201939093529193849283918b918391604090910190565b03927f0000000000000000000000000000000000000000000000000000000000000000165af1908115610a5b577f987d620f307ff6b94d58743cb7a7509f24071586a77759b77c2d4e29f75a2f9a939291610a3a918891610a445750610d97565b519283523392a380f35b6104eb9150843d86116101e4576101d68183610cba565b82513d88823e3d90fd5b6064858386519162461bcd60e51b835281830152602482015263191d5cdd60e21b6044820152fd5b835162461bcd60e51b8152808301869052600a6024820152696e6f2062616c616e636560b01b6044820152606490fd5b90508481813d8311610ae3575b610ad48183610cba565b81010312610567575138610951565b503d610aca565b84513d8a823e3d90fd5b5162461bcd60e51b815291820152600f60248201526e185b1c9958591e4818db185a5b5959608a1b604482015260649150fd5b5162461bcd60e51b8152918201526006602482015265189859081a5960d21b604482015260649150fd5b5050346100b957816003193601126100b957517f00000000000000000000000000000000000000000000000000000000000000006001600160a01b03168152602090f35b83346108b55760203660031901126108b557610baf610be5565b8154906001600160a01b0390610bc83383851614610c50565b1690610bd5821515610c88565b6001600160a01b03191617815580f35b600435906001600160a01b0382168203610bfb57565b600080fd5b600154811015610c3a57600160005260021b7fb10e2d527612073b26eecdfd717e6a320cf44b4afac2b0732d9fcbe2b7fa0cf60190600090565b634e487b7160e01b600052603260045260246000fd5b15610c5757565b60405162461bcd60e51b81526020600482015260096024820152683737ba1037bbb732b960b91b6044820152606490fd5b15610c8f57565b606460405162461bcd60e51b81526020600482015260046024820152637a65726f60e01b6044820152fd5b90601f8019910116810190811067ffffffffffffffff821117610cdc57604052565b634e487b7160e01b600052604160045260246000fd5b90816020910312610bfb57518015158103610bfb5790565b15610d1157565b60405162461bcd60e51b81526020600482015260086024820152673a3930b739b332b960c11b6044820152606490fd5b81810292918115918404141715610d5457565b634e487b7160e01b600052601160045260246000fd5b8115610d74570490565b634e487b7160e01b600052601260045260246000fd5b91908201809211610d5457565b15610d9e57565b60405162461bcd60e51b815260206004820152600360248201526270617960e81b6044820152606490fdfea2646970667358221220ca901fa82ad7553bd5f97c3ac80fec56060601f16aa0fba25f21c9f9ce67255964736f6c63430008140033",
  "linkReferences": {},
  "deployedLinkReferences": {}
}